:100000000C947B000C94A3000C94A3000C94A3000C
:100010000C94A3000C94A3000C94A3000C94A300D4
:100020000C94A3000C94A3000C94A3000C94A300C4
:100030000C94A3000C94A3000C94A3000C94A300B4
:100040000C9472090C94A3000C9468040C94420460
:100050000C94A3000C94A3000C94A3000C94A30094
:100060000C94A9060C94A30057697265204164643E
:10007000726573733A20000123456789ABCDEFFEAB
:10008000DCBA9876543210F0E1D2C30000000023AD
:1000900000260029004A6F6220446F6E65203A20D6
:1000A0000000000000240027002A000000000025B6
:1000B0000028002B000404040404040404020202C7
:1000C0000202020303030303030102040810204099
:1000D0008001020408102001020408102000000022
:1000E00008000201000003040700000000000000F7
:1000F00000001D0EEC0911241FBECFEFD8E0DEBFBB
:10010000CDBF11E0A0E0B1E0E0EFF9E202C0059060
:100110000D92AA37B107D9F724E0AAE7B1E001C0F0
:100120001D92AA30B207E1F710E0CAE7D0E004C0A0
:100130002197FE010E942811C937D107C9F70E94F3
:10014000020A0C94EB140C940000CF92DF92EF9211
:10015000FF920F931F93CF93DF936C017A018B0172
:10016000C0E0D0E0CE15DF0581F0D8016D918D01A2
:10017000D601ED91FC910190F081E02DC601099529
:10018000892B11F02196EECF7E01C701DF91CF912F
:100190001F910F91FF90EF90DF90CF900895FC0199
:1001A000538D448D252F30E0842F90E0821B930BDC
:1001B000541710F0CF96089501970895FC01918D82
:1001C000828D981761F0828DDF01A80FB11D5D96B9
:1001D0008C91928D9F5F9F77928F90E008958FEF23
:1001E0009FEF0895FC01918D828D981731F0828DDB
:1001F000E80FF11D858D90E008958FEF9FEF089532
:10020000FC01918D228D892F90E080589F4F821B99
:1002100091098F77992708958AE392E00E9400015F
:1002200021E0892B09F420E0822F0895FC01848DC0
:10023000DF01A80FB11DA356BF4F2C91848D90E014
:1002400001968F739927848FA689B7892C93A089EB
:10025000B1898C91837080648C93938D848D981375
:1002600006C00288F389E02D80818F7D8083089508
:10027000EF92FF920F931F93CF93DF93EC0181E0F6
:10028000888F9B8D8C8D981305C0E889F9898081B2
:1002900085FD26C0F62E0B8D10E00F5F1F4F0F73EC
:1002A0001127E02E8C8DE8120CC00FB607FCFACF98
:1002B000E889F989808185FFF5CFCE010E9416017A
:1002C000F1CF8B8DFE01E80FF11DE356FF4FF08259
:1002D0009FB7F8940B8FEA89FB89808180620AC0FE
:1002E0009FB7F894EE89FF896083E889F989808156
:1002F0008370806480839FBF81E090E0DF91CF9125
:100300001F910F91FF90EF900895CF93DF93EC0131
:10031000888D8823C9F0EA89FB89808185FD05C025
:10032000A889B9898C9186FD0FC00FB607FCF5CF5F
:10033000808185FFF2CFA889B9898C9185FFEDCFA7
:10034000CE010E941601E7CFDF91CF91089580E0A2
:1003500090E0892B29F00E940C0181110C9400007F
:1003600008950895DC0150962D913C915197232BCF
:1003700069F01C96ED91FC911D97309711F08081EA
:1003800001C080E0082E000C990B08958FEF9FEFBD
:100390000895FC0180899189089585ED8093BC00C2
:1003A0008091BC0084FDFCCF1092350208954091ED
:1003B000BA01262F30E0240F311D21323105DCF443
:1003C000209135022430C9F4FC0180E090E08617CA
:1003D00058F43091BA012191DC01A656BE4FA30F0B
:1003E000B11D2C930196F3CF8091BA01680F6093F1
:1003F000BA0180E0089581E0089582E00895E091D7
:100400002402F0912502309729F0109237021092C1
:10041000360209940895CF93DF93AC01E091220254
:10042000F09123023097F1F09091390280913802D7
:100430009817C0F090E0292F30E02617370754F4C2
:10044000D901A658BE4FEA01C20FD31F28812C93B1
:100450009F5FF1CF1092390260933802CB01DF9198
:10046000CF910994DF91CF910895E0913902809165
:100470003802E81730F4F0E0E658FE4F808190E053
:1004800008958FEF9FEF089590913902809138027F
:10049000981750F4E92FF0E0E658FE4F208130E045
:1004A0009F5F9093390202C02FEF3FEFC90108957B
:1004B0008091380290E020913902821B91090895C1
:1004C000CF92DF92EF92FF920F931F93CF93DF9320
:1004D0007C01CB018A0120910102222389F0EB01EA
:1004E0006B01C40ED51ECC15DD0569F06991D701ED
:1004F000ED91FC910190F081E02DC7010995F3CFBA
:10050000642F0E94D701C801DF91CF911F910F91F5
:10051000FF90EF90DF90CF900895CF93DF931F92DD
:10052000CDB7DEB76983209101022223D1F020915B
:100530003602203240F021E030E0FC013383228398
:1005400080E090E015C080913702E82FF0E0EE5F88
:10055000FD4F998190838F5F80933702809336029D
:1005600005C061E0CE0101960E94D70181E090E0D4
:100570000F90DF91CF910895089580E090E0089565
:100580000F931F93CF93DF93EC018881998100979C
:1005900029F02A813B812617370788F48B016F5F8A
:1005A0007F4F0E942E11009761F0998388831B83EF
:1005B0000A832C813D81232B11F4FC01108281E000
:1005C00001C080E0DF91CF911F910F9108951F939B
:1005D000CF93DF93EC014889598941155105E1F02A
:1005E0008C859D85009719F0FC01108101C010E0F9
:1005F00041505109598B488BBC016F5F7F4F0E945E
:100600002912EC85FD8588899989E80FF91F1082E8
:10061000812F110F990B02C08FEF9FEFDF91CF91C8
:100620001F9108958091ED039091EE03892B29F09D
:100630008DED93E00E94E70201C08AE0682F81ED12
:1006400093E00C948D02EF92FF920F931F93CF9340
:10065000DF934115510519F480E090E028C0611541
:100660007105D1F38A017B01EC01688979896F5F9B
:100670007F4F640F751F0C960E94C002882361F3A0
:100680002C853D8588899989A801B701820F931F20
:100690000E940E1288899989800F911F998B888BEF
:1006A0002C853D85F901E80FF91F1082C801DF9103
:1006B000CF911F910F91FF90EF900895EF92FF92CD
:1006C0000F931F93CF93DF936115710511F480E0B1
:1006D0001CC041155105C1F07B01EC018C819D814D
:1006E0008A01080F191FB801CE010E94C002882399
:1006F00071F3288139818C819D81B701820F931F0D
:100700000E9422121D830C8381E0DF91CF911F9103
:100710000F91FF90EF900895CF93DF9300D0CDB766
:10072000DEB769831A8241E050E0BE016F5F7F4F00
:100730000C960E945E0390E00F900F90DF91CF9196
:100740000895892B81F09091380280913902981791
:1007500051F081ED93E00E944402682F8FEE93E008
:100760000E948C03F0CF0895CF93DF93EC01888132
:100770009981009711F00E947B0F198218821D82C7
:100780001C821B821A82DF91CF910895CF93DF9351
:10079000EC016115710561F0FB0101900020E9F7A2
:1007A0003197AF01461B570B0E945E03811103C0B6
:1007B000CE010E94B403CE01DF91CF910895EF9254
:1007C000FF920F931F93CF93DF93EC017B018A017C
:1007D000BA010E94C002811104C0CE010E94B4037C
:1007E00007C01D830C83B701888199810E94221262
:1007F000CE01DF91CF911F910F91FF90EF9008955F
:10080000FC01808191810C947B0FFB01DC0111962E
:100810001C921E9213961C921E92129715961C9271
:100820001E9214978617970749F0608171816115B0
:10083000710521F0448155810C94DF030895FC017A
:100840001182108213821282158214826115710541
:1008500051F0FB0101900020E9F73197AF01461BF1
:10086000570B0C94DF030895DB0114964D915C91B6
:1008700015976D917C91DC01ED91FC910280F381E3
:10088000E02D09941F920F920FB60F9211242F930F
:100890003F934F935F936F937F938F939F93AF9308
:1008A000BF93EF93FF938AE392E00E941601FF91BA
:1008B000EF91BF91AF919F918F917F916F915F91D8
:1008C0004F913F912F910F900FBE0F901F90189551
:1008D0001F920F920FB60F9211242F938F939F9315
:1008E000EF93FF93E0914A02F0914B028081E091F7
:1008F0005002F091510282FD12C09081809153020A
:100900008F5F8F7720915402821751F0E09153024C
:10091000F0E0E65CFD4F958F8093530201C080812B
:10092000FF91EF919F918F912F910F900FBE0F909C
:100930001F9018952F923F924F925F926F927F92E5
:100940008F929F92AF92BF92CF92DF92EF92FF92DF
:100950000F931F93CF93DF93CDB7DEB7A1970FB659
:10096000F894DEBF0FBECDBFFC01EC5BFF4F2081D2
:1009700033E03227DC01A30FB11D14966C932F5F77
:100980002083203409F0B6C1319680809180A28006
:10099000B38089869A86AB86BC863496A080B18067
:1009A000C280D380AD86BE86CF86D88A3496C0807A
:1009B000D180E280F380C98ADA8AEB8AFC8A349695
:1009C000E080F18002811381ED8AFE8A0F8B188FFF
:1009D00034960081118122813381098F1A8F2B8FE8
:1009E0003C8F0D8F1E8F2F8F38A329853A854B851D
:1009F0005C852D833E834F835887CD84DE84EF84CE
:100A0000F8884D895E896F89788D49835A836B8315
:100A10007C8309891A892B893C89212C312C29A2B4
:100A2000522D5031C8F449815A816B817C81402715
:100A30005127622773274C215D216E217F218980F8
:100A40009A80AB80BC80482559256A257B2547566E
:100A500056486D47754A99C0422D4F703C0154E08D
:100A6000459F600C711C1124D1011D96AF70BB27EE
:100A70001196AA0FBB1FAA0FBB1FA80FB91FF10128
:100A80003896EF70FF273196EE0FFF1FEE0FFF1F16
:100A9000E80FF91F8D909D90AD90BC9040815181E1
:100AA00062817381482559256A257B25D3011496D7
:100AB0008D909D90AD90BC901797482559256A253B
:100AC0007B25F1013296EF70FF273196EE0FFF1F65
:100AD000EE0FFF1FE80FF91F80809180A280B38086
:100AE000482559256A257B25440F551F661F771F0A
:100AF000411DF3014483558366837783F9A1F43163
:100B000008F491CFF83288F449815A816B817C8155
:100B100040275127622773274C255D256E257F25A9
:100B20004F5554416642714930C049A14C33E8F4F5
:100B3000B901A8014C295D296E297F2989809A80F5
:100B4000AB80BC80482159216A217B214801590191
:100B50008C209D20AE20BF20482959296A297B2955
:100B600044525344644E704710C049815A816B818E
:100B70007C8140275127622773274C255D256E25F0
:100B80007F254A525E436D497543A9A1AF70FC01B0
:100B9000B4E0AB9FE00DF11D11244D805E806F80AD
:100BA0007884ABE17694679457944794AA95D1F7EB
:100BB0008D809E80AF80B884B5E0880C991CAA1CFB
:100BC000BB1CBA95D1F784289528A628B72844805D
:100BD000558066807780840C951CA61CB71C480D38
:100BE000591D6A1D7B1D8D8C9E8CAF8CB8A0480D45
:100BF000591D6A1D7B1D46015701E2E0B694A7947A
:100C000097948794EA95D1F726013701FEE1440CC9
:100C1000551C661C771CFA95D1F7482859286A2874
:100C20007B28AFEF2A1A3A0ACD80DE80EF80F88465
:100C300089809A80AB80BC808D8E9E8EAF8EB8A24C
:100C4000A0E52A16310459F04D835E836F837887BF
:100C500009831A832B833C8393018201E0CEFC013C
:100C6000EB5BFF4F89849A84AB84BC84480D591D8B
:100C70006A1D7B1D408351836283738334964D8547
:100C80005E856F857889560167014A0D5B1D6C1D75
:100C90007D1D40835183628373833496C988DA88CB
:100CA000EB88FC884C0C5D1C6E1C7F1C40825182C2
:100CB0006282738234964D895E896F89788D040FC4
:100CC000151F261F371F0083118322833383349619
:100CD000498D5A8D6B8D7C8D89809A80AB80BC80CC
:100CE000480D591D6A1D7B1D4083518362837383A8
:100CF00071971082A1960FB6F894DEBF0FBECDBFDC
:100D0000DF91CF911F910F91FF90EF90DF90CF90E7
:100D1000BF90AF909F908F907F906F905F904F901B
:100D20003F902F900895262FFC01E75AFF4F4081F6
:100D30005181628173814F5F5F4F6F4F7F4F40835F
:100D4000518362837383622F0E949A0481E090E052
:100D500008951F920F920FB60F9211242F933F9375
:100D60004F935F936F937F938F939F93AF93BF93B3
:100D7000EF93FF938091B900887F803609F49CC07F
:100D800068F5883209F45BC090F4803109F454C0EE
:100D900038F4882309F4F6C0883009F44DC0F6C051
:100DA000883109F44CC0803209F45DC0EFC0803452
:100DB00009F468C048F4803309F455C0883309F059
:100DC000E5C080930002D8C0803509F44FC0883553
:100DD00009F45DC0883409F0D9C0D6C0883909F457
:100DE000C7C0A8F4883709F467C038F4883609F416
:100DF00063C0803709F460C0C9C0883809F4B8C03E
:100E0000803909F45FC0803809F0C0C05BC0803B06
:100E100009F486C038F4803A09F466C0883A09F4C7
:100E20007FC0B4C0803C09F4A7C0883C09F4A4C0CA
:100E3000883B09F48AC0AAC08091DD0110C090915E
:100E4000FF018091FE01981770F5E091FF0181E0AC
:100E50008E0F8093FF01F0E0E252FE4F808180937D
:100E6000BB0085EC86C0809300028EC0E091FF013C
:100E700081E08E0F8093FF018091BB00F0E0E25291
:100E8000FE4F80839091FF018091FE016EC0E09142
:100E9000FF0181E08E0F8093FF018091BB00F0E0A5
:100EA000E252FE4F80838091340281116DC081E057
:100EB0008093330284EA61C083E08093350210920C
:100EC000DC01CFCF8091DC01803208F051C0E0918D
:100ED000DC0181E08E0F8093DC018091BB00F0E0AB
:100EE000E454FE4F8083BDCF85EC8093BC0010920C
:100EF00035028091DC01803230F4E091DC01F0E0D9
:100F0000E454FE4F10826091DC0170E0E0912F020A
:100F1000F09130028CEB91E009951092DC0136C023
:100F200084E0809335021092BB011092BA01E091E7
:100F30003102F091320209958091BA01811105C008
:100F400081E08093BA0110929A01E091BB0181E0A7
:100F50008E0F8093BB01F0E0E656FE4F80818093B8
:100F6000BB009091BB018091BA01981708F479CF2A
:100F700085E88093BC000AC085EC8093BC00109289
:100F8000350204C0109200020E94CD01FF91EF9142
:100F9000BF91AF919F918F917F916F915F914F9191
:100FA0003F912F910F900FBE0F901F9018950E94A8
:100FB000F4112FB7F89480912B0290912C02A091FC
:100FC0002D02B0912E022FBF8093F7039093F80368
:100FD000A093F903B093FA038FEE93E00E94E70227
:100FE00097FF26C02FB7F89480912B0290912C0286
:100FF000A0912D02B0912E022FBF4091F703509186
:10100000F8036091F9037091FA03841B950BA60B0A
:10101000B70B4091F3035091F4036091F503709185
:10102000F60384179507A607B707B0F28FEF9FEF77
:101030000895009769F0FC0101900020E9F73197CD
:10104000AF01481B590BBC018AE392E00C94A50048
:1010500080E090E008958F929F92AF92BF920F939D
:101060001F93CF93DF93CDB7DEB7A1970FB6F89458
:10107000DEBF0FBECDBF19A2423008F44AE08E0198
:101080000F5D1F4F842E912CA12CB12CA501940132
:101090000E94EB10E62FB901CA0101501109EA3094
:1010A00014F4E05D01C0E95CD801EC93232B242B00
:1010B000252B61F7C8010E941908A1960FB6F89474
:1010C000DEBF0FBECDBFDF91CF911F910F91BF90BB
:1010D000AF909F908F9008950F931F93CF93DF93BE
:1010E0008C01C0E0D0E0F801EC0FFD1F6491662395
:1010F00041F08AE392E00E943801892B11F0219699
:10110000F2CFCE01DF91CF911F910F9108958330DF
:1011100081F028F4813099F08230A1F00895873071
:10112000A9F08830B9F08430D1F4809180008F7DAF
:1011300003C0809180008F7780938000089584B5EC
:101140008F7702C084B58F7D84BD08958091B000F3
:101150008F7703C08091B0008F7D8093B000089599
:101160001F93CF93DF93282F30E0F901E352FF4F15
:101170008491F901E753FF4FD491F901EB54FF4FEC
:10118000C491CC23C1F0162F81110E948708EC2F47
:10119000F0E0EE0FFF1FE555FF4FA591B4919FB70B
:1011A000F894111104C08C91D095D82302C0EC9111
:1011B000DE2BDC939FBFDF91CF911F91089510929A
:1011C00039021092380210923702109236021092B1
:1011D000350281E0809334021092330261E082E1B3
:1011E0000E94B00861E083E10E94B008E9EBF0E002
:1011F00080818E7F808380818D7F808388E480934F
:10120000B80085E48093BC008FEF91E090933202A8
:10121000809331028BE092E09093300280932F0212
:101220000895CF93DF9390E0FC01E753FF4F2491A3
:10123000FC01EB54FF4F8491882361F190E0880F0B
:10124000991FFC01EF55FF4FC591D491FC01E55565
:10125000FF4FA591B491611109C09FB7F89488819F
:10126000209582238883EC912E230BC0623061F499
:101270009FB7F8948881322F309583238883EC912F
:101280002E2B2C939FBF06C08FB7F894E8812E2B8E
:1012900028838FBFDF91CF9108953FB7F894809155
:1012A000020490910304A0910404B091050426B5B2
:1012B000A89B05C02F3F19F00196A11DB11D3FBF8E
:1012C000BA2FA92F982F8827820F911DA11DB11D1C
:1012D000BC01CD0142E0660F771F881F991F4A9518
:1012E000D1F708951F920F920FB60F9211242F93EA
:1012F0003F938F939F93AF93BF9380912B029091D5
:101300002C02A0912D02B0912E023091010423E015
:10131000230F2D3720F40196A11DB11D05C026E82D
:10132000230F0296A11DB11D2093010480932B026F
:1013300090932C02A0932D02B0932E028091020470
:1013400090910304A0910404B09105040196A11D9D
:10135000B11D8093020490930304A0930404B093FE
:101360000504BF91AF919F918F913F912F910F9065
:101370000FBE0F901F901895EF92FF920F931F933F
:10138000CF93DF9300D0CDB7DEB78C01E62E6AE6AF
:1013900071E00E941F040E94D9070E2C000CFF0868
:1013A00097FD10C08E159F0569F089831A8241E070
:1013B00050E0BE016F5F7F4FC8010E945E030E9434
:1013C000D907EECFC8010F900F90DF91CF911F91F9
:1013D0000F91FF90EF900895CF93DF93CDE4D1E08C
:1013E000D093DE03C093DD0389EE93E00E940004F6
:1013F000D093F003C093EF038BEF93E0DF91CF9195
:101400000C940004CF93DF93CDB7DEB7C354D1095A
:101410000FB6F894DEBF0FBECDBF789484B582605E
:1014200084BD84B5816084BD85B5826085BD85B588
:10143000816085BD80916E00816080936E00109206
:101440008100809181008260809381008091810081
:101450008160809381008091800081608093800012
:101460008091B10084608093B1008091B000816070
:101470008093B00080917A00846080937A0080919C
:101480007A00826080937A0080917A0081608093F4
:101490007A0080917A00806880937A001092C1006F
:1014A000E0914A02F0914B0282E08083E091460293
:1014B000F09147021082E0914802F091490280E1E8
:1014C000808310925202E0914E02F0914F0286E02A
:1014D0008083E0914C02F0914D0280818061808395
:1014E000E0914C02F0914D02808188608083E09110
:1014F0004C02F0914D02808180688083E0914C0223
:10150000F0914D0280818F7D80838BE591E00E9478
:10151000190880E2282E83E0382E08E113E07801D4
:10152000D8018C91803120F486E691E00E94190860
:101530000F5F1F4FF701608170E080E090E040E1B5
:101540000E942B0884E691E00E94190820163106BB
:1015500031F788E691E00E94190862E083E10E9479
:10156000110962E082E10E94110940911E0328EEF8
:1015700033E0429FC001439F900D112420911F032F
:10158000820F911D823091053CF0880F991F880FC2
:10159000991F05970197F1F70E94DF0881E090E01D
:1015A00031E062E07FEFE5EEF5ECA82F3093010229
:1015B0008093260210923702109236022091350253
:1015C0002111FCCF609335023093340270930002F6
:1015D0001092FF011092FE011092DD01B091DD0129
:1015E000AC01440F551F4B2B4093DD01409133025A
:1015F000413069F4109233024091DD014093BB0009
:101600004091BC0043FDF8CFF093BC0002C0E093D2
:10161000BC00409135024230E1F3409100024F3F5F
:1016200069F020910002203231F020910002203335
:1016300021F024E003C022E001C023E01092370231
:101640001092360210920102222319F0A093000199
:1016500005C001968F37910509F0A7CF8091BC0096
:101660008A7B8093BC0060E082E10E94B00860E069
:1016700083E10E94B008109100010E94DF08110F61
:101680001093BA0081EA93E09093230280932202A0
:1016900082E193E0909325028093240288E690E013
:1016A0000E946C086091000170E080E090E04AE0E8
:1016B0000E942B0888E691E00E94190861E08DE005
:1016C0000E9411098E010F5F1F4F79E1A72EB12CE7
:1016D0008091FF0390910004181619060CF05CC26B
:1016E000E090FB03F090FC036AE070E0C7010E9409
:1016F0001712009709F450C28E199F09019609F438
:101700004BC26CE2CE01CA960E94BC096CE2CE01CB
:10171000C4960E94BC096AE0C8010E94BC09898184
:101720009A81009729F00E9404106B017C0103C08C
:10173000C12CD12C7601C8010E9400040E944D09E1
:101740002B013C012296DFAECEAE2297BE016C5C2F
:101750007F4FCE018E960E940504BE01665C7F4FCE
:10176000CE0188960E940504CDB6DEB62496DFAE83
:10177000CEAE2497EEA4FFA4E114F10469F0D701E2
:101780008C91882349F0082E000C990B0E94F911C6
:10179000F70181937F01F3CFEEA5FFA5DF010D9047
:1017A0000020E9F711977D01EE1AFF0AF694E794FD
:1017B000C7010196CDB6DEB6C81AD90A0FB6F8949D
:1017C000DEBE0FBECDBE2DB73EB72F5F3F4F6901C6
:1017D000E20EF31E2E153F0529F180818F7987FFD8
:1017E00003C08150806E8F5F082E000C990B099604
:1017F000B5010E94D710482F4295407F81818F7993
:1018000087FF03C08150806E8F5F082E000C990BFC
:101810000996B5010E94D710480FD9014D939D013B
:101820003296D8CF84E62296EEACFFAC22978E9DFE
:1018300040018F9D900C1124E12CF12C8E149F04FB
:101840000CF4D3C044E150E067E770E085E693E034
:101850000E942B101092790310927A0310927B034E
:1018600010927C0310926403BE01685D7F4FCE012D
:1018700082960E9405044AE0B801C7010E94341014
:10188000F80101900020E9F73197AF01401B510B9F
:10189000B801CE0182960E945E03811104C0CE0180
:1018A00082960E94B403BE016E5D7F4F80E293E09A
:1018B0000E943404CE0182960E94000460E880E217
:1018C00093E00E949A048091640360E08833B9F742
:1018D00080E293E00E949A0460E080E293E00E943C
:1018E0009A0460E080E293E00E949A048091790378
:1018F00090917A03A0917B03B0917C03BC01CD0150
:101900002DE196958795779567952A95D1F780E291
:1019100093E00E949A048091790390917A03A091B8
:101920007B03B0917C03BC01CD0135E19695879591
:10193000779567953A95D1F780E293E00E949A04F3
:101940008091790390917A03A0917B03B0917C03FD
:10195000BC01CD014DE096958795779567954A95A1
:10196000D1F780E293E00E949A04809179039091EC
:101970007A03A0917B03B0917C03BC01CD0155E0BB
:1019800096958795779567955A95D1F780E293E07C
:101990000E949A0460917903660F660F660F80E2D9
:1019A00093E00E949A04E5E6F3E060817181828110
:1019B00093810E940D11619371938193919323E020
:1019C000E937F20791F742E050E0B60185E693E08F
:1019D0000E940112892B29F4C701FF0CAA0BBB0B33
:1019E00007C03FEFE31AF30A29CF80E090E0DC0163
:1019F0002496CEACDFAC24970FB6F894DEBE0FBEB3
:101A0000CDBE7C01CE0188960E940004CE018E9648
:101A10000E9400040E944D099B01AC012419350964
:101A20004609570929013A016BE671E0CE018E960D
:101A30000E941F0498E1C92E93E0D92ED6018D9102
:101A40006D011F928F93E2E7F1E0FF93EF931F93F5
:101A50000F930E943812F80101900020E9F73197A6
:101A6000AF01401B510BB801CE018E960E945E0360
:101A70000F900F900F900F900F900F902C143D042B
:101A8000E9F619A618A61BA61AA61DA61CA62AE0EA
:101A9000A801C301B2010E945410F8010190002076
:101AA000E9F73197AF01401B510BB801CE01889681
:101AB0000E94DF031BA21AA21DA21CA21FA21EA22B
:101AC0004AE0B801C7010E947610F8010190002099
:101AD000E9F73197AF01401B510BB801CE01829657
:101AE0000E94DF03BE016E5D7F4FC8010E940504A6
:101AF00067E771E0C8010E94C6037C014CA55DA5A3
:101B000068A579A50E945E03811103C0C7010E94E8
:101B1000B40367E771E0C7010E94C6037C014AA9CC
:101B20005BA96EA57FA50E945E03811103C0C7015A
:101B30000E94B40369E671E0C7010E94C603BC01BC
:101B40008DED93E00E943404C8010E940004CE0190
:101B500082960E940004CE0188960E940004CE0165
:101B60008E960E940004CE01C4960E940004CE010D
:101B7000CA960E94000485E990E00E946C0869EE14
:101B800073E0C8010E940504B8018AE392E00E9454
:101B90003404C8010E9400042FB7F89480912B02EE
:101BA00090912C02A0912D02B0912E022FBF409156
:101BB0002702509128026091290270912A026C013B
:101BC0007D01C41AD50AE60AF70AB701A6014A3F01
:101BD00051056105710570F18093270290932802E9
:101BE000A0932902B0932A02EAEEF0E08491E6ED98
:101BF000F0E0F490E2ECF0E0E490EE20A1F081114E
:101C00000E948708EE2DF0E0EE0FFF1FE557FF4F13
:101C1000A591B4918C91F82291E080E009F490E0D4
:101C2000692F782F02C060E070E0F1E06F278DE04F
:101C30000E94B0080E94A7014BCDCF92DF92EF9295
:101C4000FF920F931F93CF93DF9310923D02109258
:101C50003C0288EE93E0A0E0B0E080933E029093D7
:101C60003F02A0934002B09341028BE091E0909339
:101C70003B0280933A0285EC90E090934702809378
:101C8000460284EC90E0909349028093480280ECF5
:101C900090E090934B0280934A0281EC90E0909305
:101CA0004D0280934C0282EC90E090934F0280931F
:101CB0004E0286EC90E09093510280935002109275
:101CC0005302109254021092550210925602A7E14C
:101CD000B3E080E090E041E2E1E0F0E086309105A1
:101CE00010F4E0E0F0E09C01225F3F4FE20FF31FB1
:101CF00040935700E491ED9301968930910561F787
:101D000010922303109222038DE191E0909321031E
:101D1000809320031092D4031092D30388EEC82E30
:101D200083E0D82EE12CF12CC092D503D092D603BB
:101D3000E092D703F092D80389E291E09093D20326
:101D40008093D1031092F2031092F1030BE311E0A0
:101D50001093F0030093EF03C092F303D092F403C7
:101D6000E092F503F092F6036AE671E08BEF93E000
:101D70000E941F04CDE4D1E0D093F003C093EF03A1
:101D80001092E0031092DF031093DE030093DD0353
:101D9000C092E103D092E203E092E303F092E40305
:101DA0006AE671E089EE93E00E941F04D093DE039F
:101DB000C093DD03DF91CF911F910F91FF90EF90C2
:101DC000DF90CF9008950F931F93CF93DF938230CE
:101DD000910510F482E090E0E0910804F09109048C
:101DE00020E030E0A0E0B0E0309719F1408151816F
:101DF0000281138148175907C8F08417950769F4C1
:101E0000109731F012960C93129713961C9327C0DB
:101E1000009308041093090422C02115310519F01C
:101E20004217530718F49A01BD01EF01DF01F801D1
:101E3000DBCF21153105F9F0281B390B2430310592
:101E400080F48A819B816115710521F0FB019383E8
:101E5000828304C09093090480930804FE013296A3
:101E600044C0FE01E20FF31F819391932250310988
:101E7000398328833AC02091060430910704232B2C
:101E800041F4209103013091040130930704209321
:101E9000060420910101309102012115310541F420
:101EA0002DB73EB74091050150910601241B350B1B
:101EB000E0910604F0910704E217F307A0F42E1B4B
:101EC0003F0B2817390778F0AC014E5F5F4F24179E
:101ED000350748F04E0F5F1F5093070440930604E8
:101EE0008193919302C0E0E0F0E0CF01DF91CF91C8
:101EF0001F910F910895CF93DF93009709F481C04C
:101F0000FC01329713821282A0910804B091090457
:101F1000109781F420813181820F931F2091060454
:101F2000309107042817390751F5F0930704E0931F
:101F3000060467C0ED0120E030E0CE17DF0740F473
:101F40004A815B819E0141155105F1F0EA01F5CF0F
:101F5000D383C28340815181840F951FC817D9074D
:101F600059F488819981840F951F0296918380830B
:101F70008A819B81938382832115310529F4F09313
:101F80000904E09308043DC0E901FB83EA83499119
:101F90005991C40FD51FEC17FD0761F48081918121
:101FA000840F951F0296E90199838883828193812A
:101FB0009B838A83E0E0F0E012968D919C911397C9
:101FC000009719F0FD01DC01F7CF8D919C911197DD
:101FD0009D012E5F3F4F820F931F20910604309189
:101FE00007042817390769F4309729F41092090477
:101FF0001092080402C013821282B0930704A093C7
:102000000604DF91CF9108951F93FC01992788273B
:10201000BC01E89411911032E9F3193010F01E3030
:10202000C8F31B3251F01D3249F4689406C00E9477
:102030003F10610F711D811D911D119110531A30B8
:10204000B0F33EF490958095709561957F4F8F4FDA
:102050009F4F1F910895FB01DC0102C005900D9276
:1020600041505040D8F70895BB274A3031F49923A6
:1020700022F4BDE2909581959F4F0C947710592FD3
:10208000482F372F262F660F771F881F991F660F3F
:10209000771F881F991F620F731F841F951F660F7C
:1020A000771F881F991F0895BB27FA01A62F621773
:1020B000710581059105330B30FB66F0AA27660F89
:1020C000771F881F991FAA1FA21710F0A21B6395E4
:1020D0003850A9F7A05DAA3308F0A95DA19336F79F
:1020E000B111B1931082CA010C949010BB27FB016F
:1020F0005527AA27880F991FAA1FA41710F0A41B01
:1021000083955051B9F7A05DAA3308F0A95DA1935A
:10211000009779F7B111B1931192CB010C94901003
:10212000DC01FC01672F71917723E1F7329704C03E
:102130007C916D9370836291AE17BF07C8F30895C9
:102140002F923F924F925F926F927F928F929F92C7
:10215000AF92BF92CF92DF92EF92FF920F931F93B5
:10216000CF93DF93CDB7DEB7CA1BDB0B0FB6F89466
:10217000DEBF0FBECDBF09942A88398848885F84A6
:102180006E847D848C849B84AA84B984C884DF8017
:10219000EE80FD800C811B81AA81B981CE0FD11DFB
:1021A0000FB6F894DEBF0FBECDBFED01089597FBCB
:1021B000072E16F4009407D077FD09D00E94141161
:1021C00007FC05D03EF4909581959F4F089570953A
:1021D00061957F4F0895A1E21A2EAA1BBB1BFD013A
:1021E0000DC0AA1FBB1FEE1FFF1FA217B307E407F6
:1021F000F50720F0A21BB30BE40BF50B661F771F4E
:10220000881F991F1A9469F760957095809590952D
:102210009B01AC01BD01CF0108956927962769276D
:102220007827872778270895AA1BBB1B51E107C091
:10223000AA1FBB1FA617B70710F0A61BB70B881F56
:10224000991F5A95A9F780959095BC01CD010895E5
:10225000EE0FFF1F0590F491E02D0994A0E0B0E08F
:10226000E4E3F1E10C94A410EC01009721F4CB011C
:102270000E94E30EB4C0FC01E60FF71F9C01225040
:102280003109E217F30708F4A8C0D9010D911C9198
:10229000119706171707B0F00530110508F49BC019
:1022A000C80104978617970708F495C002501109D2
:1022B000061B170B019311936D937C93CF010E9422
:1022C0007B0F89C05B01A01AB10A4C01800E911EE0
:1022D000A0910804B0910904612C712CE12CF12C1F
:1022E000109709F446C08D919C911197A815B905D6
:1022F000B1F56C0142E0C40ED11CCA14DB0478F1C4
:102300004C018A189B08640142E0C40ED11C12964D
:10231000BC9012971396AC91B5E0CB16D10440F067
:10232000B282A38391828082D9016D937C9309C08C
:102330000E5F1F4F800F911FF90191838083EB2D5A
:10234000FA2FE114F10431F0D7011396FC93EE93C8
:10235000129741C0F0930904E09308043CC068164A
:10236000790608F43C017D0112960D90BC91A02DD8
:10237000B7CF809106049091070488169906E1F47E
:1023800066167706C8F480910101909102010097CA
:1023900041F48DB79EB74091050150910601841B11
:1023A000950BE817F907C8F4F0930704E0930604C7
:1023B000F901718360830FC0CB010E94E30E7C01A1
:1023C000009759F0A801BE010E940E12CE010E9492
:1023D0007B0FC70104C0CE0102C080E090E0CDB702
:1023E000DEB7EEE00C94C01081E090E0F8940C941D
:1023F000EB149111089581568A5108F48052855842
:102400000895FB01DC0104C08D910190801921F435
:1024100041505040C8F7881B990B0895FB01DC011F
:1024200002C001900D9241505040D8F70895FC0130
:102430008191861721F08823D9F79927089531973C
:10244000CF010895FB01DC0101900D920020E1F71E
:102450000895FB01DC014150504048F001900D927D
:102460000020C9F701C01D9241505040E0F7089587
:10247000AEE0B0E0EEE3F2E10C94AE100D891E89FF
:1024800086E08C831A8309838FEF9FE79E838D8379
:10249000AE01475E5F4F6F89788DCE0101960E9435
:1024A0005A12EF81F885E00FF11F10822E96E4E0BA
:1024B0000C94CA10ABE0B0E0E0E6F2E10C94A0109E
:1024C0006C017B018A01FC0117821682838181FFE6
:1024D000CCC1CE0101963C01F6019381F70193FD39
:1024E000859193FF81917F01882309F4BAC18532D8
:1024F00039F493FD859193FF81917F01853229F411
:10250000B60190E00E945114E7CF912C212C312C80
:10251000FFE1F315D8F08B3279F038F4803279F09E
:102520008332A1F4232D20611DC08D3261F08033F0
:1025300069F4232D216016C0832D8260382EE32D8F
:10254000E4603E2E2AC0F32DF8601DC037FC2DC07C
:1025500020ED280F2A3040F08E32B9F436FC81C1CC
:10256000232D2064322E19C036FE06C08AE0989EC4
:10257000200D1124922E11C0EAE02E9E200D112470
:10258000222EF32DF0623F2E08C08C3621F4832DCD
:102590008068382E02C0883641F4F70193FD85919A
:1025A00093FF81917F018111B3CF982F9F7D955427
:1025B000933028F40C5F1F4F9FE399830DC083363F
:1025C00031F0833771F0833509F059C021C0F8012B
:1025D000808189830E5F1F4F88248394912C53013F
:1025E00013C02801F2E04F0E511CF801A080B18009
:1025F00036FE03C0692D70E002C06FEF7FEFC501AA
:102600000E9446144C018201F32DFF773F2E16C025
:10261000280122E0420E511CF801A080B18036FE54
:1026200003C0692D70E002C06FEF7FEFC5010E940B
:102630003B144C01F32DF0683F2E820133FC1BC08C
:10264000822D90E088169906B0F4B60180E290E001
:102650000E9451142A94F4CFF50137FC859137FE7E
:1026600081915F01B60190E00E94511421102A94DB
:1026700021E0821A91088114910471F7E8C0843630
:1026800011F0893641F5F80137FE07C0608171818C
:10269000828193810C5F1F4F08C060817181072E7A
:1026A000000C880B990B0E5F1F4FF32DFF763F2E0A
:1026B00097FF09C090958095709561957F4F8F4FDA
:1026C0009F4FF0683F2E2AE030E0A3010E948D1456
:1026D000882E861845C0853731F4232D2F7EB22EE3
:1026E0002AE030E025C0932D997FB92E8F36C1F0B6
:1026F00018F4883579F0B5C0803719F0883721F0A3
:10270000B0C0E92FE061BE2EB4FE0DC0FB2DF46019
:10271000BF2E09C034FE0AC0292F2660B22E06C083
:1027200028E030E005C020E130E002C020E132E0E6
:10273000F801B7FE07C060817181828193810C5FCF
:102740001F4F06C06081718180E090E00E5F1F4FD7
:10275000A3010E948D14882E8618FB2DFF773F2E33
:1027600036FE0DC0232D2E7FA22E891458F434FE80
:102770000BC032FC09C0832D8E7EA82E05C0B82C5C
:10278000A32C03C0B82C01C0B92CA4FE0FC0FE01BD
:10279000E80DF11D8081803321F49A2D997EA92EB8
:1027A00009C0A2FE06C0B394B39404C08A2D8678F3
:1027B00009F0B394A3FC11C0A0FE06C0B21488F4C3
:1027C000280C922C9B180EC0B21460F4B60180E263
:1027D00090E00E945114B394F7CFB21418F42B1860
:1027E00002C0982C212CA4FE10C0B60180E390E01A
:1027F0000E945114A2FE17C0A1FC03C088E790E01C
:1028000002C088E590E0B6010CC08A2D867859F0A8
:10281000A1FE02C08BE201C080E2A7FC8DE2B601FE
:1028200090E00E945114891438F4B60180E390E0DE
:102830000E9451149A94F7CF8A94F301E80DF11D88
:102840008081B60190E00E9451148110F5CF2220C2
:1028500009F442CEB60180E290E00E9451142A941D
:10286000F6CFF6018681978102C08FEF9FEF2B96FE
:10287000E2E10C94BC10FC01059061507040011025
:10288000D8F7809590958E0F9F1F0895FC01615099
:10289000704001900110D8F7809590958E0F9F1F82
:1028A00008950F931F93CF93DF93FB01238121FDA5
:1028B00003C08FEF9FEF2CC022FF16C046815781C7
:1028C000248135814217530744F4A081B1819D01D1
:1028D0002F5F3F4F318320838C93268137812F5F79
:1028E0003F4F3783268314C08B01EC01FB0100842A
:1028F000F185E02D0995892BE1F6D80116968D9189
:102900009C911797019617969C938E931697CE01DC
:10291000DF91CF911F910F910895FA01AA272830D6
:1029200051F1203181F1E8946F936E7F6E5F7F4F9C
:102930008F4F9F4FAF4FB1E03ED0B4E03CD0670F18
:10294000781F891F9A1FA11D680F791F8A1F911D6B
:10295000A11D6A0F711D811D911DA11D20D009F4BB
:1029600068943F912AE0269F11243019305D3193FD
:10297000DEF6CF010895462F4770405D4193B3E0E6
:102980000FD0C9F7F6CF462F4F70405D4A3318F08D
:10299000495D31FD4052419302D0A9F7EACFB4E03E
:1029A000A6959795879577956795BA95C9F70097F6
:1029B0006105710508959B01AC010A2E0694579597
:1029C000479537952795BA95C9F7620F731F841FEE
:1029D000951FA01D089510E0CAE7D0E004C0FE01D5
:1029E0000E9428112196CB37D107C9F7F894FFCF61
:1029F0000100000A048000000000003801A500CF9B
:102A00000085010001DE00F200000000009306A531
:102A100000BD02BC02000000008D026002BD02B1D8
:102A20000158024402350200000000D707A500BD8E
:102A300002BC02D707D707D707000000008C03238A
:102A400003BD02B101C901E702B201556E6971759A
:102A50006549443A200030000D0A004455434F496F
:0A2A6000440025303258002C00001D
:00000001FF
