:100000000C947B000C94A3000C94A3000C94A3000C
:100010000C94A3000C94A3000C94A3000C94A300D4
:100020000C94A3000C94A3000C94A3000C94A300C4
:100030000C94A3000C94A3000C94A3000C94A300B4
:100040000C94210A0C94A3000C9468040C944204B0
:100050000C94A3000C94A3000C94A3000C94A30094
:100060000C94A9060C94A30057697265204164643E
:10007000726573733A20000123456789ABCDEFFEAB
:10008000DCBA9876543210F0E1D2C30000000023AD
:1000900000260029004A6F6220446F6E65203A20D6
:1000A0000000000000240027002A000000000025B6
:1000B0000028002B000404040404040404020202C7
:1000C0000202020303030303030102040810204099
:1000D0008001020408102001020408102000000022
:1000E00008000201000003040700000000000000F7
:1000F0000000CF0E9B0A11241FBECFEFD8E0DEBF59
:10010000CDBF11E0A0E0B1E0E4E5FBE202C0059064
:100110000D92AA37B107D9F724E0AAE7B1E001C0F0
:100120001D92AD30B207E1F710E0CAE7D0E004C09D
:100130002197FE010E94DA11C937D107C9F70E9441
:10014000B10A0C949D150C940000CF92DF92EF92AF
:10015000FF920F931F93CF93DF936C017A018B0172
:10016000C0E0D0E0CE15DF0581F0D8016D918D01A2
:10017000D601ED91FC910190F081E02DC601099529
:10018000892B11F02196EECF7E01C701DF91CF912F
:100190001F910F91FF90EF90DF90CF900895FC0199
:1001A000538D448D252F30E0842F90E0821B930BDC
:1001B000541710F0CF96089501970895FC01918D82
:1001C000828D981761F0828DDF01A80FB11D5D96B9
:1001D0008C91928D9F5F9F77928F90E008958FEF23
:1001E0009FEF0895FC01918D828D981731F0828DDB
:1001F000E80FF11D858D90E008958FEF9FEF089532
:10020000FC01918D228D892F90E080589F4F821B99
:1002100091098F77992708958DE392E00E9400015C
:1002200021E0892B09F420E0822F0895FC01848DC0
:10023000DF01A80FB11DA356BF4F2C91848D90E014
:1002400001968F739927848FA689B7892C93A089EB
:10025000B1898C91837080648C93938D848D981375
:1002600006C00288F389E02D80818F7D8083089508
:10027000EF92FF920F931F93CF93DF93EC0181E0F6
:10028000888F9B8D8C8D981305C0E889F9898081B2
:1002900085FD26C0F62E0B8D10E00F5F1F4F0F73EC
:1002A0001127E02E8C8DE8120CC00FB607FCFACF98
:1002B000E889F989808185FFF5CFCE010E9416017A
:1002C000F1CF8B8DFE01E80FF11DE356FF4FF08259
:1002D0009FB7F8940B8FEA89FB89808180620AC0FE
:1002E0009FB7F894EE89FF896083E889F989808156
:1002F0008370806480839FBF81E090E0DF91CF9125
:100300001F910F91FF90EF900895CF93DF93EC0131
:10031000888D8823C9F0EA89FB89808185FD05C025
:10032000A889B9898C9186FD0FC00FB607FCF5CF5F
:10033000808185FFF2CFA889B9898C9185FFEDCFA7
:10034000CE010E941601E7CFDF91CF91089580E0A2
:1003500090E0892B29F00E940C0181110C9400007F
:1003600008950895DC0150962D913C915197232BCF
:1003700069F01C96ED91FC911D97309711F08081EA
:1003800001C080E0082E000C990B08958FEF9FEFBD
:100390000895FC0180899189089585ED8093BC00C2
:1003A0008091BC0084FDFCCF1092380208954091EA
:1003B000BD01262F30E0240F311D21323105DCF440
:1003C000209138022430C9F4FC0180E090E08617C7
:1003D00058F43091BD012191DC01A356BE4FA30F0B
:1003E000B11D2C930196F3CF8091BD01680F6093EE
:1003F000BD0180E0089581E0089582E00895E091D4
:100400002702F0912802309729F010923A021092B8
:10041000390209940895CF93DF93AC01E09125024E
:10042000F09126023097F1F090913C0280913B02CE
:100430009817C0F090E0292F30E02617370754F4C2
:10044000D901A358BE4FEA01C20FD31F28812C93B4
:100450009F5FF1CF10923C0260933B02CB01DF9192
:10046000CF910994DF91CF910895E0913C02809162
:100470003B02E81730F4F0E0E358FE4F808190E053
:1004800008958FEF9FEF089590913C0280913B0279
:10049000981750F4E92FF0E0E358FE4F208130E048
:1004A0009F5F90933C0202C02FEF3FEFC901089578
:1004B00080913B0290E020913C02821B91090895BB
:1004C000CF92DF92EF92FF920F931F93CF93DF9320
:1004D0007C01CB018A0120910402222389F0EB01E7
:1004E0006B01C40ED51ECC15DD0569F06991D701ED
:1004F000ED91FC910190F081E02DC7010995F3CFBA
:10050000642F0E94D701C801DF91CF911F910F91F5
:10051000FF90EF90DF90CF900895CF93DF931F92DD
:10052000CDB7DEB76983209104022223D1F0209158
:100530003902203240F021E030E0FC013383228395
:1005400080E090E015C080913A02E82FF0E0EB5F88
:10055000FD4F998190838F5F80933A028093390297
:1005600005C061E0CE0101960E94D70181E090E0D4
:100570000F90DF91CF910895089580E090E0089565
:100580000F931F93CF93DF93EC018881998100979C
:1005900029F02A813B812617370788F48B016F5F8A
:1005A0007F4F0E94E011009761F0998388831B833D
:1005B0000A832C813D81232B11F4FC01108281E000
:1005C00001C080E0DF91CF911F910F9108951F939B
:1005D000CF93DF93EC014889598941155105E1F02A
:1005E0008C859D85009719F0FC01108101C010E0F9
:1005F00041505109598B488BBC016F5F7F4F0E945E
:10060000DB12EC85FD8588899989E80FF91F108236
:10061000812F110F990B02C08FEF9FEFDF91CF91C8
:100620001F9108958091F0039091F103892B29F097
:1006300080EE93E00E94E70201C08AE0682F84ED1B
:1006400093E00C948D02EF92FF920F931F93CF9340
:10065000DF934115510519F480E090E028C0611541
:100660007105D1F38A017B01EC01688979896F5F9B
:100670007F4F640F751F0C960E94C002882361F3A0
:100680002C853D8588899989A801B701820F931F20
:100690000E94C01288899989800F911F998B888B3D
:1006A0002C853D85F901E80FF91F1082C801DF9103
:1006B000CF911F910F91FF90EF900895EF92FF92CD
:1006C0000F931F93CF93DF936115710511F480E0B1
:1006D0001CC041155105C1F07B01EC018C819D814D
:1006E0008A01080F191FB801CE010E94C002882399
:1006F00071F3288139818C819D81B701820F931F0D
:100700000E94D4121D830C8381E0DF91CF911F9151
:100710000F91FF90EF900895CF93DF9300D0CDB766
:10072000DEB769831A8241E050E0BE016F5F7F4F00
:100730000C960E945E0390E00F900F90DF91CF9196
:100740000895892B81F090913B0280913C0298178B
:1007500051F084ED93E00E944402682F82EF93E011
:100760000E948C03F0CF0895CF93DF93EC01888132
:100770009981009711F00E942D10198218821D8214
:100780001C821B821A82DF91CF910895CF93DF9351
:10079000EC016115710561F0FB0101900020E9F7A2
:1007A0003197AF01461B570B0E945E03811103C0B6
:1007B000CE010E94B403CE01DF91CF910895EF9254
:1007C000FF920F931F93CF93DF93EC017B018A017C
:1007D000BA010E94C002811104C0CE010E94B4037C
:1007E00007C01D830C83B701888199810E94D412B0
:1007F000CE01DF91CF911F910F91FF90EF9008955F
:10080000FC01808191810C942D10FB01DC0111967B
:100810001C921E9213961C921E92129715961C9271
:100820001E9214978617970749F0608171816115B0
:10083000710521F0448155810C94DF030895FC017A
:100840001182108213821282158214826115710541
:1008500051F0FB0101900020E9F73197AF01461BF1
:10086000570B0C94DF030895DB0114964D915C91B6
:1008700015976D917C91DC01ED91FC910280F381E3
:10088000E02D09941F920F920FB60F9211242F930F
:100890003F934F935F936F937F938F939F93AF9308
:1008A000BF93EF93FF938DE392E00E941601FF91B7
:1008B000EF91BF91AF919F918F917F916F915F91D8
:1008C0004F913F912F910F900FBE0F901F90189551
:1008D0001F920F920FB60F9211242F938F939F9315
:1008E000EF93FF93E0914D02F0914E028081E091F1
:1008F0005302F091540282FD12C090818091560201
:100900008F5F8F7720915702821751F0E091560246
:10091000F0E0E35CFD4F958F8093560201C080812B
:10092000FF91EF919F918F912F910F900FBE0F909C
:100930001F9018952F923F924F925F926F927F92E5
:100940008F929F92AF92BF92CF92DF92EF92FF92DF
:100950000F931F93CF93DF93CDB7DEB7A1970FB659
:10096000F894DEBF0FBECDBFFC01EC5BFF4F2081D2
:1009700033E03227DC01A30FB11D14966C932F5F77
:100980002083203409F0B6C1319680809180A28006
:10099000B38089869A86AB86BC863496A080B18067
:1009A000C280D380AD86BE86CF86D88A3496C0807A
:1009B000D180E280F380C98ADA8AEB8AFC8A349695
:1009C000E080F18002811381ED8AFE8A0F8B188FFF
:1009D00034960081118122813381098F1A8F2B8FE8
:1009E0003C8F0D8F1E8F2F8F38A329853A854B851D
:1009F0005C852D833E834F835887CD84DE84EF84CE
:100A0000F8884D895E896F89788D49835A836B8315
:100A10007C8309891A892B893C89212C312C29A2B4
:100A2000522D5031C8F449815A816B817C81402715
:100A30005127622773274C215D216E217F218980F8
:100A40009A80AB80BC80482559256A257B2547566E
:100A500056486D47754A99C0422D4F703C0154E08D
:100A6000459F600C711C1124D1011D96AF70BB27EE
:100A70001196AA0FBB1FAA0FBB1FA80FB91FF10128
:100A80003896EF70FF273196EE0FFF1FEE0FFF1F16
:100A9000E80FF91F8D909D90AD90BC9040815181E1
:100AA00062817381482559256A257B25D3011496D7
:100AB0008D909D90AD90BC901797482559256A253B
:100AC0007B25F1013296EF70FF273196EE0FFF1F65
:100AD000EE0FFF1FE80FF91F80809180A280B38086
:100AE000482559256A257B25440F551F661F771F0A
:100AF000411DF3014483558366837783F9A1F43163
:100B000008F491CFF83288F449815A816B817C8155
:100B100040275127622773274C255D256E257F25A9
:100B20004F5554416642714930C049A14C33E8F4F5
:100B3000B901A8014C295D296E297F2989809A80F5
:100B4000AB80BC80482159216A217B214801590191
:100B50008C209D20AE20BF20482959296A297B2955
:100B600044525344644E704710C049815A816B818E
:100B70007C8140275127622773274C255D256E25F0
:100B80007F254A525E436D497543A9A1AF70FC01B0
:100B9000B4E0AB9FE00DF11D11244D805E806F80AD
:100BA0007884ABE17694679457944794AA95D1F7EB
:100BB0008D809E80AF80B884B5E0880C991CAA1CFB
:100BC000BB1CBA95D1F784289528A628B72844805D
:100BD000558066807780840C951CA61CB71C480D38
:100BE000591D6A1D7B1D8D8C9E8CAF8CB8A0480D45
:100BF000591D6A1D7B1D46015701E2E0B694A7947A
:100C000097948794EA95D1F726013701FEE1440CC9
:100C1000551C661C771CFA95D1F7482859286A2874
:100C20007B28AFEF2A1A3A0ACD80DE80EF80F88465
:100C300089809A80AB80BC808D8E9E8EAF8EB8A24C
:100C4000A0E52A16310459F04D835E836F837887BF
:100C500009831A832B833C8393018201E0CEFC013C
:100C6000EB5BFF4F89849A84AB84BC84480D591D8B
:100C70006A1D7B1D408351836283738334964D8547
:100C80005E856F857889560167014A0D5B1D6C1D75
:100C90007D1D40835183628373833496C988DA88CB
:100CA000EB88FC884C0C5D1C6E1C7F1C40825182C2
:100CB0006282738234964D895E896F89788D040FC4
:100CC000151F261F371F0083118322833383349619
:100CD000498D5A8D6B8D7C8D89809A80AB80BC80CC
:100CE000480D591D6A1D7B1D4083518362837383A8
:100CF00071971082A1960FB6F894DEBF0FBECDBFDC
:100D0000DF91CF911F910F91FF90EF90DF90CF90E7
:100D1000BF90AF909F908F907F906F905F904F901B
:100D20003F902F900895262FFC01E75AFF4F4081F6
:100D30005181628173814F5F5F4F6F4F7F4F40835F
:100D4000518362837383622F0E949A0481E090E052
:100D500008951F920F920FB60F9211242F933F9375
:100D60004F935F936F937F938F939F93AF93BF93B3
:100D7000EF93FF938091B900887F803609F49CC07F
:100D800068F5883209F45BC090F4803109F454C0EE
:100D900038F4882309F4F6C0883009F44DC0F6C051
:100DA000883109F44CC0803209F45DC0EFC0803452
:100DB00009F468C048F4803309F455C0883309F059
:100DC000E5C080930302D8C0803509F44FC0883550
:100DD00009F45DC0883409F0D9C0D6C0883909F457
:100DE000C7C0A8F4883709F467C038F4883609F416
:100DF00063C0803709F460C0C9C0883809F4B8C03E
:100E0000803909F45FC0803809F0C0C05BC0803B06
:100E100009F486C038F4803A09F466C0883A09F4C7
:100E20007FC0B4C0803C09F4A7C0883C09F4A4C0CA
:100E3000883B09F48AC0AAC08091E00110C090915B
:100E4000020280910102981770F5E091020281E0A0
:100E50008E0F80930202F0E0EF51FE4F808180936D
:100E6000BB0085EC86C0809303028EC0E091020235
:100E700081E08E0F809302028091BB00F0E0EF5181
:100E8000FE4F808390910202809101026EC0E0913A
:100E9000020281E08E0F809302028091BB00F0E09D
:100EA000EF51FE4F80838091370281116DC081E048
:100EB0008093360284EA61C083E080933802109206
:100EC000DF01CFCF8091DF01803208F051C0E09187
:100ED000DF0181E08E0F8093DF018091BB00F0E0A5
:100EE000E154FE4F8083BDCF85EC8093BC0010920F
:100EF00038028091DF01803230F4E091DF01F0E0D0
:100F0000E154FE4F10826091DF0170E0E091320207
:100F1000F09133028FEB91E009951092DF0136C01A
:100F200084E0809338021092BE011092BD01E091DE
:100F30003402F091350209958091BD01811105C0FF
:100F400081E08093BD0110929D01E091BE0181E09E
:100F50008E0F8093BE01F0E0E356FE4F80818093B8
:100F6000BB009091BE018091BD01981708F479CF24
:100F700085E88093BC000AC085EC8093BC00109289
:100F8000380204C0109203020E94CD01FF91EF913C
:100F9000BF91AF919F918F917F916F915F914F9191
:100FA0003F912F910F900FBE0F901F901895AF9209
:100FB000BF92CF92DF92EF92FF920F931F93CF9346
:100FC000DF93A0907C0180917B018A25C0E0D0E076
:100FD000B12C0BE310E097E0E92EF12C8170A82EE4
:100FE000C8010197F1F70E94B5086C01C80101978B
:100FF000F1F70E94B508AC0197012C1B3D0B982F0F
:10100000022E01C0990F0A94EAF731952195310912
:1010100027703327842F01C086952A95EAF7292F58
:10102000282B8C2D0C2E01C0880F0A94EAF7662716
:1010300077276C1B7D0B677077279C2D01C09695D9
:101040006A95EAF7892B8227B826E0917C01909176
:101050007B0160E070E09601062E02C03595279571
:101060000A94E2F72170DA01062E02C0B595A79521
:101070000A94E2F7A1702A1771F0A11005C08E2F13
:10108000880FE827E22707C0892F8695982727959C
:101090002227279592276F5F7F4F68307105D9F619
:1010A000E0937C0190937B012196C430D10509F037
:1010B00097CF80917A01282F2295220F211D282772
:1010C00082958F7082278B2580937A019E278927AE
:1010D000DF91CF911F910F91FF90EF90DF90CF9014
:1010E000BF90AF9008950E94A6122FB7F8948091F8
:1010F0002E0290912F02A0913002B09131022FBFA9
:101100008093FA039093FB03A093FC03B093FD0339
:1011100082EF93E00E94E70297FF26C02FB7F89472
:1011200080912E0290912F02A0913002B091310255
:101130002FBF4091FA035091FB036091FC03709123
:10114000FD03841B950BA60BB70B4091F603509142
:10115000F7036091F8037091F90384179507A607C8
:10116000B707B0F28FEF9FEF089581E480937C0082
:1011700080917A00806480937A0080917A0086FD65
:10118000FCCF809178002091790090E0922B089517
:10119000009769F0FC0101900020E9F73197AF0159
:1011A000481B590BBC018DE392E00C94A50080E034
:1011B00090E008958F929F92AF92BF920F931F93EA
:1011C000CF93DF93CDB7DEB7A1970FB6F894DEBF0C
:1011D0000FBECDBF19A2423008F44AE08E010F5D68
:1011E0001F4F842E912CA12CB12CA50194010E949B
:1011F0009D11E62FB901CA0101501109EA3014F41A
:10120000E05D01C0E95CD801EC93232B242B252B56
:1012100061F7C8010E94C808A1960FB6F894DEBF16
:101220000FBECDBFDF91CF911F910F91BF90AF90B7
:101230009F908F9008950F931F93CF93DF938C010E
:10124000C0E0D0E0F801EC0FFD1F6491662341F08F
:101250008DE392E00E943801892B11F02196F2CFA4
:10126000CE01DF91CF911F910F910895833081F0CE
:1012700028F4813099F08230A1F008958730A9F0E8
:101280008830B9F08430D1F4809180008F7D03C024
:10129000809180008F7780938000089584B58F7748
:1012A00002C084B58F7D84BD08958091B0008F7792
:1012B00003C08091B0008F7D8093B00008951F938C
:1012C000CF93DF93282F30E0F901E352FF4F849151
:1012D000F901E753FF4FD491F901EB54FF4FC4914B
:1012E000CC23C1F0162F81110E943609EC2FF0E0BB
:1012F000EE0FFF1FE555FF4FA591B4919FB7F894EE
:10130000111104C08C91D095D82302C0EC91DE2B32
:10131000DC939FBFDF91CF911F91089510923C0203
:1013200010923B0210923A02109239021092380247
:1013300081E0809337021092360261E082E10E94E0
:101340005F0961E083E10E945F09E9EBF0E08081E1
:101350008E7F808380818D7F808388E48093B80036
:1013600085E48093BC008FEF91E0909335028093E9
:1013700034028BE092E0909333028093320208951E
:10138000CF93DF9390E0FC01E753FF4F2491FC01E2
:10139000EB54FF4F8491882361F190E0880F991FEF
:1013A000FC01EF55FF4FC591D491FC01E555FF4F6E
:1013B000A591B491611109C09FB7F89488812095D7
:1013C00082238883EC912E230BC0623061F49FB797
:1013D000F8948881322F309583238883EC912E2BCB
:1013E0002C939FBF06C08FB7F894E8812E2B2883DB
:1013F0008FBFDF91CF9108953FB7F8948091050496
:1014000090910604A0910704B091080426B5A89B0A
:1014100005C02F3F19F00196A11DB11D3FBFBA2F86
:10142000A92F982F8827820F911DA11DB11DBC01E6
:10143000CD0142E0660F771F881F991F4A95D1F7AB
:1014400008951F920F920FB60F9211242F933F937E
:101450008F939F93AF93BF9380912E0290912F0211
:10146000A0913002B09131023091040423E0230FA7
:101470002D3720F40196A11DB11D05C026E8230FCC
:101480000296A11DB11D2093040480932E02909317
:101490002F02A0933002B093310280910504909105
:1014A0000604A0910704B09108040196A11DB11D86
:1014B0008093050490930604A0930704B093080456
:1014C000BF91AF919F918F913F912F910F900FBE40
:1014D0000F901F901895EF92FF920F931F93CF9349
:1014E000DF9300D0CDB7DEB78C01E62E6AE671E05F
:1014F0000E941F040E9475080E2C000CFF0897FD27
:1015000010C08E159F0569F089831A8241E050E072
:10151000BE016F5F7F4FC8010E945E030E94750885
:10152000EECFC8010F900F90DF91CF911F910F91D7
:10153000FF90EF900895CF93DF93CDE4D1E0D09367
:10154000E103C093E0038CEE93E00E940004D0938B
:10155000F303C093F2038EEF93E0DF91CF910C94ED
:101560000004CF93DF93CDB7DEB7C354D1090FB6D4
:10157000F894DEBF0FBECDBF789484B5826084BD81
:1015800084B5816084BD85B5826085BD85B5816087
:1015900085BD80916E00816080936E001092810005
:1015A00080918100826080938100809181008160C0
:1015B0008093810080918000816080938000809181
:1015C000B10084608093B1008091B000816080930D
:1015D000B00080917A00846080937A0080917A00D4
:1015E000826080937A0080917A00816080937A0093
:1015F00080917A00806880937A001092C100E09117
:101600004D02F0914E0282E08083E0914902F09118
:101610004A021082E0914B02F0914C0280E18083FB
:1016200010925502E0915102F091520286E08083BF
:10163000E0914F02F0915002808180618083E091BF
:101640004F02F0915002808188608083E0914F02C8
:10165000F0915002808180688083E0914F02F09188
:10166000500280818F7D80838BE591E00E94C808C5
:1016700083E2282E83E0382E0BE113E07801D801B5
:101680008C91803120F486E691E00E94C8080F5FBB
:101690001F4FF701608170E080E090E040E10E9420
:1016A000DA0884E691E00E94C8082016310631F776
:1016B00088E691E00E94C80862E083E10E94C009C8
:1016C00062E082E10E94C0090E94D707182F0E94A1
:1016D000D70748EE53E0149F9001159F300D112459
:1016E0006901C80ED11CC601823091053CF0880FFB
:1016F000991F880F991F05970197F1F70E948E098E
:1017000081E090E031E062E07FEFE5EEF5ECA82FBC
:10171000309304028093290210923A021092390207
:10172000209138022111FCCF6093380230933702A8
:101730007093030210920202109201021092E001D3
:10174000B091E001AC01440F551F4B2B4093E001D9
:1017500040913602413069F4109236024091E00126
:101760004093BB004091BC0043FDF8CFF093BC0018
:1017700002C0E093BC00409138024230E1F3409156
:1017800003024F3F69F020910302203231F0209193
:101790000302203321F024E003C022E001C023E053
:1017A00010923A021092390210920402222319F088
:1017B000A093000105C001968F37910509F0A7CFCE
:1017C0008091BC008A7B8093BC0060E082E10E9433
:1017D0005F0960E083E10E945F09109100010E94AF
:1017E0008E09110F1093BA0081EA93E090932602BC
:1017F0008093250282E193E0909328028093270250
:1018000088E690E00E941B096091000170E080E092
:1018100090E04AE00E94DA0888E691E00E94C80859
:1018200061E08DE00E94C0098E010F5F1F4F79E1DA
:10183000A72EB12C8091020490910304181619066A
:101840000CF05CC2E090FE03F090FF036AE070E0F1
:10185000C7010E94C912009709F450C28E199F094E
:10186000019609F44BC26CE2CE01CA960E946B0A43
:101870006CE2CE01C4960E946B0A6AE0C8010E9425
:101880006B0A89819A81009729F00E94B6106B013A
:101890007C0103C0C12CD12C7601C8010E94000438
:1018A0000E94FC092B013C012296DFAECEAE2297AE
:1018B000BE016C5C7F4FCE018E960E940504BE0176
:1018C000665C7F4FCE0188960E940504CDB6DEB6D9
:1018D0002496DFAECEAE2497EEA4FFA4E114F1046B
:1018E00069F0D7018C91882349F0082E000C990BE0
:1018F0000E94AB12F70181937F01F3CFEEA5FFA504
:10190000DF010D900020E9F711977D01EE1AFF0A23
:10191000F694E794C7010196CDB6DEB6C81AD90A87
:101920000FB6F894DEBE0FBECDBE2DB73EB72F5F0B
:101930003F4F6901E20EF31E2E153F0529F180810C
:101940008F7987FF03C08150806E8F5F082E000C57
:10195000990B0996B5010E948911482F4295407F45
:1019600081818F7987FF03C08150806E8F5F082E41
:10197000000C990B0996B5010E948911480FD901F5
:101980004D939D013296D8CF84E62296EEACFFAC03
:1019900022978E9D40018F9D900C1124E12CF12CFB
:1019A0008E149F040CF4D3C044E150E067E770E06C
:1019B00088E693E00E94DD1010927C0310927D0374
:1019C00010927E0310927F0310926703BE01685D40
:1019D0007F4FCE0182960E9405044AE0B801C701FC
:1019E0000E94E610F80101900020E9F73197AF015D
:1019F000401B510BB801CE0182960E945E038111FB
:101A000004C0CE0182960E94B403BE016E5D7F4F7A
:101A100083E293E00E943404CE0182960E94000487
:101A200060E883E293E00E949A048091670360E09B
:101A30008833B9F783E293E00E949A0460E083E27E
:101A400093E00E949A0460E083E293E00E949A048B
:101A500080917C0390917D03A0917E03B0917F03E0
:101A6000BC01CD012DE196958795779567952A95CF
:101A7000D1F783E293E00E949A0480917C039091D5
:101A80007D03A0917E03B0917F03BC01CD0135E1C0
:101A900096958795779567953A95D1F783E293E088
:101AA0000E949A0480917C0390917D03A0917E0313
:101AB000B0917F03BC01CD014DE096958795779558
:101AC00067954A95D1F783E293E00E949A0480914A
:101AD0007C0390917D03A0917E03B0917F03BC01B4
:101AE000CD0155E096958795779567955A95D1F7ED
:101AF00083E293E00E949A0460917C03660F660F74
:101B0000660F83E293E00E949A04E8E6F3E06081C6
:101B10007181828193810E94BF116193719381933E
:101B2000919323E0EC37F20791F742E050E0B601E1
:101B300088E693E00E94B312892B29F4C701FF0CB9
:101B4000AA0BBB0B07C03FEFE31AF30A29CF80E0D3
:101B500090E0DC012496CEACDFAC24970FB6F8946D
:101B6000DEBE0FBECDBE7C01CE0188960E94000471
:101B7000CE018E960E9400040E94FC099B01AC01DC
:101B8000241935094609570929013A016BE671E024
:101B9000CE018E960E941F049BE1C92E93E0D92EA0
:101BA000D6018D916D011F928F93E2E7F1E0FF93D3
:101BB000EF931F930F930E94EA12F8010190002007
:101BC000E9F73197AF01401B510BB801CE018E965A
:101BD0000E945E030F900F900F900F900F900F9048
:101BE0002C143D04E9F619A618A61BA61AA61DA6D4
:101BF0001CA62AE0A801C301B2010E940611F80147
:101C000001900020E9F73197AF01401B510BB8015B
:101C1000CE0188960E94DF031BA21AA21DA21CA25D
:101C20001FA21EA24AE0B801C7010E942811F801B4
:101C300001900020E9F73197AF01401B510BB8012B
:101C4000CE0182960E94DF03BE016E5D7F4FC80108
:101C50000E94050467E771E0C8010E94C6037C0189
:101C60004CA55DA568A579A50E945E03811103C0FE
:101C7000C7010E94B40367E771E0C7010E94C60371
:101C80007C014AA95BA96EA57FA50E945E03811114
:101C900003C0C7010E94B40369E671E0C7010E9456
:101CA000C603BC0180EE93E00E943404C8010E9488
:101CB0000004CE0182960E940004CE0188960E9404
:101CC0000004CE018E960E940004CE01C4960E94AC
:101CD0000004CE01CA960E94000485E990E00E94AB
:101CE0001B096CEE73E0C8010E940504B8018DE386
:101CF00092E00E943404C8010E9400042FB7F894B7
:101D000080912E0290912F02A0913002B091310269
:101D10002FBF40912A0250912B0260912C027091AA
:101D20002D026C017D01C41AD50AE60AF70AB70133
:101D3000A6014A3F51056105710570F180932A02A1
:101D400090932B02A0932C02B0932D02EAEEF0E0C8
:101D50008491E6EDF0E0F490E2ECF0E0E490EE2027
:101D6000A1F081110E943609EE2DF0E0EE0FFF1F69
:101D7000E557FF4FA591B4918C91F82291E080E056
:101D800009F490E0692F782F02C060E070E0F1E084
:101D90006F278DE00E945F090E94A7014BCDCF9273
:101DA000DF92EF92FF920F931F93CF93DF931092E6
:101DB000400210923F0288EE93E0A0E0B0E08093F2
:101DC000410290934202A0934302B09344028BE0FD
:101DD00091E090933E0280933D0285EC90E09093D9
:101DE0004A028093490284EC90E090934C028093E5
:101DF0004B0280EC90E090934E0280934D0281EC78
:101E000090E09093500280934F0282EC90E0909388
:101E100052028093510286EC90E09093540280939A
:101E200053021092560210925702109258021092CA
:101E30005902AAE1B3E080E090E041E2E1E0F0E0A5
:101E40008630910510F4E0E0F0E09C01225F3F4F06
:101E5000E20FF31F40935700E491ED930196893010
:101E6000910561F710922603109225038DE191E010
:101E700090932403809323031092D7031092D603E8
:101E800088EEC82E83E0D82EE12CF12CC092D80326
:101E9000D092D903E092DA03F092DB0389E291E079
:101EA0009093D5038093D4031092F5031092F4031A
:101EB0000BE311E01093F3030093F203C092F603D7
:101EC000D092F703E092F803F092F9036AE671E02A
:101ED0008EEF93E00E941F04CDE4D1E0D093F30392
:101EE000C093F2031092E3031092E2031093E10314
:101EF0000093E003C092E403D092E503E092E6038E
:101F0000F092E7036AE671E08CEE93E00E941F0412
:101F1000D093E103C093E003DF91CF911F910F9124
:101F2000FF90EF90DF90CF9008950F931F93CF9382
:101F3000DF938230910510F482E090E0E0910B0491
:101F4000F0910C0420E030E0A0E0B0E0309719F10F
:101F5000408151810281138148175907C8F08417C5
:101F6000950769F4109731F012960C931297139617
:101F70001C9327C000930B0410930C0422C021155E
:101F8000310519F04217530718F49A01BD01EF010A
:101F9000DF01F801DBCF21153105F9F0281B390BE2
:101FA0002430310580F48A819B816115710521F00F
:101FB000FB019383828304C090930C0480930B04F1
:101FC000FE01329644C0FE01E20FF31F819391930C
:101FD00022503109398328833AC020910904309175
:101FE0000A04232B41F42091030130910401309322
:101FF0000A04209309042091010130910201211566
:10200000310541F42DB73EB74091050150910601CD
:10201000241B350BE0910904F0910A04E217F30741
:10202000A0F42E1B3F0B2817390778F0AC014E5F48
:102030005F4F2417350748F04E0F5F1F50930A0477
:10204000409309048193919302C0E0E0F0E0CF0156
:10205000DF91CF911F910F910895CF93DF93009758
:1020600009F481C0FC01329713821282A0910B0403
:10207000B0910C04109781F420813181820F931F5D
:102080002091090430910A042817390751F5F0937B
:102090000A04E093090467C0ED0120E030E0CE17A8
:1020A000DF0740F44A815B819E0141155105F1F043
:1020B000EA01F5CFD383C28340815181840F951FFC
:1020C000C817D90759F488819981840F951F029602
:1020D000918380838A819B8193838283211531053B
:1020E00029F4F0930C04E0930B043DC0E901FB8359
:1020F000EA8349915991C40FD51FEC17FD0761F48C
:1021000080819181840F951F0296E90199838883CC
:10211000828193819B838A83E0E0F0E012968D9127
:102120009C911397009719F0FD01DC01F7CF8D9179
:102130009C9111979D012E5F3F4F820F931F20911D
:10214000090430910A042817390769F4309729F4F3
:1021500010920C0410920B0402C013821282B093EE
:102160000A04A0930904DF91CF9108951F93FC0105
:1021700099278827BC01E89411911032E9F31930AE
:1021800010F01E30C8F31B3251F01D3249F4689430
:1021900006C00E94F110610F711D811D911D1191EA
:1021A00010531A30B0F33EF4909580957095619578
:1021B0007F4F8F4F9F4F1F910895FB01DC0102C09D
:1021C00005900D9241505040D8F70895BB274A30F2
:1021D00031F4992322F4BDE2909581959F4F0C94A0
:1021E0002911592F482F372F262F660F771F881F49
:1021F000991F660F771F881F991F620F731F841F17
:10220000951F660F771F881F991F0895BB27FA0136
:10221000A62F6217710581059105330B30FB66F01F
:10222000AA27660F771F881F991FAA1FA21710F0F1
:10223000A21B63953850A9F7A05DAA3308F0A95DE9
:10224000A19336F7B111B1931082CA010C944211D7
:10225000BB27FB015527AA27880F991FAA1FA41780
:1022600010F0A41B83955051B9F7A05DAA3308F074
:10227000A95DA193009779F7B111B1931192CB01A8
:102280000C944211DC01FC01672F71917723E1F777
:10229000329704C07C916D9370836291AE17BF0733
:1022A000C8F308952F923F924F925F926F927F9260
:1022B0008F929F92AF92BF92CF92DF92EF92FF9256
:1022C0000F931F93CF93DF93CDB7DEB7CA1BDB0B02
:1022D0000FB6F894DEBF0FBECDBF09942A883988A7
:1022E00048885F846E847D848C849B84AA84B984AE
:1022F000C884DF80EE80FD800C811B81AA81B981BA
:10230000CE0FD11D0FB6F894DEBF0FBECDBFED01CD
:10231000089597FB072E16F4009407D077FD09D097
:102320000E94C61107FC05D03EF4909581959F4F01
:102330000895709561957F4F0895A1E21A2EAA1B0A
:10234000BB1BFD010DC0AA1FBB1FEE1FFF1FA21765
:10235000B307E407F50720F0A21BB30BE40BF50B62
:10236000661F771F881F991F1A9469F760957095EB
:10237000809590959B01AC01BD01CF01089569271F
:10238000962769277827872778270895AA1BBB1BDC
:1023900051E107C0AA1FBB1FA617B70710F0A61B65
:1023A000B70B881F991F5A95A9F780959095BC0186
:1023B000CD010895EE0FFF1F0590F491E02D0994D3
:1023C000A0E0B0E0E6EEF1E10C945611EC010097CC
:1023D00021F4CB010E94950FB4C0FC01E60FF71F5A
:1023E0009C0122503109E217F30708F4A8C0D90173
:1023F0000D911C91119706171707B0F005301105C4
:1024000008F49BC0C80104978617970708F495C085
:1024100002501109061B170B019311936D937C93C6
:10242000CF010E942D1089C05B01A01AB10A4C0196
:10243000800E911EA0910B04B0910C04612C712CA4
:10244000E12CF12C109709F446C08D919C911197C5
:10245000A815B905B1F56C0142E0C40ED11CCA142F
:10246000DB0478F14C018A189B08640142E0C40E39
:10247000D11C1296BC9012971396AC91B5E0CB1676
:10248000D10440F0B282A38391828082D9016D93FE
:102490007C9309C00E5F1F4F800F911FF90191833C
:1024A0008083EB2DFA2FE114F10431F0D70113965C
:1024B000FC93EE93129741C0F0930C04E0930B044D
:1024C0003CC06816790608F43C017D0112960D9017
:1024D000BC91A02DB7CF8091090490910A04881671
:1024E0009906E1F466167706C8F48091010190918F
:1024F0000201009741F48DB79EB7409105015091BC
:102500000601841B950BE817F907C8F4F0930A0439
:10251000E0930904F901718360830FC0CB010E942D
:10252000950F7C01009759F0A801BE010E94C012CE
:10253000CE010E942D10C70104C0CE0102C080E070
:1025400090E0CDB7DEB7EEE00C94721181E090E040
:10255000F8940C949D159111089581568A5108F4B0
:10256000805285580895FB01DC0104C08D910190D3
:10257000801921F441505040C8F7881B990B0895E9
:10258000FB01DC0102C001900D9241505040D8F790
:102590000895FC018191861721F08823D9F79927A6
:1025A00008953197CF010895FB01DC0101900D9250
:1025B0000020E1F70895FB01DC014150504048F054
:1025C00001900D920020C9F701C01D92415050406A
:1025D000E0F70895AEE0B0E0E0EFF2E10C946011B6
:1025E0000D891E8986E08C831A8309838FEF9FE70C
:1025F0009E838D83AE01475E5F4F6F89788DCE01DC
:1026000001960E940C13EF81F885E00FF11F1082F4
:102610002E96E4E00C947C11ABE0B0E0E2E1F3E153
:102620000C9452116C017B018A01FC011782168205
:10263000838181FFCCC1CE0101963C01F6019381DB
:10264000F70193FD859193FF81917F01882309F420
:10265000BAC1853239F493FD859193FF81917F0151
:10266000853229F4B60190E00E940315E7CF912C42
:10267000212C312CFFE1F315D8F08B3279F038F4AE
:10268000803279F08332A1F4232D20611DC08D3278
:1026900061F0803369F4232D216016C0832D8260A0
:1026A000382EE32DE4603E2E2AC0F32DF8601DC0C5
:1026B00037FC2DC020ED280F2A3040F08E32B9F4BF
:1026C00036FC81C1232D2064322E19C036FE06C08F
:1026D0008AE0989E200D1124922E11C0EAE02E9ED1
:1026E000200D1124222EF32DF0623F2E08C08C36CF
:1026F00021F4832D8068382E02C0883641F4F7011A
:1027000093FD859193FF81917F018111B3CF982F24
:102710009F7D9554933028F40C5F1F4F9FE399835E
:102720000DC0833631F0833771F0833509F059C01D
:1027300021C0F801808189830E5F1F4F8824839414
:10274000912C530113C02801F2E04F0E511CF801E7
:10275000A080B18036FE03C0692D70E002C06FEF2B
:102760007FEFC5010E94F8144C018201F32DFF7721
:102770003F2E16C0280122E0420E511CF801A08015
:10278000B18036FE03C0692D70E002C06FEF7FEFAD
:10279000C5010E94ED144C01F32DF0683F2E82011B
:1027A00033FC1BC0822D90E088169906B0F4B60168
:1027B00080E290E00E9403152A94F4CFF50137FCE3
:1027C000859137FE81915F01B60190E00E9403156B
:1027D00021102A9421E0821A91088114910471F742
:1027E000E8C0843611F0893641F5F80137FE07C09C
:1027F00060817181828193810C5F1F4F08C060816D
:102800007181072E000C880B990B0E5F1F4FF32D63
:10281000FF763F2E97FF09C0909580957095619542
:102820007F4F8F4F9F4FF0683F2E2AE030E0A3018B
:102830000E943F15882E861845C0853731F4232D18
:102840002F7EB22E2AE030E025C0932D997FB92E3D
:102850008F36C1F018F4883579F0B5C0803719F09B
:10286000883721F0B0C0E92FE061BE2EB4FE0DC064
:10287000FB2DF460BF2E09C034FE0AC0292F26604C
:10288000B22E06C028E030E005C020E130E002C0F2
:1028900020E132E0F801B7FE07C0608171818281DA
:1028A00093810C5F1F4F06C06081718180E090E0D2
:1028B0000E5F1F4FA3010E943F15882E8618FB2D27
:1028C000FF773F2E36FE0DC0232D2E7FA22E8914BA
:1028D00058F434FE0BC032FC09C0832D8E7EA82E26
:1028E00005C0B82CA32C03C0B82C01C0B92CA4FE81
:1028F0000FC0FE01E80DF11D8081803321F49A2D77
:10290000997EA92E09C0A2FE06C0B394B39404C058
:102910008A2D867809F0B394A3FC11C0A0FE06C0EE
:10292000B21488F4280C922C9B180EC0B21460F4D8
:10293000B60180E290E00E940315B394F7CFB21481
:1029400018F42B1802C0982C212CA4FE10C0B6013C
:1029500080E390E00E940315A2FE17C0A1FC03C013
:1029600088E790E002C088E590E0B6010CC08A2DAF
:10297000867859F0A1FE02C08BE201C080E2A7FC7C
:102980008DE2B60190E00E940315891438F4B60177
:1029900080E390E00E9403159A94F7CF8A94F301A4
:1029A000E80DF11D8081B60190E00E9403158110B1
:1029B000F5CF222009F442CEB60180E290E00E94D9
:1029C00003152A94F6CFF6018681978102C08FEF16
:1029D0009FEF2B96E2E10C946E11FC010590615083
:1029E00070400110D8F7809590958E0F9F1F089525
:1029F000FC016150704001900110D8F780959095CE
:102A00008E0F9F1F08950F931F93CF93DF93FB01AA
:102A1000238121FD03C08FEF9FEF2CC022FF16C042
:102A200046815781248135814217530744F4A081A0
:102A3000B1819D012F5F3F4F318320838C9326818D
:102A400037812F5F3F4F3783268314C08B01EC0102
:102A5000FB010084F185E02D0995892BE1F6D80171
:102A600016968D919C911797019617969C938E932D
:102A70001697CE01DF91CF911F910F910895FA0122
:102A8000AA27283051F1203181F1E8946F936E7FAD
:102A90006E5F7F4F8F4F9F4FAF4FB1E03ED0B4E09E
:102AA0003CD0670F781F891F9A1FA11D680F791FDF
:102AB0008A1F911DA11D6A0F711D811D911DA11DF0
:102AC00020D009F468943F912AE0269F1124301900
:102AD000305D3193DEF6CF010895462F4770405D9B
:102AE0004193B3E00FD0C9F7F6CF462F4F70405D4A
:102AF0004A3318F0495D31FD4052419302D0A9F7A5
:102B0000EACFB4E0A6959795879577956795BA959E
:102B1000C9F700976105710508959B01AC010A2E64
:102B200006945795479537952795BA95C9F7620F3B
:102B3000731F841F951FA01D089510E0CAE7D0E001
:102B400004C0FE010E94DA112196CB37D107C9F7E4
:042B5000F894FFCF27
:102B54000100000D048000000000003801A500CF32
:102B64000085010001DE00F200000000009306A5CC
:102B740000BD02BC02000000008D026002BD02B173
:102B840001580244023502000000007308A500BD8C
:102B940002BC02730873087308000000008C03234E
:102BA40003BD02B101C901E702B201556E69717535
:102BB4006549443A200030000D0A004455434F490A
:0A2BC400440025303258002C0000B8
:00000001FF
