:100000000C947E000C94A6000C94A6000C94A60000
:100010000C94A6000C94A6000C94A6000C94A600C8
:100020000C94A6000C94A6000C94A6000C94A600B8
:100030000C94A6000C94A6000C94A6000C94A600A8
:100040000C942D0B0C94A6000C94A9040C9483041E
:100050000C94A6000C94A6000C94A6000C94A60088
:100060000C9417070C94A6009979825AA1EBD96ECB
:10007000DCBC1B8FD6C162CA5769726520416464BB
:10008000726573733A20000123456789ABCDEFFE9B
:10009000DCBA9876543210F0E1D2C3446F6E65201A
:1000A000004A6F623A200000000000240027002A66
:1000B0000000000000250028002B000404040404B4
:1000C0000404040202020202020303030303030105
:1000D00002040810204080010204081020010204DC
:1000E00008102000000008000201000003040700BF
:1000F00000000000000000002410A70B11241FBE08
:10010000CFEFD8E0DEBFCDBF11E0A0E0B1E0EAE87C
:10011000FEE202C005900D92AA37B107D9F724E09C
:10012000AAE7B1E001C01D92AE30B207E1F710E0DE
:10013000CDE7D0E004C02197FE010E947513CC37B3
:10014000D107C9F70E94BD0B0C9438170C9400001E
:10015000CF92DF92EF92FF920F931F93CF93DF9393
:100160006C017A018B01C0E0D0E0CE15DF0581F093
:10017000D8016D918D01D601ED91FC910190F08136
:10018000E02DC6010995892B11F02196EECF7E0155
:10019000C701DF91CF911F910F91FF90EF90DF90FA
:1001A000CF900895FC01538D448D252F30E0842F8E
:1001B00090E0821B930B541710F0CF96089501978F
:1001C0000895FC01918D828D981761F0828DDF0179
:1001D000A80FB11D5D968C91928D9F5F9F77928F36
:1001E00090E008958FEF9FEF0895FC01918D828D2F
:1001F000981731F0828DE80FF11D858D90E00895FC
:100200008FEF9FEF0895FC01918D228D892F90E053
:1002100080589F4F821B91098F779927089585E316
:1002200092E00E94030121E0892B09F420E0822F53
:100230000895FC01848DDF01A80FB11DA356BF4FA7
:100240002C91848D90E001968F739927848FA689D5
:10025000B7892C93A089B1898C91837080648C9329
:10026000938D848D981306C00288F389E02D8081D8
:100270008F7D80830895EF92FF920F931F93CF930A
:10028000DF93EC0181E0888F9B8D8C8D981305C0E6
:10029000E889F989808185FD26C0F62E0B8D10E056
:1002A0000F5F1F4F0F731127E02E8C8DE8120CC0CB
:1002B0000FB607FCFACFE889F989808185FFF5CF71
:1002C000CE010E941901F1CF8B8DFE01E80FF11DC7
:1002D000E356FF4FF0829FB7F8940B8FEA89FB89B2
:1002E000808180620AC09FB7F894EE89FF8960839D
:1002F000E889F98980818370806480839FBF81E071
:1003000090E0DF91CF911F910F91FF90EF900895B2
:10031000CF93DF93EC01888D8823C9F0EA89FB89AC
:10032000808185FD05C0A889B9898C9186FD0FC0A3
:100330000FB607FCF5CF808185FFF2CFA889B98978
:100340008C9185FFEDCFCE010E941901E7CFDF919F
:10035000CF91089580E090E0892B29F00E940F0151
:1003600081110C94000008950895DC0150962D91A0
:100370003C915197232B69F01C96ED91FC911D97B0
:10038000309711F0808101C080E0082E000C990B9D
:1003900008958FEF9FEF0895FC018089918908955A
:1003A00085ED8093BC008091BC0084FDFCCF109251
:1003B000300208954091BD01262F30E0240F311DF9
:1003C00021323105DCF4209130022430C9F4FC01E3
:1003D00080E090E0861758F43091BD012191DC0156
:1003E000A356BE4FA30FB11D2C930196F3CF80915E
:1003F000BD01680F6093BD0180E0089581E008951C
:1004000082E00895E0912702F0912802309729F0C8
:10041000109232021092310209940895CF93DF9323
:10042000AC01E0912502F09126023097F1F0909115
:100430003402809133029817C0F090E0292F30E009
:100440002617370754F4D901A358BE4FEA01C20F4B
:10045000D31F28812C939F5FF1CF109234026093B9
:100460003302CB01DF91CF910994DF91CF910895B1
:10047000E091340280913302E81730F4F0E0E35861
:10048000FE4F808190E008958FEF9FEF0895909147
:10049000340280913302981750F4E92FF0E0E358CA
:1004A000FE4F208130E09F5F9093340202C02FEF17
:1004B0003FEFC90108958091330290E0209134020A
:1004C000821B91090895CF92DF92EF92FF920F93D2
:1004D0001F93CF93DF937C01CB018A01209104020B
:1004E000222389F0EB016B01C40ED51ECC15DD056E
:1004F00069F06991D701ED91FC910190F081E02DB7
:10050000C7010995F3CF642F0E94DA01C801DF917A
:10051000CF911F910F91FF90EF90DF90CF900895B2
:10052000CF93DF931F92CDB7DEB76983209104028A
:100530002223D1F020913102203240F021E030E03E
:10054000FC013383228380E090E015C08091320269
:10055000E82FF0E0EB5FFD4F998190838F5F8093F0
:1005600032028093310205C061E0CE0101960E9403
:10057000DA0181E090E00F90DF91CF910895089526
:1005800080E090E008950F931F93CF93DF93EC01E9
:1005900088819981009729F02A813B8126173707A6
:1005A00088F48B016F5F7F4F0E947B13009761F08F
:1005B000998388831B830A832C813D81232B11F42B
:1005C000FC01108281E001C080E0DF91CF911F919A
:1005D0000F910895CF93DF93EC0188819981009763
:1005E00011F00E948211198218821D821C821B82C6
:1005F0001A82DF91CF910895EF92FF920F931F938C
:10060000CF93DF93EC017B018A01BA010E94C30200
:10061000811104C0CE010E94EA0207C01D830C8331
:10062000B701888199810E946F14CE01DF91CF912B
:100630001F910F91FF90EF9008951F93CF93DF9339
:10064000EC014889598941155105E1F08C859D855A
:10065000009719F0FC01108101C010E041505109D0
:10066000598B488BBC016F5F7F4F0E947614EC85DD
:10067000FD8588899989E80FF91F1082812F110F54
:10068000990B02C08FEF9FEFDF91CF911F910895DB
:10069000EF92FF920F931F93CF93DF934115510574
:1006A00019F480E090E028C061157105D1F38A014A
:1006B0007B01EC01688979896F5F7F4F640F751F3B
:1006C0000C960E94C302882361F32C853D8588899E
:1006D0009989A801B701820F931F0E945B14888932
:1006E0009989800F911F998B888B2C853D85F90105
:1006F000E80FF91F1082C801DF91CF911F910F9170
:10070000FF90EF900895CF93DF938091ED03909148
:10071000EE0318161906A4F4C091E903D091EA0378
:100720006AE070E0CE010E946414009749F08C1BCF
:100730009D0B019629F08DED93E00E941D0301C0F1
:100740008AE0682F81ED93E0DF91CF910C949002C5
:10075000EF92FF920F931F93CF93DF936115710573
:1007600011F480E01CC041155105C1F07B01EC0182
:100770008C819D818A01080F191FB801CE010E944A
:10078000C302882371F3288139818C819D81B7014F
:10079000820F931F0E946F141D830C8381E0DF91F1
:1007A000CF911F910F91FF90EF900895CF93DF931A
:1007B000EC016115710561F0FB0101900020E9F782
:1007C0003197AF01461B570B0E94A803811103C04C
:1007D000CE010E94EA02CE01DF91CF910895CF931E
:1007E000DF93EC01FB0144815581608171810E949E
:1007F000A803811103C0CE010E94EA02CE01DF915D
:10080000CF910895CF93DF9300D0CDB7DEB7698342
:100810001A8241E050E0BE016F5F7F4F0C960E944C
:10082000A80390E00F900F90DF91CF910895892B4E
:1008300081F09091330280913402981751F081ED4C
:1008400093E00E944702682F8FEE93E00E9402041B
:10085000F0CF0895CF93DF93EC016115710559F046
:10086000FB0101900020E9F73197AF01461B570BC0
:100870000E94FC0202C00E94EA02CE01DF91CF91E9
:100880000895FC01808191810C948211FB01DC01AF
:1008900011961C921E9213961C921E9212971596F8
:1008A0001C921E9214978617970749F060817181F8
:1008B0006115710521F0448155810C94FC02089565
:1008C000FC0111821082138212821582148261153A
:1008D000710551F0FB0101900020E9F73197AF015C
:1008E000461B570B0C94FC020895DB0114964D91A6
:1008F0005C9115976D917C91DC01ED91FC910280EA
:10090000F381E02D09941F920F920FB60F921124DC
:100910002F933F934F935F936F937F938F939F9307
:10092000AF93BF93EF93FF9385E392E00E94190189
:10093000FF91EF91BF91AF919F918F917F916F91B7
:100940005F914F913F912F910F900FBE0F901F908D
:1009500018951F920F920FB60F9211242F938F9319
:100960009F93EF93FF93E0914502F09146028081BF
:10097000E0914B02F0914C0282FD12C09081809177
:100980004E028F5F8F7720914F02821751F0E091D6
:100990004E02F0E0EB5CFD4F958F80934E0201C05C
:1009A0008081FF91EF919F918F912F910F900FBEBA
:1009B0000F901F9018952F923F924F925F926F92D7
:1009C0007F928F929F92AF92BF92CF92DF92EF92DF
:1009D000FF920F931F93CF93DF93CDB7DEB7A69708
:1009E0000FB6F894DEBF0FBECDBF9AA389A39C01BA
:1009F0002C5A3F4FD9018C91E9A1FAA1E80FF11DC2
:100A0000648B8F5F8C93803409F0CAC1E9A1FAA18D
:100A100074964081818190E0A0E0B0E0DC019927EC
:100A20008827B42B4381842B4281942B819391930B
:100A3000A193B1932E173F0761F7A9A1BAA14D90D9
:100A40005D906D907C9013974D865E866F86788A58
:100A500014964D905D906D907C901797498A5A8AB4
:100A60006B8A7C8A18964D905D906D907C901B9758
:100A70004D8A5E8A6F8A788E1C964D905D906D903F
:100A80007C901F97498E5A8E6B8E7C8E50964D901F
:100A90005D906D907C9053974D8E5E8E6F8E78A298
:100AA000C988DA88EB88FC88098D1A8D2B8D3C8DDE
:100AB0004D885E886F88788C49825A826B827C82EE
:100AC0008D8C9E8CAF8CB8A04D855E856F857889A6
:100AD0004D835E836F8378876EEF262E33243A949E
:100AE00040E0842F64E10E94D51254E0859FF0011C
:100AF0001124E859FF4F65917591859194916BA3ED
:100B00007CA38DA39EA3642F6F70E9A1FAA174E06A
:100B1000679FE00DF11D11244D805E806F80788409
:100B20007BE176946794579447947A95D1F78D81B9
:100B30009E81AF81B88555E0880F991FAA1FBB1F02
:100B40005A95D1F7482A592A6A2A7B2A6BA17CA197
:100B50008DA19EA1460E571E681E791E8489958917
:100B6000A689B789840D951DA61DB71D880E991EEF
:100B7000AA1EBB1E443188F489819A81AB81BC8155
:100B800080279127A227B3278C219D21AE21BF2149
:100B900080279127A227B3272BC04832D8F04C33A7
:100BA000C8F489819A81AB81BC81802B912BA22BC7
:100BB000B32B8C219D21AE21BF2149805A806B80AF
:100BC0007C80402251226222732284299529A62901
:100BD000B7290EC0D901C8018C259D25AE25BF259A
:100BE00049805A806B807C8084259525A625B72571
:100BF000880D991DAA1DBB1D4601570152E0B694F0
:100C0000A794979487945A95D1F7260137016EE1FE
:100C1000440C551C661C771C6A95D1F74828592846
:100C20006A287B284F5F403509F470C0403108F4D2
:100C300057C0642F6F70A9A0BAA054E0659FA00CA4
:100C4000B11C1124B501F101EF70FF273596EE0FAD
:100C5000FF1FEE0FFF1FA9A0BAA0EA0DFB1D8080A9
:100C60009180A280B380FB01C488D588E688F7888C
:100C7000C824D924EA24FB24F1013597EF70FF271B
:100C80003596EE0FFF1FEE0FFF1FA9A0BAA0EA0DC9
:100C9000FB1D80809180A280B380C824D924EA24DF
:100CA000FB24F1013B97EF70FF273596EE0FFF1FF6
:100CB000EE0FFF1FA9A0BAA0EA0DFB1D8080918056
:100CC000A280B380C824D924EA24FB24CC0CDD1CE8
:100CD000EE1CFF1CC11CFB01C48AD58AE68AF78A78
:100CE000FFEF2F1A3F0ACD80DE80EF80F8844801A5
:100CF000590109811A812B813C8149825A826B8278
:100D00007C828D839E83AF83B887EBCE4D855E85D5
:100D10006F857889840F951FA61FB71FE9A1FAA1D7
:100D200080839183A283B38389899A89AB89BC89A3
:100D30004D815E816F817885840F951FA61FB71F37
:100D400084839583A683B7834D895E896F89788D67
:100D5000440E551E661E771E408651866286738637
:100D6000898D9A8DAB8DBC8D49805A806B807C803B
:100D7000840D951DA61DB71D84879587A687B78707
:100D80004D8C5E8C6F8C78A0040D151D261D371DB3
:100D9000DF01008B118B228B338BAC5ABF4F1C921F
:100DA000A6960FB6F894DEBF0FBECDBFDF91CF91F0
:100DB0001F910F91FF90EF90DF90CF90BF90AF9079
:100DC0009F908F907F906F905F904F903F902F906B
:100DD0000895CF93DF93FC01EF59FF4F208121113C
:100DE0001EC0B62FEC01389720813181428153819A
:100DF0006481758186819781A1E00E9455132083CB
:100E000031834283538364837583868397836B2FF7
:100E1000CE0104960E94DB0481E090E005C081E0F1
:100E200090E06F3F09F080E0DF91CF9108951F922D
:100E30000F920FB60F9211242F933F934F935F930E
:100E40006F937F938F939F93AF93BF93EF93FF9392
:100E50008091B900887F803609F49CC068F588329B
:100E600009F45BC090F4803109F454C038F488234D
:100E700009F4F6C0883009F44DC0F6C0883109F491
:100E80004CC0803209F45DC0EFC0803409F468C002
:100E900048F4803309F455C0883309F0E5C08093E5
:100EA0000302D8C0803509F44FC0883509F45DC00D
:100EB000883409F0D9C0D6C0883909F4C7C0A8F46D
:100EC000883709F467C038F4883609F463C080377E
:100ED00009F460C0C9C0883809F4B8C0803909F481
:100EE0005FC0803809F0C0C05BC0803B09F486C099
:100EF00038F4803A09F466C0883A09F47FC0B4C077
:100F0000803C09F4A7C0883C09F4A4C0883B09F4DC
:100F10008AC0AAC08091E00110C090910202809125
:100F20000102981770F5E091020281E08E0F809324
:100F30000202F0E0EF51FE4F80818093BB0085EC10
:100F400086C0809303028EC0E091020281E08E0F82
:100F5000809302028091BB00F0E0EF51FE4F80834E
:100F600090910202809101026EC0E091020281E044
:100F70008E0F809302028091BB00F0E0EF51FE4F94
:100F8000808380912F0281116DC081E080932E02B9
:100F900084EA61C083E0809330021092DF01CFCFFA
:100FA0008091DF01803208F051C0E091DF0181E0E3
:100FB0008E0F8093DF018091BB00F0E0E154FE4F83
:100FC0008083BDCF85EC8093BC001092300280916D
:100FD000DF01803230F4E091DF01F0E0E154FE4FB8
:100FE00010826091DF0170E0E0912A02F0912B0203
:100FF0008FEB91E009951092DF0136C084E0809379
:1010000030021092BE011092BD01E0912C02F091CD
:101010002D0209958091BD01811105C081E0809369
:10102000BD0110929D01E091BE0181E08E0F809381
:10103000BE01F0E0E356FE4F80818093BB009091AB
:10104000BE018091BD01981708F479CF85E880939F
:10105000BC000AC085EC8093BC001092300204C032
:10106000109203020E94D001FF91EF91BF91AF91C6
:101070009F918F917F916F915F914F913F912F91B0
:101080000F900FBE0F901F901895AF92BF92CF9206
:10109000DF92EF92FF920F931F93CF93DF9300D0D5
:1010A00000D0CDB7DEB77C016BE571E00E94600433
:1010B00083E1C82E83E0D82E92E6A92E91E0B92EC6
:1010C0008E010F5F1F4FF60181916F011F928F9369
:1010D000BF92AF921F930F930E948514F801019065
:1010E0000020E9F73197AF01401B510BB801C70150
:1010F0000E94A8030F900F900F900F900F900F90E9
:10110000FBE1CF16F3E0DF06F1F6C7010F900F9079
:101110000F900F90DF91CF911F910F91FF90EF9063
:10112000DF90CF90BF90AF900895AF92BF92CF92D3
:10113000DF92EF92FF920F931F93CF93DF93A090D4
:101140007C0180917B018A25C0E0D0E0B12C0BE3CB
:1011500010E097E0E92EF12C8170A82EC8010197CC
:10116000F1F70E9473096C01C8010197F1F70E9421
:101170007309AC0197012C1B3D0B982F022E01C067
:10118000990F0A94EAF73195219531092770332791
:10119000842F01C086952A95EAF7292F282B8C2DBC
:1011A0000C2E01C0880F0A94EAF7662777276C1B7C
:1011B0007D0B677077279C2D01C096956A95EAF79D
:1011C000892B8227B826E0917C0190917B0160E019
:1011D00070E09601062E02C0359527950A94E2F735
:1011E0002170DA01062E02C0B595A7950A94E2F7A0
:1011F000A1702A1771F0A11005C08E2F880FE82763
:10120000E22707C0892F86959827279522272795BB
:1012100092276F5F7F4F68307105D9F6E0937C01AC
:1012200090937B012196C430D10509F097CF80912E
:101230007A01282F2295220F211D282782958F7051
:1012400082278B2580937A019E278927DF91CF9172
:101250001F910F91FF90EF90DF90CF90BF90AF90D4
:1012600008950E9441142FB7F8948091060490913C
:101270000704A0910804B09109042FBF8093F703DD
:101280009093F803A093F903B093FA038FEE93E0E1
:101290000E941D0397FF26C02FB7F8948091060483
:1012A00090910704A0910804B09109042FBF4091C8
:1012B000F7035091F8036091F9037091FA03841BCE
:1012C000950BA60BB70B4091F3035091F40360917B
:1012D000F5037091F60384179507A607B707B0F2D8
:1012E0008FEF9FEF089581E480937C0080917A00D6
:1012F000806480937A0080917A0086FDFCCF809193
:1013000078002091790090E0922B0895009769F081
:10131000FC0101900020E9F73197AF01481B590B00
:10132000BC0185E392E00C94A80080E090E0089571
:101330008F929F92AF92BF920F931F93CF93DF93A1
:10134000CDB7DEB7A1970FB6F894DEBF0FBECDBF05
:1013500019A2423008F44AE08E010F5D1F4F842E1F
:10136000912CA12CB12CA50194010E94F512E62F1D
:10137000B901CA0101501109EA3014F4E05D01C05D
:10138000E95CD801EC93232B242B252B61F7C801B2
:101390000E948609A1960FB6F894DEBF0FBECDBF9E
:1013A000DF91CF911F910F91BF90AF909F908F9041
:1013B00008950F931F93CF93DF938C01C0E0D0E08B
:1013C000F801EC0FFD1F6491662341F085E392E084
:1013D0000E943B01892B11F02196F2CFCE01DF91C3
:1013E000CF911F910F9108950F931F93CF93DF9388
:1013F000CDB7DEB7A1970FB6F894DEBF0FBECDBF55
:101400008C01CB01BA01F801118210821382128281
:10141000158214822AE0AE014F5F5F4F0E94521284
:10142000BE016F5F7F4FC8010E942A04A1960FB6CC
:10143000F894DEBF0FBECDBFDF91CF911F910F910A
:1014400008950F931F93CF93DF93CDB7DEB76197C6
:101450000FB6F894DEBF0FBECDBF8C01CB01F801F3
:101460001182108213821282158214824AE0BE0118
:101470006F5F7F4F0E947412BE016F5F7F4FC80184
:101480000E942A0461960FB6F894DEBF0FBECDBF4E
:10149000DF91CF911F910F91089590E0FC01ED51E4
:1014A000FF4F2491FC01E153FF4F3491FC01E554BF
:1014B000FF4FE491EE2309F43CC0222339F123309D
:1014C00091F038F42130A9F0223001F584B58F7DF8
:1014D00012C0273091F02830A1F02430B9F4809167
:1014E00080008F7D03C0809180008F778093800083
:1014F0000DC084B58F7784BD09C08091B0008F770F
:1015000003C08091B0008F7D8093B000F0E0EE0FBB
:10151000FF1FEF54FF4FA591B4919FB7F89461114D
:1015200004C08C913095382302C0EC913E2B3C9343
:101530009FBF08951092340210923302109232022B
:10154000109231021092300281E080932F021092AB
:101550002E0261E082E10E944D0A61E083E10E9477
:101560004D0AE9EBF0E080818E7F808380818D7F62
:10157000808388E48093B80085E48093BC0082E097
:1015800092E090932D0280932C028EE092E0909353
:101590002B0280932A020895CF93DF9390E0FC0101
:1015A000E153FF4F2491FC01E554FF4F84918823C0
:1015B00061F190E0880F991FFC01E955FF4FC5913B
:1015C000D491FC01EF54FF4FA591B491611109C072
:1015D0009FB7F8948881209582238883EC912E23ED
:1015E0000BC0623061F49FB7F8948881322F309538
:1015F00083238883EC912E2B2C939FBF06C08FB73B
:10160000F894E8812E2B28838FBFDF91CF91089526
:101610003FB7F8948091020490910304A0910404D0
:10162000B091050426B5A89B05C02F3F19F001967F
:10163000A11DB11D3FBFBA2FA92F982F8827820F58
:10164000911DA11DB11DBC01CD0142E0660F771FA8
:10165000881F991F4A95D1F708951F920F920FB6D0
:101660000F9211242F933F938F939F93AF93BF9328
:101670008091060490910704A0910804B091090498
:101680003091010423E0230F2D3720F40196A11D92
:10169000B11D05C026E8230F0296A11DB11D2093A0
:1016A00001048093060490930704A0930804B09368
:1016B00009048091020490910304A0910404B09164
:1016C00005040196A11DB11D8093020490930304AB
:1016D000A0930404B0930504BF91AF919F918F91A3
:1016E0003F912F910F900FBE0F901F901895EF9282
:1016F000FF920F931F93CF93DF9300D0CDB7DEB748
:101700008C01E62E66E771E00E9460040E943309B6
:101710000E2C000CFF0897FD10C08E159F0569F078
:1017200089831A8241E050E0BE016F5F7F4FC8019C
:101730000E94A8030E943309EECFC8010F900F90BA
:10174000DF91CF911F910F91FF90EF900895CF936C
:10175000DF93CDE4D1E0D093DE03C093DD0389EEC7
:1017600093E00E944104D093F003C093EF038BEF0A
:1017700093E0DF91CF910C944104CF93DF93CDB7E9
:10178000DEB7E2970FB6F894DEBF0FBECDBF7894F8
:1017900084B5826084BD84B5816084BD85B5826076
:1017A00085BD85B5816085BD80916E008160809327
:1017B0006E00109281008091810082608093810090
:1017C00080918100816080938100809180008160A0
:1017D000809380008091B10084608093B1008091FB
:1017E000B00081608093B00080917A008460809323
:1017F0007A0080917A00826080937A0080917A00EA
:10180000816080937A0080917A00806880937A006A
:101810001092C100E0914502F091460282E080837F
:10182000E0914102F09142021082E0914302F09176
:10183000440280E1808310924D02E0914902F091D0
:101840004A0286E08083E0914702F091480280815D
:1018500080618083E0914702F09148028081886036
:101860008083E0914702F091480280818068808304
:10187000E0914702F091480280818F7D808387E666
:1018800091E00E94860903E113E08BE1E82E83E0FA
:10189000F82E6801D8018C91803120F482E791E024
:1018A0000E9486090F5F1F4FF601608170E080E0A3
:1018B00090E040E10E94980980E791E00E9486094B
:1018C000E016F10631F784E791E00E94860962E0B4
:1018D00083E10E94CC0A62E082E10E94CC0A0E946D
:1018E0009508182F0E94950848EE53E0149F900128
:1018F000159F300D1124A901480F511DCA01423016
:1019000051053CF0880F991F880F991F0597019783
:10191000F1F70E949A0A81E090E031E062E07FEF07
:10192000E5EEF5ECA82F3093040280932902109283
:10193000320210923102209130022111FCCF6093CB
:10194000300230932F027093030210920202109221
:1019500001021092E001B091E001AC01440F551F6B
:101960004B2B4093E00140912E02413069F41092DC
:101970002E024091E0014093BB004091BC0043FD2A
:10198000F8CFF093BC0002C0E093BC00409130025D
:101990004230E1F3409103024F3F69F0209103028E
:1019A000203231F020910302203321F024E003C0E3
:1019B00022E001C023E01092320210923102109214
:1019C0000402222319F0A093000105C001968F376D
:1019D000910509F0A7CF8091BC008A7B8093BC0061
:1019E00060E082E10E944D0A60E083E10E944D0ABE
:1019F000109100010E949A0A110F1093BA0087E11A
:101A000094E0909326028093250283E893E09093DC
:101A100028028093270288E790E00E94D90960910C
:101A2000000170E080E090E04AE00E94980984E7BD
:101A300091E00E94860961E08DE00E94CC0A60E09E
:101A40008DE00E944D0A49E1A42EB12C8091FF0344
:101A500090910004181619060CF0F3C20091FB03D4
:101A60001091FC036AE070E0C8010E9464140097C2
:101A700009F4E7C2801B910B019609F4E2C281EAE6
:101A800090E00E94D9096BEF73E085E392E00E9439
:101A900075046CE2CE018B960E94770B6CE2CE014E
:101AA00085960E94770B6AE0CE0101960E94770B23
:101AB00089819A81009729F00E940B126B017C01A9
:101AC00003C0C12CD12C7601CE0101960E944104A5
:101AD0000E94080B2B013C018FE8C81682E0D80653
:101AE00008F0D8C17601BE016B5D7F4FCE014F96E5
:101AF0000E944604BE01655D7F4FCE0149960E945B
:101B00004604ADB7BEB7BAABA9ABCF8CD8A0C11451
:101B1000D10469F0F6018081882349F0082E000C79
:101B2000990B0E944614D6018D936D01F3CFCF8C93
:101B3000D8A08BA19CA196958795282E99270196D0
:101B4000EDB7FEB7E81BF90B0FB6F894FEBF0FBE5A
:101B5000EDBF2DB73EB72F5F3F4F4901F90140E080
:101B6000842F880F421500F59601280F311DD901E9
:101B70008C918F71082E000C990B0996B5010E946B
:101B8000E112382ED90111968C918F71082E000C1C
:101B9000990B0996B5010E94E112B0E13B9E800DC0
:101BA000112481934F5FDCCFE0E9EE16E2E0FE0600
:101BB0000CF05CC1F4E6FE9D1001FF9D300C112479
:101BC000E12CF12C11E02E143F040CF44FC187E8F6
:101BD00090E02FE1C22E23E0D22ED601FC014591E8
:101BE0005591659174914D935D936D937D9304969A
:101BF00023E0A333B20791F710927303109274039A
:101C00001092750310927603109277031092780366
:101C10001092790310927A0310927B0310927C0346
:101C20001C8A1B8A1E8A1D8A188E1F8A4AE0BE01E2
:101C30006F5F7F4FC7010E943212BE016F5F7F4FFF
:101C4000CE0143960E942A04BE01675E7F4FCE01FB
:101C500001960E944604BE016D5E7F4FCE01019643
:101C60000E94EF03BC018BE193E00E947504CE015A
:101C700001960E944104CE0143960E9441041093B4
:101C80007C0360E88FE193E00E94DB0480917303A2
:101C9000883311F060E0F6CF209174033091750322
:101CA00040917603509177036091780370917903A6
:101CB00080917A0390917B0303E00E941E1308E356
:101CC0000E943913622F8FE193E00E94DB04209180
:101CD00074033091750340917603509177036091BE
:101CE00078037091790380917A0390917B0303E0EC
:101CF0000E941E1300E30E943913622F8FE193E0CC
:101D00000E94DB04209174033091750340917603A7
:101D100050917703609178037091790380917A03F1
:101D200090917B0303E00E941E1308E20E94391386
:101D3000622F8FE193E00E94DB04209174033091C5
:101D40007503409176035091770360917803709109
:101D5000790380917A0390917B0303E00E941E1324
:101D600000E20E943913622F8FE193E00E94DB04AE
:101D7000209174033091750340917603509177035D
:101D8000609178037091790380917A0390917B033D
:101D900003E00E941E1308E10E943913622F8FE1B5
:101DA00093E00E94DB04209174033091750340910D
:101DB0007603509177036091780370917903809155
:101DC0007A0390917B0303E00E941E1300E10E94BE
:101DD0003913622F8FE193E00E94DB04209174039A
:101DE00030917503409176035091770360917803A9
:101DF0007091790380917A0390917B0303E00E94B4
:101E00001E1308E00E943913622F8FE193E00E94B5
:101E1000DB0460917403660F660F660F8FE193E039
:101E20000E94DB04D6016D917D918D919C910E9461
:101E30001713F60161937193819391936F0123E3DB
:101E400033E02E173F0771F744E150E0B4018FE112
:101E500093E00E944E14892B29F4C701FF0CAA0BB2
:101E6000BB0B07C03FEFE31AF30AADCE80E090E072
:101E7000DC0149A95AA90FB6F8945EBF0FBE4DBF49
:101E80007C01CE0149960E944104CE014F960E94EA
:101E9000410402C0E12CF12C0E94080B9B01AC0113
:101EA000241935094609570929013A018091ED03A2
:101EB0009091EE03892B29F08DED93E00E941D0394
:101EC000F5CFCE014F960E944508B301A201CE0185
:101ED00049960E94F409B701CE0101960E94210A99
:101EE000BE016F5F7F4FCE0143960E94460467E7B5
:101EF00071E0CE0143960E94D603BE01675E7F4F1C
:101F00000E94EF0367E771E00E94D603BE01615EA5
:101F10007F4F0E94EF0365E771E00E94D603BC018A
:101F20008DED93E00E947504CE0143960E9441041A
:101F3000CE0101960E944104CE0149960E944104BF
:101F4000CE014F960E9441048BE990E00E94D9098E
:101F5000CE014F960E944508B301A201CE014996D9
:101F60000E94F409B701CE0101960E94210ABE0128
:101F70006F5F7F4FCE0143960E94460467E771E092
:101F8000CE0143960E94D603BE01675E7F4F0E943A
:101F9000EF0367E771E00E94D603BE01615E7F4FE9
:101FA0000E94EF0365E771E00E94D603BC0185E360
:101FB00092E00E947504CE0143960E944104CE0136
:101FC00001960E944104CE0149960E944104CE012F
:101FD0004F960E944104CE0185960E944104CE0195
:101FE0008B960E94410461E08DE00E944D0A0E94A0
:101FF000080B2B013C0184E6C82ED12CE12CF12CDE
:102000000E94080BDC01CB0184199509A609B709C8
:10201000883E9340A105B10598F331E0C31AD10879
:10202000E108F10848EE440E43E0541E611C711CA7
:10203000C114D104E104F10419F760E08DE00E94BD
:102040004D0A0E94AA0102CDCF92DF92EF92FF9239
:102050000F931F93CF93DF931092380210923702A1
:1020600088EE93E0A0E0B0E08093390290933A02CA
:10207000A0933B02B0933C028BE091E09093360238
:102080008093350285EC90E0909342028093410268
:1020900084EC90E0909344028093430280EC90E0C3
:1020A000909346028093450281EC90E09093480221
:1020B0008093470282EC90E090934A028093490219
:1020C00086EC90E090934C0280934B0210924E026B
:1020D00010924F021092500210925102A2E1B3E00E
:1020E00080E090E041E2E1E0F0E08630910510F41C
:1020F000E0E0F0E09C01225F3F4FE20FF31F4093CE
:102100005700E491ED9301968930910561F71092A3
:102110001E0310921D038DE191E090931C038093A8
:102120001B031092D4031092D30388EEC82E83E0D1
:10213000D82EE12CF12CC092D503D092D603E09298
:10214000D703F092D80389E291E09093D203809371
:10215000D1031092F2031092F1030BE311E01093FC
:10216000F0030093EF03C092F303D092F403E092E4
:10217000F503F092F60366E771E08BEF93E00E94BF
:102180006004CDE4D1E0D093F003C093EF0310924C
:10219000E0031092DF031093DE030093DD03C0928F
:1021A000E103D092E203E092E303F092E40366E7F6
:1021B00071E089EE93E00E946004D093DE03C09347
:1021C000DD03DF91CF911F910F91FF90EF90DF9092
:1021D000CF9008950F931F93CF93DF938230910593
:1021E00010F482E090E0E0910C04F0910D0420E006
:1021F00030E0A0E0B0E0309719F1408151810281D8
:10220000138148175907C8F08417950769F4109788
:1022100031F012960C93129713961C9327C00093DB
:102220000C0410930D0422C02115310519F042173A
:10223000530718F49A01BD01EF01DF01F801DBCF6C
:1022400021153105F9F0281B390B2430310580F4B4
:102250008A819B816115710521F0FB019383828343
:1022600004C090930D0480930C04FE01329644C088
:10227000FE01E20FF31F81939193225031093983BC
:1022800028833AC020910A0430910B04232B41F497
:10229000209103013091040130930B0420930A0430
:1022A00020910101309102012115310541F42DB732
:1022B0003EB74091050150910601241B350BE0917A
:1022C0000A04F0910B04E217F307A0F42E1B3F0B56
:1022D0002817390778F0AC014E5F5F4F2417350798
:1022E00048F04E0F5F1F50930B0440930A048193F4
:1022F000919302C0E0E0F0E0CF01DF91CF911F9118
:102300000F910895CF93DF93009709F481C0FC01EA
:10231000329713821282A0910C04B0910D04109791
:1023200081F420813181820F931F20910A04309122
:102330000B042817390751F5F0930B04E0930A04B6
:1023400067C0ED0120E030E0CE17DF0740F44A819E
:102350005B819E0141155105F1F0EA01F5CFD38370
:10236000C28340815181840F951FC817D90759F442
:1023700088819981840F951F0296918380838A8139
:102380009B81938382832115310529F4F0930D04F9
:10239000E0930C043DC0E901FB83EA834991599124
:1023A000C40FD51FEC17FD0761F480819181840F64
:1023B000951F0296E90199838883828193819B838B
:1023C0008A83E0E0F0E012968D919C91139700973C
:1023D00019F0FD01DC01F7CF8D919C9111979D01C2
:1023E0002E5F3F4F820F931F20910A0430910B0400
:1023F0002817390769F4309729F410920D041092C8
:102400000C0402C013821282B0930B04A0930A043E
:10241000DF91CF9108951F93FC0199278827BC0174
:10242000E89411911032E9F3193010F01E30C8F31E
:102430001B3251F01D3249F4689406C00E943D12CF
:10244000610F711D811D911D119110531A30B0F350
:102450003EF490958095709561957F4F8F4F9F4F7B
:102460001F910895BB274A3031F4992322F4BDE22D
:10247000909581959F4F0C947512592F482F372FA7
:10248000262F660F771F881F991F660F771F881FDB
:10249000991F620F731F841F951F660F771F881F78
:1024A000991F0895BB27FA01A62F621771058105B0
:1024B0009105330B30FB66F0AA27660F771F881F44
:1024C000991FAA1FA21710F0A21B63953850A9F7F5
:1024D000A05DAA3308F0A95DA19336F7B111B193BD
:1024E0001082CA010C948E12BB27FB015527AA2724
:1024F000880F991FAA1FA41710F0A41B8395505191
:10250000B9F7A05DAA3308F0A95DA193009779F708
:10251000B111B1931192CB010C948E12DC01FC012C
:10252000672F71917723E1F7329704C07C916D9307
:1025300070836291AE17BF07C8F308952F923F9240
:102540004F925F926F927F928F929F92AF92BF92C3
:10255000CF92DF92EF92FF920F931F93CF93DF936F
:10256000CDB7DEB7CA1BDB0B0FB6F894DEBF0FBECC
:10257000CDBF09942A88398848885F846E847D8419
:102580008C849B84AA84B984C884DF80EE80FD801B
:102590000C811B81AA81B981CE0FD11D0FB6F89491
:1025A000DEBF0FBECDBFED010895991B79E004C0D9
:1025B000991F961708F0961B881F7A95C9F7809582
:1025C000089597FB072E16F4009407D077FD09D0E5
:1025D0000E94611307FC05D03EF4909581959F4FB2
:1025E0000895709561957F4F0895A1E21A2EAA1B58
:1025F000BB1BFD010DC0AA1FBB1FEE1FFF1FA217B3
:10260000B307E407F50720F0A21BB30BE40BF50BAF
:10261000661F771F881F991F1A9469F76095709538
:10262000809590959B01AC01BD01CF01089569276C
:102630009627692778278727782708950F930830EA
:1026400090F0982F872F762F652F542F432F322FFE
:1026500022270850F4CF220F331F441F551F661F37
:10266000771F881F991F0A95B2F70F91089597FB5E
:1026700010F8169400080F93083098F00850232F94
:10268000342F452F562F672F782F892F902DF4CF79
:1026900005949795879577956795579547953795BD
:1026A00027950A95AAF70F9108950024A7FD009495
:1026B0002A0F301D401D501D601D701D801D901D76
:1026C0000895AA1BBB1B51E107C0AA1FBB1FA61779
:1026D000B70710F0A61BB70B881F991F5A95A9F7CB
:1026E00080959095BC01CD010895EE0FFF1F0590D8
:1026F000F491E02D0994A0E0B0E0E1E8F3E10C945E
:10270000A212EC01009721F4CB010E94EA10B4C0A0
:10271000FC01E60FF71F9C0122503109E217F30775
:1027200008F4A8C0D9010D911C911197061717073D
:10273000B0F00530110508F49BC0C8010497861756
:10274000970708F495C002501109061B170B019357
:1027500011936D937C93CF010E94821189C05B011C
:10276000A01AB10A4C01800E911EA0910C04B091E8
:102770000D04612C712CE12CF12C109709F446C04A
:102780008D919C911197A815B905B1F56C0142E0A6
:10279000C40ED11CCA14DB0478F14C018A189B08C2
:1027A000640142E0C40ED11C1296BC90129713969D
:1027B000AC91B5E0CB16D10440F0B282A3839182F4
:1027C0008082D9016D937C9309C00E5F1F4F800FEB
:1027D000911FF90191838083EB2DFA2FE114F1040D
:1027E00031F0D7011396FC93EE93129741C0F0930A
:1027F0000D04E0930C043CC06816790608F43C0113
:102800007D0112960D90BC91A02DB7CF80910A0446
:1028100090910B0488169906E1F466167706C8F4C1
:102820008091010190910201009741F48DB79EB70C
:102830004091050150910601841B950BE817F9079B
:10284000C8F4F0930B04E0930A04F90171836083E8
:102850000FC0CB010E94EA107C01009759F0A8013B
:10286000BE010E945B14CE010E948211C70104C008
:10287000CE0102C080E090E0CDB7DEB7EEE00C9470
:10288000BE1281E090E0F8940C94381791110895ED
:1028900081568A5108F4805285580895FB01DC0165
:1028A00004C08D910190801921F441505040C8F727
:1028B000881B990B0895FB01DC0102C001900D9269
:1028C00041505040D8F70895FC018191861721F0BE
:1028D0008823D9F7992708953197CF010895FB01EF
:1028E000DC0101900D920020E1F70895FB01DC016D
:1028F0004150504048F001900D920020C9F701C0AE
:102900001D9241505040E0F70895AEE0B0E0EBE892
:10291000F4E10C94AC120D891E8986E08C831A8335
:1029200009838FEF9FE79E838D83AE01475E5F4FE4
:102930006F89788DCE0101960E94A714EF81F885EA
:10294000E00FF11F10822E96E4E00C94C812ABE069
:10295000B0E0EDEAF4E10C949E126C017B018A0177
:10296000FC0117821682838181FFCCC1CE010196C2
:102970003C01F6019381F70193FD859193FF8191CD
:102980007F01882309F4BAC1853239F493FD85911A
:1029900093FF81917F01853229F4B60190E00E9476
:1029A0009E16E7CF912C212C312CFFE1F315D8F0A6
:1029B0008B3279F038F4803279F08332A1F4232D10
:1029C00020611DC08D3261F0803369F4232D2160B8
:1029D00016C0832D8260382EE32DE4603E2E2AC07F
:1029E000F32DF8601DC037FC2DC020ED280F2A30D4
:1029F00040F08E32B9F436FC81C1232D2064322E92
:102A000019C036FE06C08AE0989E200D1124922E31
:102A100011C0EAE02E9E200D1124222EF32DF0622B
:102A20003F2E08C08C3621F4832D8068382E02C0DA
:102A3000883641F4F70193FD859193FF81917F01E1
:102A40008111B3CF982F9F7D9554933028F40C5F5C
:102A50001F4F9FE399830DC0833631F0833771F0A8
:102A6000833509F059C021C0F801808189830E5F48
:102A70001F4F88248394912C530113C02801F2E046
:102A80004F0E511CF801A080B18036FE03C0692DA5
:102A900070E002C06FEF7FEFC5010E9493164C01FA
:102AA0008201F32DFF773F2E16C0280122E0420E4F
:102AB000511CF801A080B18036FE03C0692D70E082
:102AC00002C06FEF7FEFC5010E9488164C01F32D05
:102AD000F0683F2E820133FC1BC0822D90E08816E7
:102AE0009906B0F4B60180E290E00E949E162A9406
:102AF000F4CFF50137FC859137FE81915F01B60176
:102B000090E00E949E1621102A9421E0821A9108DA
:102B10008114910471F7E8C0843611F0893641F5CB
:102B2000F80137FE07C060817181828193810C5F5B
:102B30001F4F08C060817181072E000C880B990B14
:102B40000E5F1F4FF32DFF763F2E97FF09C0909524
:102B50008095709561957F4F8F4F9F4FF0683F2E06
:102B60002AE030E0A3010E94DA16882E861845C0BC
:102B7000853731F4232D2F7EB22E2AE030E025C098
:102B8000932D997FB92E8F36C1F018F4883579F0DE
:102B9000B5C0803719F0883721F0B0C0E92FE06167
:102BA000BE2EB4FE0DC0FB2DF460BF2E09C034FE56
:102BB0000AC0292F2660B22E06C028E030E005C0EA
:102BC00020E130E002C020E132E0F801B7FE07C0AA
:102BD00060817181828193810C5F1F4F06C060818B
:102BE000718180E090E00E5F1F4FA3010E94DA1612
:102BF000882E8618FB2DFF773F2E36FE0DC0232D25
:102C00002E7FA22E891458F434FE0BC032FC09C06A
:102C1000832D8E7EA82E05C0B82CA32C03C0B82C03
:102C200001C0B92CA4FE0FC0FE01E80DF11D80818A
:102C3000803321F49A2D997EA92E09C0A2FE06C0E8
:102C4000B394B39404C08A2D867809F0B394A3FC9E
:102C500011C0A0FE06C0B21488F4280C922C9B1858
:102C60000EC0B21460F4B60180E290E00E949E169D
:102C7000B394F7CFB21418F42B1802C0982C212C5F
:102C8000A4FE10C0B60180E390E00E949E16A2FE52
:102C900017C0A1FC03C088E790E002C088E590E07F
:102CA000B6010CC08A2D867859F0A1FE02C08BE2D5
:102CB00001C080E2A7FC8DE2B60190E00E949E1662
:102CC000891438F4B60180E390E00E949E169A942D
:102CD000F7CF8A94F301E80DF11D8081B60190E0F1
:102CE0000E949E168110F5CF222009F442CEB60133
:102CF00080E290E00E949E162A94F6CFF60186812B
:102D0000978102C08FEF9FEF2B96E2E10C94BA12ED
:102D1000FC010590615070400110D8F780959095A6
:102D20008E0F9F1F0895FC016150704001900110AB
:102D3000D8F7809590958E0F9F1F08950F931F933E
:102D4000CF93DF93FB01238121FD03C08FEF9FEF22
:102D50002CC022FF16C0468157812481358142173D
:102D6000530744F4A081B1819D012F5F3F4F318310
:102D700020838C93268137812F5F3F4F37832683B3
:102D800014C08B01EC01FB010084F185E02D099555
:102D9000892BE1F6D80116968D919C911797019693
:102DA00017969C938E931697CE01DF91CF911F912A
:102DB0000F910895FA01AA27283051F1203181F1AD
:102DC000E8946F936E7F6E5F7F4F8F4F9F4FAF4F33
:102DD000B1E03ED0B4E03CD0670F781F891F9A1F46
:102DE000A11D680F791F8A1F911DA11D6A0F711DFA
:102DF000811D911DA11D20D009F468943F912AE006
:102E0000269F11243019305D3193DEF6CF010895ED
:102E1000462F4770405D4193B3E00FD0C9F7F6CF1E
:102E2000462F4F70405D4A3318F0495D31FD4052E6
:102E3000419302D0A9F7EACFB4E0A695979587957C
:102E400077956795BA95C9F700976105710508955B
:102E50009B01AC010A2E0694579547953795279507
:102E6000BA95C9F7620F731F841F951FA01D08959F
:102E700010E0CDE7D0E004C0FE010E94751321965A
:0A2E8000CE37D107C9F7F894FFCF51
:102E8A000100000E048000000000003B01A800D2EF
:102E9A000088010301E100F50000000000E906A82E
:102EAA0000C002BF020000000090026302C002B428
:102EBA00015B0247023802000000003109A800C085
:102ECA0002BF023109310931090000000002044839
:102EDA0003C002B401CC011D03B5014455434F4957
:102EEA0044002530325800556E6971756549443A77
:0A2EFA00200030000D0A002C00003B
:107800000C94343C0C94513C0C94513C0C94513CE1
:107810000C94513C0C94513C0C94513C0C94513CB4
:107820000C94513C0C94513C0C94513C0C94513CA4
:107830000C94513C0C94513C0C94513C0C94513C94
:107840000C94513C0C94513C0C94513C0C94513C84
:107850000C94513C0C94513C0C94513C0C94513C74
:107860000C94513C0C94513C11241FBECFEFD8E036
:10787000DEBFCDBF11E0A0E0B1E0ECE9FFE702C060
:1078800005900D92A230B107D9F712E0A2E0B1E065
:1078900001C01D92AD30B107E1F70E942D3D0C945F
:1078A000CC3F0C94003C982F959595959595959582
:1078B000905D8F708A307CF0282F295A8091C0000B
:1078C00085FFFCCF9093C6008091C00085FFFCCF60
:1078D0002093C6000895282F205DF0CF982F809127
:1078E000C00085FFFCCF9093C6000895EF92FF92F1
:1078F0000F931F93EE24FF2487018091C00087FD22
:1079000017C00894E11CF11C011D111D81E4E8164B
:1079100082E4F8068FE0080780E0180770F3E09132
:107920000401F091050109958091C00087FFE9CF1E
:107930008091C6001F910F91FF90EF9008950E94D3
:10794000763C982F8091C00085FFFCCF9093C600B5
:1079500091362CF490330CF09053892F089597555D
:10796000892F08951F930E949F3C182F0E949F3CCF
:107970001295107F810F1F9108951F93182F882350
:1079800021F00E94763C1150E1F71F9108951F935A
:10799000182F0E94763C803249F0809103018F5F5E
:1079A000809303018530C1F01F9108958091C0003C
:1079B00085FFFCCF84E18093C6008091C00085FFE5
:1079C000FCCF1093C6008091C00085FFFCCF80E102
:1079D0008093C6001F910895E0910401F091050184
:1079E00009951F9108950E94763C803241F0809164
:1079F00003018F5F80930301853081F008958091AA
:107A0000C00085FFFCCF84E18093C6008091C00058
:107A100085FFFCCF80E18093C6000895E0910401CA
:107A2000F09105010995089540E951E08823A1F0FE
:107A30002D9A28EE33E0FA013197F1F721503040CA
:107A4000D1F72D9828EE33E0FA013197F1F7215064
:107A50003040D1F7815061F708953F924F925F9285
:107A60006F927F928F929F92AF92BF92CF92DF924E
:107A7000EF92FF920F931F93CF93DF93000080E16B
:107A80008093C4001092C50088E18093C10086E015
:107A90008093C2005098589A259A81E00E94143D24
:107AA00024E1F22E9EE1E92E85E9D82E0FE0C02ECA
:107AB00010E1B12EAA24A394B1E49B2EA6E58A2E50
:107AC000F2E57F2EE0E26E2E79E4572E63E5462E36
:107AD00050E5352E0E94763C8033B1F18133B9F107
:107AE000803409F46FC0813409F476C0823409F41B
:107AF00085C0853409F488C0803531F1823521F1A3
:107B0000813511F1853509F485C0863509F48DC0BC
:107B1000843609F496C0843709F403C1853709F423
:107B200072C1863709F466C0809103018F5F80932C
:107B30000301853079F6E0910401F0910501099582
:107B40000E94763C803351F60E94F33CC3CF0E94E2
:107B5000763C803249F78091C00085FFFCCFF092DF
:107B6000C6008091C00085FFFCCF9092C600809136
:107B7000C00085FFFCCF8092C6008091C00085FFC9
:107B8000FCCF7092C6008091C00085FFFCCF609250
:107B9000C6008091C00085FFFCCF5092C600809146
:107BA000C00085FFFCCF4092C6008091C00085FFD9
:107BB000FCCF3092C6008091C00085FFFCCFB09210
:107BC000C60088CF0E94763C863808F4BDCF0E945C
:107BD000763C0E94F33C7ECF0E94763C803809F4CC
:107BE0009CC0813809F40BC1823809F43CC1883942
:107BF00009F48FC080E00E94C73C6CCF84E10E94F2
:107C0000BD3C0E94F33C66CF85E00E94BD3C0E94D3
:107C1000F33C60CF0E94763C809306010E94763C44
:107C2000809307010E94F33C55CF0E94763C80333D
:107C300009F41DC183E00E94BD3C80E00E94C73C66
:107C400049CF0E94763C809309020E94763C809343
:107C5000080280910C028E7F80930C020E94763C79
:107C6000853409F415C18091080290910902892B8D
:107C700089F000E010E00E94763CF801E85FFE4FDA
:107C800080830F5F1F4F80910802909109020817AF
:107C9000190788F30E94763C803209F045CF809125
:107CA0000C0280FF01C16091060170910701660F0F
:107CB000771F7093070160930601A0910802B091AD
:107CC00009021097C9F0E8E0F1E09B01AD014E0F09
:107CD0005F1FF999FECF32BD21BD819180BDFA9A17
:107CE000F99A2F5F3F4FE417F50799F76A0F7B1F4B
:107CF00070930701609306018091C00085FFFCCF5F
:107D0000F092C6008091C00085FFFCCFB092C60003
:107D1000E1CE83E00E94C73CDDCE82E00E94C73CFA
:107D2000D9CE0E94763C809309020E94763C8093D3
:107D300008028091060190910701880F991F909386
:107D40000701809306010E94763C853409F4A6C0A1
:107D500080910C028E7F80930C020E94763C8032D0
:107D600009F0B8CE8091C00085FFFCCFF092C6002C
:107D7000609108027091090261157105B9F140E046
:107D800050E080910C02A82FA170B82FB27011C0E2
:107D9000BB2309F45CC0E0910601F0910701319624
:107DA000F0930701E09306014F5F5F4F46175707B7
:107DB000E8F4AA2369F3F999FECF209106013091E6
:107DC000070132BD21BDF89A90B58091C00085FFB2
:107DD000FCCF9093C6002F5F3F4F30930701209355
:107DE00006014F5F5F4F4617570718F38091C00099
:107DF00085FDE5CE8091C00085FFF8CFE0CE81E023
:107E00000E94C73C67CE0E94763C803209F08CCE3F
:107E10008091C00085FFFCCFF092C6008091C00029
:107E200085FFFCCFE092C6008091C00085FFFCCFAB
:107E3000D092C6008091C00085FFFCCFC092C600E2
:107E40008091C00085FFFCCFB092C60043CEE09188
:107E50000601F091070194918091C00085FFFCCF4D
:107E60009093C6009CCF80E10E94C73C33CE0E9415
:107E7000763C0E94763C182F0E94763C112309F430
:107E800083C0113009F484C08FE00E94C73C22CE29
:107E900080910C02816080930C02E5CE80910C02EF
:107EA000816080930C0259CF809107018823880F4D
:107EB000880B8A2180930B02809106019091070123
:107EC000880F991F90930701809306018091080203
:107ED00080FF09C080910802909109020196909359
:107EE000090280930802F894F999FECF1127E091D6
:107EF0000601F0910701C8E0D1E08091080290915D
:107F00000902103091F40091570001700130D9F34B
:107F100003E000935700E89500915700017001308D
:107F2000D9F301E100935700E89509901990009169
:107F3000570001700130D9F301E000935700E89534
:107F40001395103498F011270091570001700130FB
:107F5000D9F305E000935700E895009157000170B0
:107F60000130D9F301E100935700E895329602976A
:107F700009F0C7CF103011F00296E5CF112480919F
:107F8000C00085FFB9CEBCCE8EE10E94C73CA2CD19
:0C7F900085E90E94C73C9ECDF894FFCF0D
:027F9C00800063
:040000030000780081
:00000001FF
