:100000000C947E000C94A6000C94A6000C94A60000
:100010000C94A6000C94A6000C94A6000C94A600C8
:100020000C94A6000C94A6000C94A6000C94A600B8
:100030000C94A6000C94A6000C94A6000C94A600A8
:100040000C94620A0C94A6000C9487040C9461042E
:100050000C94A6000C94A6000C94A6000C94A60088
:100060000C94F5060C94A6009979825AA1EBD96EEE
:10007000DCBC1B8FD6C162CA5769726520416464BB
:10008000726573733A20000123456789ABCDEFFE9B
:10009000DCBA9876543210F0E1D2C34A6F62204441
:1000A0006F6E65203A200000000000240027002A1F
:1000B0000000000000250028002B000404040404B4
:1000C0000404040202020202020303030303030105
:1000D00002040810204080010204081020010204DC
:1000E00008102000000008000201000003040700BF
:1000F00000000000000000005A0FDC0A11241FBE9F
:10010000CFEFD8E0DEBFCDBF11E0A0E0B1E0E6EF79
:10011000FCE202C005900D92AA37B107D9F724E09E
:10012000AAE7B1E001C01D92AE30B207E1F710E0DE
:10013000CDE7D0E004C02197FE010E94AB12CC377E
:10014000D107C9F70E94F20A0C946E160C940000B5
:10015000CF92DF92EF92FF920F931F93CF93DF9393
:100160006C017A018B01C0E0D0E0CE15DF0581F093
:10017000D8016D918D01D601ED91FC910190F08136
:10018000E02DC6010995892B11F02196EECF7E0155
:10019000C701DF91CF911F910F91FF90EF90DF90FA
:1001A000CF900895FC01538D448D252F30E0842F8E
:1001B00090E0821B930B541710F0CF96089501978F
:1001C0000895FC01918D828D981761F0828DDF0179
:1001D000A80FB11D5D968C91928D9F5F9F77928F36
:1001E00090E008958FEF9FEF0895FC01918D828D2F
:1001F000981731F0828DE80FF11D858D90E00895FC
:100200008FEF9FEF0895FC01918D228D892F90E053
:1002100080589F4F821B91098F779927089585E316
:1002200092E00E94030121E0892B09F420E0822F53
:100230000895FC01848DDF01A80FB11DA356BF4FA7
:100240002C91848D90E001968F739927848FA689D5
:10025000B7892C93A089B1898C91837080648C9329
:10026000938D848D981306C00288F389E02D8081D8
:100270008F7D80830895EF92FF920F931F93CF930A
:10028000DF93EC0181E0888F9B8D8C8D981305C0E6
:10029000E889F989808185FD26C0F62E0B8D10E056
:1002A0000F5F1F4F0F731127E02E8C8DE8120CC0CB
:1002B0000FB607FCFACFE889F989808185FFF5CF71
:1002C000CE010E941901F1CF8B8DFE01E80FF11DC7
:1002D000E356FF4FF0829FB7F8940B8FEA89FB89B2
:1002E000808180620AC09FB7F894EE89FF8960839D
:1002F000E889F98980818370806480839FBF81E071
:1003000090E0DF91CF911F910F91FF90EF900895B2
:10031000CF93DF93EC01888D8823C9F0EA89FB89AC
:10032000808185FD05C0A889B9898C9186FD0FC0A3
:100330000FB607FCF5CF808185FFF2CFA889B98978
:100340008C9185FFEDCFCE010E941901E7CFDF919F
:10035000CF91089580E090E0892B29F00E940F0151
:1003600081110C94000008950895DC0150962D91A0
:100370003C915197232B69F01C96ED91FC911D97B0
:10038000309711F0808101C080E0082E000C990B9D
:1003900008958FEF9FEF0895FC018089918908955A
:1003A00085ED8093BC008091BC0084FDFCCF109251
:1003B000300208954091BD01262F30E0240F311DF9
:1003C00021323105DCF4209130022430C9F4FC01E3
:1003D00080E090E0861758F43091BD012191DC0156
:1003E000A356BE4FA30FB11D2C930196F3CF80915E
:1003F000BD01680F6093BD0180E0089581E008951C
:1004000082E00895E0912702F0912802309729F0C8
:10041000109232021092310209940895CF93DF9323
:10042000AC01E0912502F09126023097F1F0909115
:100430003402809133029817C0F090E0292F30E009
:100440002617370754F4D901A358BE4FEA01C20F4B
:10045000D31F28812C939F5FF1CF109234026093B9
:100460003302CB01DF91CF910994DF91CF910895B1
:10047000E091340280913302E81730F4F0E0E35861
:10048000FE4F808190E008958FEF9FEF0895909147
:10049000340280913302981750F4E92FF0E0E358CA
:1004A000FE4F208130E09F5F9093340202C02FEF17
:1004B0003FEFC90108958091330290E0209134020A
:1004C000821B91090895CF92DF92EF92FF920F93D2
:1004D0001F93CF93DF937C01CB018A01209104020B
:1004E000222389F0EB016B01C40ED51ECC15DD056E
:1004F00069F06991D701ED91FC910190F081E02DB7
:10050000C7010995F3CF642F0E94DA01C801DF917A
:10051000CF911F910F91FF90EF90DF90CF900895B2
:10052000CF93DF931F92CDB7DEB76983209104028A
:100530002223D1F020913102203240F021E030E03E
:10054000FC013383228380E090E015C08091320269
:10055000E82FF0E0EB5FFD4F998190838F5F8093F0
:1005600032028093310205C061E0CE0101960E9403
:10057000DA0181E090E00F90DF91CF910895089526
:1005800080E090E008950F931F93CF93DF93EC01E9
:1005900088819981009729F02A813B8126173707A6
:1005A00088F48B016F5F7F4F0E94B112009761F05A
:1005B000998388831B830A832C813D81232B11F42B
:1005C000FC01108281E001C080E0DF91CF911F919A
:1005D0000F910895CF93DF93EC0188819981009763
:1005E00011F00E94B810198218821D821C821B8291
:1005F0001A82DF91CF910895EF92FF920F931F938C
:10060000CF93DF93EC017B018A01BA010E94C30200
:10061000811104C0CE010E94EA0207C01D830C8331
:10062000B701888199810E94A513CE01DF91CF91F6
:100630001F910F91FF90EF9008951F93CF93DF9339
:10064000EC014889598941155105E1F08C859D855A
:10065000009719F0FC01108101C010E041505109D0
:10066000598B488BBC016F5F7F4F0E94AC13EC85A8
:10067000FD8588899989E80FF91F1082812F110F54
:10068000990B02C08FEF9FEFDF91CF911F910895DB
:100690008091ED039091EE03892B29F08DED93E08D
:1006A0000E941D0301C08AE0682F81ED93E00C9445
:1006B0009002EF92FF920F931F93CF93DF93411518
:1006C000510519F480E090E028C061157105D1F35F
:1006D0008A017B01EC01688979896F5F7F4F640F24
:1006E000751F0C960E94C302882361F32C853D85FB
:1006F00088899989A801B701820F931F0E949113DD
:1007000088899989800F911F998B888B2C853D85CD
:10071000F901E80FF91F1082C801DF91CF911F91F5
:100720000F91FF90EF900895EF92FF920F931F9318
:10073000CF93DF936115710511F480E01CC0411562
:100740005105C1F07B01EC018C819D818A01080F6C
:10075000191FB801CE010E94C302882371F32881BA
:1007600039818C819D81B701820F931F0E94A5134F
:100770001D830C8381E0DF91CF911F910F91FF903A
:10078000EF900895CF93DF93EC016115710561F04F
:10079000FB0101900020E9F73197AF01461B570B91
:1007A0000E949403811103C0CE010E94EA02CE018F
:1007B000DF91CF910895CF93DF93EC01FB0144814A
:1007C0005581608171810E949403811103C0CE0123
:1007D0000E94EA02CE01DF91CF910895CF93DF937B
:1007E00000D0CDB7DEB769831A8241E050E0BE0188
:1007F0006F5F7F4F0C960E94940390E00F900F90D4
:10080000DF91CF910895892B81F0909133028091EF
:100810003402981751F081ED93E00E944702682F4F
:100820008FEE93E00E94EE03F0CF0895CF93DF9315
:10083000EC016115710559F0FB0101900020E9F709
:100840003197AF01461B570B0E94FC0202C00E9469
:10085000EA02CE01DF91CF910895FC018081918160
:100860000C94B810FB01DC0111961C921E92139699
:100870001C921E92129715961C921E921497861720
:10088000970749F0608171816115710521F04481FC
:1008900055810C94FC020895FC0111821082138290
:1008A0001282158214826115710551F0FB010190CD
:1008B0000020E9F73197AF01461B570B0C94FC025F
:1008C00008951F920F920FB60F9211242F933F930A
:1008D0004F935F936F937F938F939F93AF93BF9348
:1008E000EF93FF9385E392E00E941901FF91EF914E
:1008F000BF91AF919F918F917F916F915F914F9138
:100900003F912F910F900FBE0F901F9018951F923F
:100910000F920FB60F9211242F938F939F93EF9303
:10092000FF93E0914502F09146028081E0914B02F5
:10093000F0914C0282FD12C0908180914E028F5F37
:100940008F7720914F02821751F0E0914E02F0E034
:10095000EB5CFD4F958F80934E0201C08081FF912B
:10096000EF919F918F912F910F900FBE0F901F903D
:1009700018952F923F924F925F926F927F928F9233
:100980009F92AF92BF92CF92DF92EF92FF920F931E
:100990001F93CF93DF93CDB7DEB7A6970FB6F8942A
:1009A000DEBF0FBECDBF9AA389A39C012C5A3F4F37
:1009B000D9018C91E9A1FAA1E80FF11D648B8F5F39
:1009C0008C93803409F0CAC1E9A1FAA174964081E0
:1009D000818190E0A0E0B0E0DC0199278827B42B6A
:1009E0004381842B4281942B81939193A193B19362
:1009F0002E173F0761F7A9A1BAA14D905D906D90A8
:100A00007C9013974D865E866F86788A14964D90FB
:100A10005D906D907C901797498A5A8A6B8A7C8A80
:100A200018964D905D906D907C901B974D8A5E8AD4
:100A30006F8A788E1C964D905D906D907C901F977C
:100A4000498E5A8E6B8E7C8E50964D905D906D9037
:100A50007C9053974D8E5E8E6F8E78A2C988DA880F
:100A6000EB88FC88098D1A8D2B8D3C8D4D885E8816
:100A70006F88788C49825A826B827C828D8C9E8CA6
:100A8000AF8CB8A04D855E856F8578894D835E8378
:100A90006F8378876EEF262E33243A9440E0842FBC
:100AA00064E10E940B1254E0859FF0011124E85983
:100AB000FF4F65917591859194916BA37CA38DA354
:100AC0009EA3642F6F70E9A1FAA174E0679FE00D07
:100AD000F11D11244D805E806F8078847BE17694D7
:100AE0006794579447947A95D1F78D819E81AF8111
:100AF000B88555E0880F991FAA1FBB1F5A95D1F7DB
:100B0000482A592A6A2A7B2A6BA17CA18DA19EA121
:100B1000460E571E681E791E84899589A689B78955
:100B2000840D951DA61DB71D880E991EAA1EBB1EFD
:100B3000443188F489819A81AB81BC8180279127D7
:100B4000A227B3278C219D21AE21BF218027912789
:100B5000A227B3272BC04832D8F04C33C8F4898180
:100B60009A81AB81BC81802B912BA22BB32B8C2142
:100B70009D21AE21BF2149805A806B807C8040221C
:100B800051226222732284299529A629B7290EC0F1
:100B9000D901C8018C259D25AE25BF2549805A80E5
:100BA0006B807C8084259525A625B725880D991D09
:100BB000AA1DBB1D4601570152E0B694A794979415
:100BC00087945A95D1F7260137016EE1440C551CE4
:100BD000661C771C6A95D1F7482859286A287B2813
:100BE0004F5F403509F470C0403108F457C0642F9E
:100BF0006F70A9A0BAA054E0659FA00CB11C11248D
:100C0000B501F101EF70FF273596EE0FFF1FEE0FD4
:100C1000FF1FA9A0BAA0EA0DFB1D80809180A280D1
:100C2000B380FB01C488D588E688F788C824D92416
:100C3000EA24FB24F1013597EF70FF273596EE0F7C
:100C4000FF1FEE0FFF1FA9A0BAA0EA0DFB1D8080B9
:100C50009180A280B380C824D924EA24FB24F10126
:100C60003B97EF70FF273596EE0FFF1FEE0FFF1F2C
:100C7000A9A0BAA0EA0DFB1D80809180A280B3805C
:100C8000C824D924EA24FB24CC0CDD1CEE1CFF1C58
:100C9000C11CFB01C48AD58AE68AF78AFFEF2F1AA6
:100CA0003F0ACD80DE80EF80F88448015901098138
:100CB0001A812B813C8149825A826B827C828D838E
:100CC0009E83AF83B887EBCE4D855E856F8578892F
:100CD000840F951FA61FB71FE9A1FAA180839183F6
:100CE000A283B38389899A89AB89BC894D815E814E
:100CF0006F817885840F951FA61FB71F8483958306
:100D0000A683B7834D895E896F89788D440E551E01
:100D1000661E771E4086518662867386898D9A8DFF
:100D2000AB8DBC8D49805A806B807C80840D951D75
:100D3000A61DB71D84879587A687B7874D8C5E8CC7
:100D40006F8C78A0040D151D261D371DDF01008B4B
:100D5000118B228B338BAC5ABF4F1C92A6960FB6C9
:100D6000F894DEBF0FBECDBFDF91CF911F910F91E1
:100D7000FF90EF90DF90CF90BF90AF909F908F90BB
:100D80007F906F905F904F903F902F900895CF93FA
:100D9000DF93FC01EF59FF4F208121111EC0B62FB8
:100DA000EC013897208131814281538164817581C2
:100DB00086819781A1E00E948B1220833183428338
:100DC000538364837583868397836B2FCE01049648
:100DD0000E94B90481E090E005C081E090E06F3F9F
:100DE00009F080E0DF91CF9108951F920F920FB626
:100DF0000F9211242F933F934F935F936F937F93A1
:100E00008F939F93AF93BF93EF93FF938091B9001C
:100E1000887F803609F49CC068F5883209F45BC08D
:100E200090F4803109F454C038F4882309F4F6C0F2
:100E3000883009F44DC0F6C0883109F44CC08032C6
:100E400009F45DC0EFC0803409F468C048F4803311
:100E500009F455C0883309F0E5C080930302D8C077
:100E6000803509F44FC0883509F45DC0883409F035
:100E7000D9C0D6C0883909F4C7C0A8F4883709F4A6
:100E800067C038F4883609F463C0803709F460C05D
:100E9000C9C0883809F4B8C0803909F45FC0803807
:100EA00009F0C0C05BC0803B09F486C038F4803ACA
:100EB00009F466C0883A09F47FC0B4C0803C09F4E4
:100EC000A7C0883C09F4A4C0883B09F48AC0AAC022
:100ED0008091E00110C09091020280910102981768
:100EE00070F5E091020281E08E0F80930202F0E043
:100EF000EF51FE4F80818093BB0085EC86C08093CC
:100F000003028EC0E091020281E08E0F8093020204
:100F10008091BB00F0E0EF51FE4F80839091020280
:100F2000809101026EC0E091020281E08E0F8093F9
:100F300002028091BB00F0E0EF51FE4F8083809170
:100F40002F0281116DC081E080932E0284EA61C07E
:100F500083E0809330021092DF01CFCF8091DF01D8
:100F6000803208F051C0E091DF0181E08E0F809364
:100F7000DF018091BB00F0E0E154FE4F8083BDCFE4
:100F800085EC8093BC00109230028091DF018032AA
:100F900030F4E091DF01F0E0E154FE4F1082609107
:100FA000DF0170E0E0912A02F0912B028FEB91E0DB
:100FB00009951092DF0136C084E0809330021092D0
:100FC000BE011092BD01E0912C02F0912D02099515
:100FD0008091BD01811105C081E08093BD01109217
:100FE0009D01E091BE0181E08E0F8093BE01F0E093
:100FF000E356FE4F80818093BB009091BE018091AB
:10100000BD01981708F479CF85E88093BC000AC029
:1010100085EC8093BC001092300204C01092030251
:101020000E94D001FF91EF91BF91AF919F918F915D
:101030007F916F915F914F913F912F910F900FBED4
:101040000F901F901895AF92BF92CF92DF92EF92C0
:10105000FF920F931F93CF93DF93A0907C01809119
:101060007B018A25C0E0D0E0B12C0BE310E097E0D3
:10107000E92EF12C8170A82EC8010197F1F70E948A
:101080001C096C01C8010197F1F70E941C09AC0111
:1010900097012C1B3D0B982F022E01C0990F0A942B
:1010A000EAF731952195310927703327842F01C044
:1010B00086952A95EAF7292F282B8C2D0C2E01C016
:1010C000880F0A94EAF7662777276C1B7D0B6770F9
:1010D00077279C2D01C096956A95EAF7892B822780
:1010E000B826E0917C0190917B0160E070E0960170
:1010F000062E02C0359527950A94E2F72170DA0191
:10110000062E02C0B595A7950A94E2F7A1702A179A
:1011100071F0A11005C08E2F880FE827E22707C0C5
:10112000892F8695982727952227279592276F5FE5
:101130007F4F68307105D9F6E0937C0190937B0175
:101140002196C430D10509F097CF80917A01282FDC
:101150002295220F211D282782958F7082278B25AB
:1011600080937A019E278927DF91CF911F910F915C
:10117000FF90EF90DF90CF90BF90AF9008950E94C6
:1011800077132FB7F8948091060490910704A091EB
:101190000804B09109042FBF8093F7039093F803DC
:1011A000A093F903B093FA038FEE93E00E941D031E
:1011B00097FF26C02FB7F8948091060490910704FA
:1011C000A0910804B09109042FBF4091F7035091FA
:1011D000F8036091F9037091FA03841B950BA60B39
:1011E000B70B4091F3035091F4036091F5037091B4
:1011F000F60384179507A607B707B0F28FEF9FEFA6
:1012000008950F931F93CF93DF938C01C0E0D0E03C
:10121000F801EC0FFD1F6491662341F085E392E035
:101220000E943B01892B11F02196F2CFCE01DF9174
:10123000CF911F910F91089581E480937C0080915C
:101240007A00806480937A0080917A0086FDFCCFDA
:10125000809178002091790090E0922B089500977A
:1012600069F0FC0101900020E9F73197AF01481BBC
:10127000590BBC0185E392E00C94A80080E090E05B
:1012800008958F929F92AF92BF920F931F93CF9327
:10129000DF93CDB7DEB7A1970FB6F894DEBF0FBED0
:1012A000CDBF19A2423008F44AE08E010F5D1F4FF6
:1012B000842E912CA12CB12CA50194010E942B12FB
:1012C000E62FB901CA0101501109EA3014F4E05DBA
:1012D00001C0E95CD801EC93232B242B252B61F76B
:1012E000C8010E942F09A1960FB6F894DEBF0FBE69
:1012F000CDBFDF91CF911F910F91BF90AF909F9085
:101300008F90089590E0FC01ED51FF4F2491FC0176
:10131000E153FF4F3491FC01E554FF4FE491EE237C
:1013200009F43CC0222339F1233091F038F4213004
:10133000A9F0223001F584B58F7D12C0273091F0DD
:101340002830A1F02430B9F4809180008F7D03C053
:10135000809180008F77809380000DC084B58F7757
:1013600084BD09C08091B0008F7703C08091B00028
:101370008F7D8093B000F0E0EE0FFF1FEF54FF4F22
:10138000A591B4919FB7F894611104C08C913095E8
:10139000382302C0EC913E2B3C939FBF08951092DE
:1013A00034021092330210923202109231021092E3
:1013B000300281E080932F0210922E0261E082E1E0
:1013C0000E94820961E083E10E948209E9EBF0E07A
:1013D00080818E7F808380818D7F808388E480936D
:1013E000B80085E48093BC0082E092E090932D02E7
:1013F00080932C028EE092E090932B0280932A023D
:101400000895CF93DF9390E0FC01E153FF4F2491C7
:10141000FC01E554FF4F8491882361F190E0880F2F
:10142000991FFC01E955FF4FC591D491FC01EF5480
:10143000FF4FA591B491611109C09FB7F8948881BD
:10144000209582238883EC912E230BC0623061F4B7
:101450009FB7F8948881322F309583238883EC914D
:101460002E2B2C939FBF06C08FB7F894E8812E2BAC
:1014700028838FBFDF91CF9108953FB7F894809173
:10148000020490910304A0910404B091050426B5D0
:10149000A89B05C02F3F19F00196A11DB11D3FBFAC
:1014A000BA2FA92F982F8827820F911DA11DB11D3A
:1014B000BC01CD0142E0660F771F881F991F4A9536
:1014C000D1F708951F920F920FB60F9211242F9308
:1014D0003F938F939F93AF93BF9380910604909116
:1014E0000704A0910804B09109043091010423E09D
:1014F000230F2D3720F40196A11DB11D05C026E84C
:10150000230F0296A11DB11D2093010480930604B0
:1015100090930704A0930804B093090480910204F7
:1015200090910304A0910404B09105040196A11DBB
:10153000B11D8093020490930304A0930404B0931C
:101540000504BF91AF919F918F913F912F910F9083
:101550000FBE0F901F901895EF92FF920F931F935D
:10156000CF93DF9300D0CDB7DEB78C01E62E6AE6CD
:1015700071E00E944C040E94C1080E2C000CFF0870
:1015800097FD10C08E159F0569F089831A8241E08E
:1015900050E0BE016F5F7F4FC8010E9494030E941C
:1015A000C108EECFC8010F900F90DF91CF911F912E
:1015B0000F91FF90EF900895CF93DF93CDE4D1E0AA
:1015C000D093DE03C093DD0389EE93E00E942D04E7
:1015D000D093F003C093EF038BEF93E0DF91CF91B3
:1015E0000C942D04CF93DF93CDB7DEB7C354D1094C
:1015F0000FB6F894DEBF0FBECDBF789484B582607D
:1016000084BD84B5816084BD85B5826085BD85B5A6
:10161000816085BD80916E00816080936E00109224
:10162000810080918100826080938100809181009F
:101630008160809381008091800081608093800030
:101640008091B10084608093B1008091B00081608E
:101650008093B00080917A00846080937A008091BA
:101660007A00826080937A0080917A008160809312
:101670007A0080917A00806880937A001092C1008D
:10168000E0914502F091460282E08083E0914102C0
:10169000F09142021082E0914302F091440280E115
:1016A000808310924D02E0914902F0914A0286E057
:1016B0008083E0914702F0914802808180618083BD
:1016C000E0914702F0914802808188608083E09138
:1016D0004702F0914802808180688083E091470250
:1016E000F091480280818F7D80838BE591E00E949C
:1016F0002F098BE1282E83E0382E03E113E07801D7
:10170000D8018C91803120F486E691E00E942F0967
:101710000F5F1F4FF701608170E080E090E040E1D3
:101720000E94410984E691E00E942F0920163106AB
:1017300031F788E691E00E942F0962E083E10E9480
:10174000010A62E082E10E94010A0E942308182F28
:101750000E94230848EE53E0149F9001159F300D1E
:101760001124A901480F511DCA01423051053CF016
:10177000880F991F880F991F05970197F1F70E940D
:10178000CF0981E090E031E062E07FEFE5EEF5EC3B
:10179000A82F3093040280932902109232021092F3
:1017A0003102209130022111FCCF6093300230933E
:1017B0002F02709303021092020210920102109203
:1017C000E001B091E001AC01440F551F4B2B409359
:1017D000E00140912E02413069F410922E024091B6
:1017E000E0014093BB004091BC0043FDF8CFF09373
:1017F000BC0002C0E093BC00409130024230E1F3F3
:10180000409103024F3F69F020910302203231F0F2
:1018100020910302203321F024E003C022E001C024
:1018200023E010923202109231021092040222231D
:1018300019F0A093000105C001968F37910509F0BA
:10184000A7CF8091BC008A7B8093BC0060E082E1DE
:101850000E94820960E083E10E94820910910001E8
:101860000E94CF09110F1093BA0083E094E0909387
:1018700026028093250288E493E0909328028093C7
:10188000270288E790E00E9401096091000170E062
:1018900080E090E04AE00E94410988E691E00E94E1
:1018A0002F0961E08DE00E94010A60E08DE00E9456
:1018B0008209CE0101967C018091FF039091000482
:1018C000181619060CF0F3C20091FB031091FC03EB
:1018D0006AE070E0C8010E949A13009709F4E7C219
:1018E000801B910B019609F4E2C26CE2CE01CA960C
:1018F0000E94AC0A6CE2CE01C4960E94AC0A6AE077
:10190000C7010E94AC0A89819A81009729F00E9440
:1019100041112B013C0103C0412C512C3201C70164
:101920000E942D040E943D0A4B015C01BFE84B164A
:10193000B2E05B0608F0E2C18201BE016C5C7F4F41
:10194000CE018E960E943204BE01665C7F4FCE01AE
:1019500088960E9432044DB65EB6CEA4DFA4C114B0
:10196000D10469F0F6018081882349F0082E000C2B
:10197000990B0E947C13D6018D936D01F3CFCEA4F9
:10198000DFA48AA99BA996958795782E9927019619
:10199000EDB7FEB7E81BF90B0FB6F894FEBF0FBE0C
:1019A000EDBF2DB73EB72F5F3F4F22963FAF2EAF13
:1019B0002297F90140E0842F880F471510F5960112
:1019C000280F311DD9018C918F71082E000C990BB5
:1019D000099669E170E00E941712682ED9011196EC
:1019E0008C918F71082E000C990B099669E170E0BB
:1019F0000E941712B0E16B9E800D112481934F5FFE
:101A0000DACF0039E2E01E070CF066C184E6809F61
:101A10009001819F300D112424963FAF2EAF249763
:101A2000C12CD12C11E024964EAD5FAD24974C15FE
:101A30005D050CF451C187E890E02FE1622E23E0B0
:101A4000722ED301FC0145915591659174914D938E
:101A50005D936D937D93049653E0A333B50791F79F
:101A60001092730310927403109275031092760310
:101A700010927703109278031092790310927A03F0
:101A800010927B0310927C031BA21AA21DA21CA21F
:101A90001FA21EA24AE0B701C6010E946811B70149
:101AA000CE0182960E941604BE01685D7F4FC70179
:101AB0000E943204BE016E5D7F4FC7010E94DB03AE
:101AC000DC0114964D915C9115976D917C918BE1A1
:101AD00093E00E94A800C7010E942D04CE018296C7
:101AE0000E942D0410937C0360E88FE193E00E9434
:101AF000B90480917303883311F060E0F6CF209130
:101B0000740330917503409176035091770360918F
:101B100078037091790380917A0390917B0303E0BD
:101B20000E94541208E30E946F12622F8FE193E02B
:101B30000E94B9042091740330917503409176039B
:101B400050917703609178037091790380917A03C3
:101B500090917B0303E00E94541200E30E946F12F5
:101B6000622F8FE193E00E94B904209174033091B9
:101B700075034091760350917703609178037091DB
:101B8000790380917A0390917B0303E00E945412C1
:101B900008E20E946F12622F8FE193E00E94B90465
:101BA000209174033091750340917603509177032F
:101BB000609178037091790380917A0390917B030F
:101BC00003E00E94541200E20E946F12622F8FE124
:101BD00093E00E94B9042091740330917503409101
:101BE0007603509177036091780370917903809127
:101BF0007A0390917B0303E00E94541208E10E9453
:101C00006F12622F8FE193E00E94B9042091740358
:101C1000309175034091760350917703609178037A
:101C20007091790380917A0390917B0303E00E9485
:101C3000541200E10E946F12622F8FE193E00E9424
:101C4000B90420917403309175034091760350914B
:101C50007703609178037091790380917A03909172
:101C60007B0303E00E94541208E00E946F12622F6F
:101C70008FE193E00E94B90460917403660F660FD0
:101C8000660F8FE193E00E94B904F30160817181D6
:101C9000828193810E944D12D3016D937D938D9328
:101CA0009D933D01E3E3F3E0EA17FB0771F744E19D
:101CB00050E022966EAD7FAD22978FE193E00E94B7
:101CC0008413892B29F4C601DD0CAA0BBB0B07C0BA
:101CD000FFEFCF1ADF0AA7CE80E090E0DC010FB65D
:101CE000F8945EBE0FBE4DBE6C01CE0188960E9478
:101CF0002D04CE018E960E942D0402C0C12CD12C41
:101D00000E943D0A9B01AC01281939094A095B0967
:101D100049015A016BE671E0CE018E960E944C0497
:101D200003E113E0D8018D918D011F928F93E2E7BB
:101D3000F1E0FF93EF93FF92EF920E94BB13F70144
:101D400001900020E9F73197AF014E195F09B70103
:101D5000CE018E960E9494030F900F900F900F90DB
:101D60000F900F9020163106E9F619A618A61BA6AB
:101D70001AA61DA61CA62AE0A701C501B4010E944F
:101D80008811B701CE0188960E9416041BA21AA2E0
:101D90001DA21CA21FA21EA24AE0B701C6010E94FA
:101DA000AA11B701CE0182960E941604BE016E5D93
:101DB0007F4FC7010E94320467E771E0C7010E94AC
:101DC000C203BE01685D7F4F0E94DB0367E771E0DD
:101DD0000E94C203BE01625D7F4F0E94DB0369E681
:101DE00071E00E94C203DC0114964D915C9115973D
:101DF0006D917C918DED93E00E945903C7010E9483
:101E00002D04CE0182960E942D04CE0188960E9458
:101E10002D04CE018E960E942D04CE01C4960E9400
:101E20002D04CE01CA960E942D048BE990E00E94F9
:101E3000010969EE73E0C7010E9432044D815E81A1
:101E400069817A8185E392E00E94A800C7010E941F
:101E50002D0461E08DE00E9482090E943D0A4B0141
:101E60005C0184E6482E512C612C712C0E943D0AA5
:101E7000DC01CB0188199909AA09BB09883E934066
:101E8000A105B10598F3B1E04B1A5108610871083A
:101E9000E8EE8E0EE3E09E1EA11CB11C411451041D
:101EA0006104710419F760E08DE00E9482090E94CC
:101EB000AA0102CDCF92DF92EF92FF920F931F9370
:101EC000CF93DF93109238021092370288EE93E09E
:101ED000A0E0B0E08093390290933A02A0933B02D5
:101EE000B0933C028BE091E09093360280933502F0
:101EF00085EC90E0909342028093410284EC90E064
:101F0000909344028093430280EC90E090934602C9
:101F10008093450281EC90E09093480280934702C1
:101F200082EC90E090934A028093490286EC90E024
:101F300090934C0280934B0210924E0210924F02EB
:101F40001092500210925102A2E1B3E080E090E0C2
:101F500041E2E1E0F0E08630910510F4E0E0F0E0ED
:101F60009C01225F3F4FE20FF31F40935700E49123
:101F7000ED9301968930910561F710921E0310923E
:101F80001D038DE191E090931C0380931B0310923D
:101F9000D4031092D30388EEC82E83E0D82EE12C10
:101FA000F12CC092D503D092D603E092D703F092E1
:101FB000D80389E291E09093D2038093D1031092E9
:101FC000F2031092F1030BE311E01093F00300937E
:101FD000EF03C092F303D092F403E092F503F09282
:101FE000F6036AE671E08BEF93E00E944C04CDE4C7
:101FF000D1E0D093F003C093EF031092E00310926E
:10200000DF031093DE030093DD03C092E103D0925F
:10201000E203E092E303F092E4036AE671E089EE02
:1020200093E00E944C04D093DE03C093DD03DF9164
:10203000CF911F910F91FF90EF90DF90CF90089577
:102040000F931F93CF93DF938230910510F482E0BA
:1020500090E0E0910C04F0910D0420E030E0A0E06D
:10206000B0E0309719F14081518102811381481706
:102070005907C8F08417950769F4109731F0129644
:102080000C93129713961C9327C000930C04109383
:102090000D0422C02115310519F04217530718F419
:1020A0009A01BD01EF01DF01F801DBCF21153105F8
:1020B000F9F0281B390B2430310580F48A819B818B
:1020C0006115710521F0FB019383828304C0909315
:1020D0000D0480930C04FE01329644C0FE01E20F11
:1020E000F31F8193919322503109398328833AC099
:1020F00020910A0430910B04232B41F42091030119
:102100003091040130930B0420930A0420910101C3
:10211000309102012115310541F42DB73EB74091B0
:10212000050150910601241B350BE0910A04F09142
:102130000B04E217F307A0F42E1B3F0B28173907F7
:1021400078F0AC014E5F5F4F2417350748F04E0F13
:102150005F1F50930B0440930A048193919302C034
:10216000E0E0F0E0CF01DF91CF911F910F91089552
:10217000CF93DF93009709F481C0FC01329713825B
:102180001282A0910C04B0910D04109781F420816B
:102190003181820F931F20910A0430910B0428177C
:1021A000390751F5F0930B04E0930A0467C0ED0181
:1021B00020E030E0CE17DF0740F44A815B819E01CA
:1021C00041155105F1F0EA01F5CFD383C283408177
:1021D0005181840F951FC817D90759F488819981B7
:1021E000840F951F0296918380838A819B819383BC
:1021F00082832115310529F4F0930D04E0930C043A
:102200003DC0E901FB83EA8349915991C40FD51F71
:10221000EC17FD0761F480819181840F951F029670
:10222000E90199838883828193819B838A83E0E09B
:10223000F0E012968D919C911397009719F0FD0193
:10224000DC01F7CF8D919C9111979D012E5F3F4F3F
:10225000820F931F20910A0430910B04281739072D
:1022600069F4309729F410920D0410920C0402C006
:1022700013821282B0930B04A0930A04DF91CF91D2
:1022800008951F93FC0199278827BC01E8941191B8
:102290001032E9F3193010F01E30C8F31B3251F040
:1022A0001D3249F4689406C00E947311610F711DBC
:1022B000811D911D119110531A30B0F33EF4909589
:1022C0008095709561957F4F8F4F9F4F1F91089517
:1022D000BB274A3031F4992322F4BDE290958195D1
:1022E0009F4F0C94AB11592F482F372F262F660F75
:1022F000771F881F991F660F771F881F991F620F0E
:10230000731F841F951F660F771F881F991F0895DD
:10231000BB27FA01A62F6217710581059105330BC2
:1023200030FB66F0AA27660F771F881F991FAA1F28
:10233000A21710F0A21B63953850A9F7A05DAA332D
:1023400008F0A95DA19336F7B111B1931082CA01CB
:102350000C94C411BB27FB015527AA27880F991F8E
:10236000AA1FA41710F0A41B83955051B9F7A05DC4
:10237000AA3308F0A95DA193009779F7B111B19341
:102380001192CB010C94C411DC01FC01672F7191F7
:102390007723E1F7329704C07C916D93708362914B
:1023A000AE17BF07C8F308952F923F924F925F92E6
:1023B0006F927F928F929F92AF92BF92CF92DF9255
:1023C000EF92FF920F931F93CF93DF93CDB7DEB7BA
:1023D000CA1BDB0B0FB6F894DEBF0FBECDBF09944E
:1023E0002A88398848885F846E847D848C849B84A5
:1023F000AA84B984C884DF80EE80FD800C811B81B3
:10240000AA81B981CE0FD11D0FB6F894DEBF0FBEE1
:10241000CDBFED010895991B79E004C0991F96176F
:1024200008F0961B881F7A95C9F78095089597FB49
:10243000072E16F4009407D077FD09D00E9497125A
:1024400007FC05D03EF4909581959F4F08957095B7
:1024500061957F4F0895A1E21A2EAA1BBB1BFD01B7
:102460000DC0AA1FBB1FEE1FFF1FA217B307E40773
:10247000F50720F0A21BB30BE40BF50B661F771FCB
:10248000881F991F1A9469F76095709580959095AB
:102490009B01AC01BD01CF010895692796276927EB
:1024A00078278727782708950F93083090F0982F82
:1024B000872F762F652F542F432F322F2227085036
:1024C000F4CF220F331F441F551F661F771F881F2D
:1024D000991F0A95B2F70F91089597FB10F816947B
:1024E00000080F93083098F00850232F342F452F01
:1024F000562F672F782F892F902DF4CF059497951D
:1025000087957795679557954795379527950A95B8
:10251000AAF70F9108950024A7FD00942A0F301DFB
:10252000401D501D601D701D801D901D0895AA1B2B
:10253000BB1B51E107C0AA1FBB1FA617B70710F0AE
:10254000A61BB70B881F991F5A95A9F780959095E0
:10255000BC01CD010895EE0FFF1F0590F491E02D11
:102560000994A0E0B0E0E7EBF2E10C94D811EC01A3
:10257000009721F4CB010E942010B4C0FC01E60FAB
:10258000F71F9C0122503109E217F30708F4A8C095
:10259000D9010D911C91119706171707B0F005305E
:1025A000110508F49BC0C80104978617970708F423
:1025B00095C002501109061B170B019311936D93DF
:1025C0007C93CF010E94B81089C05B01A01AB10AA8
:1025D0004C01800E911EA0910C04B0910D04612C51
:1025E000712CE12CF12C109709F446C08D919C912F
:1025F0001197A815B905B1F56C0142E0C40ED11CC4
:10260000CA14DB0478F14C018A189B08640142E08B
:10261000C40ED11C1296BC9012971396AC91B5E0E3
:10262000CB16D10440F0B282A38391828082D9017B
:102630006D937C9309C00E5F1F4F800F911FF901AE
:1026400091838083EB2DFA2FE114F10431F0D7014F
:102650001396FC93EE93129741C0F0930D04E09310
:102660000C043CC06816790608F43C017D01129602
:102670000D90BC91A02DB7CF80910A0490910B04CE
:1026800088169906E1F466167706C8F48091010170
:1026900090910201009741F48DB79EB740910501DA
:1026A00050910601841B950BE817F907C8F4F093C5
:1026B0000B04E0930A04F901718360830FC0CB011E
:1026C0000E9420107C01009759F0A801BE010E94D1
:1026D0009113CE010E94B810C70104C0CE0102C000
:1026E00080E090E0CDB7DEB7EEE00C94F41181E02D
:1026F00090E0F8940C946E169111089581568A51C9
:1027000008F4805285580895FB01DC0104C08D91C6
:102710000190801921F441505040C8F7881B990B53
:102720000895FB01DC0102C001900D924150504020
:10273000D8F70895FC018191861721F08823D9F7F5
:10274000992708953197CF010895FB01DC0101908D
:102750000D920020E1F70895FB01DC01415050404B
:1027600048F001900D920020C9F701C01D92415020
:102770005040E0F70895AEE0B0E0E1ECF3E10C94F6
:10278000E2110D891E8986E08C831A8309838FEFFD
:102790009FE79E838D83AE01475E5F4F6F89788D83
:1027A000CE0101960E94DD13EF81F885E00FF11F45
:1027B00010822E96E4E00C94FE11ABE0B0E0E3EE64
:1027C000F3E10C94D4116C017B018A01FC011782A6
:1027D0001682838181FFCCC1CE0101963C01F601B6
:1027E0009381F70193FD859193FF81917F01882368
:1027F00009F4BAC1853239F493FD859193FF819133
:102800007F01853229F4B60190E00E94D415E7CF0C
:10281000912C212C312CFFE1F315D8F08B3279F07B
:1028200038F4803279F08332A1F4232D20611DC069
:102830008D3261F0803369F4232D216016C0832D21
:102840008260382EE32DE4603E2E2AC0F32DF8601E
:102850001DC037FC2DC020ED280F2A3040F08E32ED
:10286000B9F436FC81C1232D2064322E19C036FE06
:1028700006C08AE0989E200D1124922E11C0EAE035
:102880002E9E200D1124222EF32DF0623F2E08C023
:102890008C3621F4832D8068382E02C0883641F4AE
:1028A000F70193FD859193FF81917F018111B3CF52
:1028B000982F9F7D9554933028F40C5F1F4F9FE312
:1028C00099830DC0833631F0833771F0833509F079
:1028D00059C021C0F801808189830E5F1F4F882471
:1028E0008394912C530113C02801F2E04F0E511C28
:1028F000F801A080B18036FE03C0692D70E002C0EF
:102900006FEF7FEFC5010E94C9154C018201F32DC5
:10291000FF773F2E16C0280122E0420E511CF8011D
:10292000A080B18036FE03C0692D70E002C06FEF59
:102930007FEFC5010E94BE154C01F32DF0683F2EBC
:10294000820133FC1BC0822D90E088169906B0F4FA
:10295000B60180E290E00E94D4152A94F4CFF501EC
:1029600037FC859137FE81915F01B60190E00E94AE
:10297000D41521102A9421E0821A9108811491041F
:1029800071F7E8C0843611F0893641F5F80137FE59
:1029900007C060817181828193810C5F1F4F08C0E5
:1029A00060817181072E000C880B990B0E5F1F4F01
:1029B000F32DFF763F2E97FF09C090958095709577
:1029C00061957F4F8F4F9F4FF0683F2E2AE030E098
:1029D000A3010E941016882E861845C0853731F451
:1029E000232D2F7EB22E2AE030E025C0932D997F33
:1029F000B92E8F36C1F018F4883579F0B5C080371C
:102A000019F0883721F0B0C0E92FE061BE2EB4FE86
:102A10000DC0FB2DF460BF2E09C034FE0AC0292F63
:102A20002660B22E06C028E030E005C020E130E08C
:102A300002C020E132E0F801B7FE07C06081718179
:102A4000828193810C5F1F4F06C06081718180E09D
:102A500090E00E5F1F4FA3010E941016882E86186B
:102A6000FB2DFF773F2E36FE0DC0232D2E7FA22E8D
:102A7000891458F434FE0BC032FC09C0832D8E7EBD
:102A8000A82E05C0B82CA32C03C0B82C01C0B92CAB
:102A9000A4FE0FC0FE01E80DF11D8081803321F4FA
:102AA0009A2D997EA92E09C0A2FE06C0B394B394B4
:102AB00004C08A2D867809F0B394A3FC11C0A0FE4F
:102AC00006C0B21488F4280C922C9B180EC0B214C5
:102AD00060F4B60180E290E00E94D415B394F7CF81
:102AE000B21418F42B1802C0982C212CA4FE10C08C
:102AF000B60180E390E00E94D415A2FE17C0A1FCAD
:102B000003C088E790E002C088E590E0B6010CC001
:102B10008A2D867859F0A1FE02C08BE201C080E2C6
:102B2000A7FC8DE2B60190E00E94D415891438F418
:102B3000B60180E390E00E94D4159A94F7CF8A946E
:102B4000F301E80DF11D8081B60190E00E94D415DB
:102B50008110F5CF222009F442CEB60180E290E048
:102B60000E94D4152A94F6CFF6018681978102C07F
:102B70008FEF9FEF2B96E2E10C94F011FC01059092
:102B8000615070400110D8F7809590958E0F9F1F6F
:102B90000895FC016150704001900110D8F78095B4
:102BA00090958E0F9F1F08950F931F93CF93DF93E0
:102BB000FB01238121FD03C08FEF9FEF2CC022FF7B
:102BC00016C046815781248135814217530744F44A
:102BD000A081B1819D012F5F3F4F318320838C9372
:102BE000268137812F5F3F4F3783268314C08B01A7
:102BF000EC01FB010084F185E02D0995892BE1F6BC
:102C0000D80116968D919C911797019617969C93D3
:102C10008E931697CE01DF91CF911F910F9108955A
:102C2000FA01AA27283051F1203181F1E8946F93FD
:102C30006E7F6E5F7F4F8F4F9F4FAF4FB1E03ED0A3
:102C4000B4E03CD0670F781F891F9A1FA11D680F41
:102C5000791F8A1F911DA11D6A0F711D811D911D74
:102C6000A11D20D009F468943F912AE0269F1124E9
:102C70003019305D3193DEF6CF010895462F47704D
:102C8000405D4193B3E00FD0C9F7F6CF462F4F70A8
:102C9000405D4A3318F0495D31FD4052419302D006
:102CA000A9F7EACFB4E0A6959795879577956795AC
:102CB000BA95C9F700976105710508959B01AC01AC
:102CC0000A2E06945795479537952795BA95C9F7D3
:102CD000620F731F841F951FA01D089510E0CDE79C
:102CE000D0E004C0FE010E94AB122196CE37D1077E
:062CF000C9F7F894FFCFC4
:102CF6000100000E048000000000003B01A800D285
:102D06000088010301E100F50000000000C706A8E5
:102D160000C002BF020000000090026302C002B4BD
:102D2600015B024702380200000000BF08A800C08D
:102D360002BF02BF08BF08BF0800000000EE03592B
:102D460003C002B401CC011D03B501556E6971754E
:102D56006549443A200030000D0A004455434F4966
:0A2D6600440025303258002C000014
:00000001FF
