:100000000C946D000C9495000C9495000C94950044
:100010000C9495000C9495000C9495000C9495000C
:100020000C9495000C9495000C9495000C949500FC
:100030000C9495000C9495000C9495000C949500EC
:100040000C9449090C9495000C945A040C943404B3
:100050000C9495000C9495000C9495000C949500CC
:100060000C949B060C9495000123456789ABCDEF5A
:10007000FEDCBA9876543210F0E1D2C300000000E2
:1000800023002600290000000000240027002A0089
:1000900000000000250028002B00040404040404D0
:1000A0000404020202020202030303030303010227
:1000B00004081020408001020408102001020408F6
:1000C00010200000000800020100000304070000E7
:1000D000000000000000F40DC30911241FBECFEF83
:1000E000D8E0DEBFCDBF11E0A0E0B1E0EEE9F9E27B
:1000F00002C005900D92A439B107D9F724E0A4E914
:10010000B1E001C01D92A432B207E1F710E0CCE6E5
:10011000D0E004C02197FE010E94FF10CB36D1072A
:10012000C9F70E94D9090C94C2140C940000CF9214
:10013000DF92EF92FF920F931F93CF93DF936C01A7
:100140007A018B01C0E0D0E0CE15DF0581F0D80147
:100150006D918D01D601ED91FC910190F081E02D22
:10016000C6010995892B11F02196EECF7E01C701BA
:10017000DF91CF911F910F91FF90EF90DF90CF9083
:100180000895FC01538D448D252F30E0842F90E09D
:10019000821B930B541710F0CF9608950197089582
:1001A000FC01918D828D981761F0828DDF01A80F7F
:1001B000B11D5D968C91928D9F5F9F77928F90E09D
:1001C00008958FEF9FEF0895FC01918D828D981710
:1001D00031F0828DE80FF11D858D90E008958FEF4D
:1001E0009FEF0895FC01918D228D892F90E080581A
:1001F0009F4F821B91098F779927089584E592E09C
:100200000E94F20021E0892B09F420E0822F08955A
:10021000FC01848DDF01A80FB11DA356BF4F2C91A7
:10022000848D90E001968F739927848FA689B78972
:100230002C93A089B1898C91837080648C93938D69
:10024000848D981306C00288F389E02D80818F7D0C
:1002500080830895EF92FF920F931F93CF93DF93C4
:10026000EC0181E0888F9B8D8C8D981305C0E88907
:10027000F989808185FD26C0F62E0B8D10E00F5F79
:100280001F4F0F731127E02E8C8DE8120CC00FB694
:1002900007FCFACFE889F989808185FFF5CFCE0187
:1002A0000E940801F1CF8B8DFE01E80FF11DE3568E
:1002B000FF4FF0829FB7F8940B8FEA89FB8980810A
:1002C00080620AC09FB7F894EE89FF896083E8894D
:1002D000F98980818370806480839FBF81E090E092
:1002E000DF91CF911F910F91FF90EF900895CF93E1
:1002F000DF93EC01888D8823C9F0EA89FB8980812E
:1003000085FD05C0A889B9898C9186FD0FC00FB6FF
:1003100007FCF5CF808185FFF2CFA889B9898C9140
:1003200085FFEDCFCE010E940801E7CFDF91CF918D
:10033000089580E090E0892B29F00E94FE00811151
:100340000C94000008950895DC0150962D913C9185
:100350005197232B69F01C96ED91FC911D973097D6
:1003600011F0808101C080E0082E000C990B0895E7
:100370008FEF9FEF0895FC0180899189089585EDA5
:100380008093BC008091BC0084FDFCCF10924F0292
:1003900008954091D401262F30E0240F311D2132E1
:1003A0003105DCF420914F022430C9F4FC0180E0D7
:1003B00090E0861758F43091D4012191DC01AC54BF
:1003C000BE4FA30FB11D2C930196F3CF8091D401A2
:1003D000680F6093D40180E0089581E0089582E081
:1003E0000895E0913E02F0913F02309729F010927B
:1003F00051021092500209940895CF93DF93AC01FB
:10040000E0913C02F0913D023097F1F0909153025F
:10041000809152029817C0F090E0292F30E0261703
:10042000370754F4D901AC56BE4FEA01C20FD31FAF
:1004300028812C939F5FF1CF109253026093520258
:10044000CB01DF91CF910994DF91CF910895E09195
:10045000530280915202E81730F4F0E0EC56FE4F60
:10046000808190E008958FEF9FEF0895909153025F
:1004700080915202981750F4E92FF0E0EC56FE4FAD
:10048000208130E09F5F9093530202C02FEF3FEF37
:10049000C90108958091520290E020915302821B7D
:1004A00091090895CF92DF92EF92FF920F931F93DD
:1004B000CF93DF937C01CB018A0120911B02222381
:1004C00089F0EB016B01C40ED51ECC15DD0569F07A
:1004D0006991D701ED91FC910190F081E02DC70168
:1004E0000995F3CF642F0E94C901C801DF91CF9114
:1004F0001F910F91FF90EF90DF90CF900895CF93D1
:10050000DF931F92CDB7DEB7698320911B022223B0
:10051000D1F020915002203240F021E030E0FC0187
:100520003383228380E090E015C080915102E82F50
:10053000F0E0E45EFD4F998190838F5F80935102DC
:100540008093500205C061E0CE0101960E94C9016E
:1005500081E090E00F90DF91CF910895089580E0C1
:1005600090E008950F931F93CF93DF93EC01888160
:100570009981009729F02A813B812617370788F453
:100580008B016F5F7F4F0E940511009761F0998387
:1005900088831B830A832C813D81232B11F4FC016A
:1005A000108281E001C080E0DF91CF911F910F9117
:1005B00008951F93CF93DF93EC0148895989411522
:1005C0005105E1F08C859D85009719F0FC011081A3
:1005D00001C010E041505109598B488BBC016F5F3D
:1005E0007F4F0E940012EC85FD8588899989E80F6C
:1005F000F91F1082812F110F990B02C08FEF9FEF0F
:10060000DF91CF911F910895809107049091080484
:10061000892B29F087EF93E00E94D90201C08AE07C
:10062000682F8BEE93E00C947F02EF92FF920F9372
:100630001F93CF93DF934115510519F480E090E0AB
:1006400028C061157105D1F38A017B01EC0168892D
:1006500079896F5F7F4F640F751F0C960E94B202FD
:10066000882361F32C853D8588899989A801B70184
:10067000820F931F0E94E51188899989800F911F2D
:10068000998B888B2C853D85F901E80FF91F108225
:10069000C801DF91CF911F910F91FF90EF900895C6
:1006A000EF92FF920F931F93CF93DF936115710524
:1006B00011F480E01CC041155105C1F07B01EC0133
:1006C0008C819D818A01080F191FB801CE010E94FB
:1006D000B202882371F3288139818C819D81B70111
:1006E000820F931F0E94F9111D830C8381E0DF911B
:1006F000CF911F910F91FF90EF900895CF93DF93CB
:1007000000D0CDB7DEB769831A8241E050E0BE0168
:100710006F5F7F4F0C960E94500390E00F900F90F8
:10072000DF91CF910895892B81F0909152028091B1
:100730005302981751F08BEE93E00E943602682F17
:1007400089E094E00E947E03F0CF0895CF93DF9379
:10075000EC0188819981009711F00E94520F198253
:1007600018821D821C821B821A82DF91CF9108950C
:10077000CF93DF93EC016115710561F0FB010190EE
:100780000020E9F73197AF01461B570B0E94500339
:10079000811103C0CE010E94A603CE01DF91CF914B
:1007A0000895EF92FF920F931F93CF93DF93EC0185
:1007B0007B018A01BA010E94B202811104C0CE01FC
:1007C0000E94A60307C01D830C83B701888199810D
:1007D0000E94F911CE01DF91CF911F910F91FF90EF
:1007E000EF900895FC01808191810C94520FFB01E0
:1007F000DC0111961C921E9213961C921E92129767
:1008000015961C921E9214978617970749F06081DF
:1008100071816115710521F0448155810C94D103DA
:100820000895FC01118210821382128215821482B3
:100830006115710551F0FB0101900020E9F7319736
:10084000AF01461B570B0C94D1030895DB0114969E
:100850004D915C9115976D917C91DC01ED91FC912E
:100860000280F381E02D09941F920F920FB60F9230
:1008700011242F933F934F935F936F937F938F93A5
:100880009F93AF93BF93EF93FF9384E592E00E9411
:100890000801FF91EF91BF91AF919F918F917F914F
:1008A0006F915F914F913F912F910F900FBE0F90DD
:1008B0001F9018951F920F920FB60F9211242F932D
:1008C0008F939F93EF93FF93E0916402F091650201
:1008D0008081E0916A02F0916B0282FD12C09081EA
:1008E00080916D028F5F8F7720916E02821751F099
:1008F000E0916D02F0E0EC5AFD4F958F80936D0210
:1009000001C08081FF91EF919F918F912F910F9066
:100910000FBE0F901F9018952F923F924F925F92AB
:100920006F927F928F929F92AF92BF92CF92DF92FF
:10093000EF92FF920F931F93CF93DF93CDB7DEB764
:10094000A1970FB6F894DEBF0FBECDBFFC01EC5BE4
:10095000FF4F208133E03227DC01A30FB11D149635
:100960006C932F5F2083203409F0B6C131968080CC
:100970009180A280B38089869A86AB86BC863496A5
:10098000A080B180C280D380AD86BE86CF86D88A53
:100990003496C080D180E280F380C98ADA8AEB8AFB
:1009A000FC8A3496E080F18002811381ED8AFE8A10
:1009B0000F8B188F34960081118122813381098F2A
:1009C0001A8F2B8F3C8F0D8F1E8F2F8F38A3298569
:1009D0003A854B855C852D833E834F835887CD8434
:1009E000DE84EF84F8884D895E896F89788D49832C
:1009F0005A836B837C8309891A892B893C89212C32
:100A0000312C29A2522D5031C8F449815A816B8171
:100A10007C8140275127622773274C215D216E215D
:100A20007F2189809A80AB80BC80482559256A2522
:100A30007B25475656486D47754A99C0422D4F70E1
:100A40003C0154E0459F600C711C1124D1011D969E
:100A5000AF70BB271196AA0FBB1FAA0FBB1FA80F11
:100A6000B91FF1013896EF70FF273196EE0FFF1F87
:100A7000EE0FFF1FE80FF91F8D909D90AD90BC9079
:100A80004081518162817381482559256A257B25E2
:100A9000D30114968D909D90AD90BC9017974825EA
:100AA00059256A257B25F1013296EF70FF27319693
:100AB000EE0FFF1FEE0FFF1FE80FF91F80809180E0
:100AC000A280B380482559256A257B25440F551FF0
:100AD000661F771F411DF301448355836683778327
:100AE000F9A1F43108F491CFF83288F449815A81A0
:100AF0006B817C8140275127622773274C255D2518
:100B00006E257F254F5554416642714930C049A139
:100B10004C33E8F4B901A8014C295D296E297F29DD
:100B200089809A80AB80BC80482159216A217B2131
:100B3000480159018C209D20AE20BF204829592909
:100B40006A297B2944525344644E704710C049813E
:100B50005A816B817C8140275127622773274C255E
:100B60005D256E257F254A525E436D497543A9A1D7
:100B7000AF70FC01B4E0AB9FE00DF11D11244D807E
:100B80005E806F807884ABE1769467945794479445
:100B9000AA95D1F78D809E80AF80B884B5E0880C8F
:100BA000991CAA1CBB1CBA95D1F784289528A628A5
:100BB000B7284480558066807780840C951CA61CDD
:100BC000B71C480D591D6A1D7B1D8D8C9E8CAF8CEA
:100BD000B8A0480D591D6A1D7B1D46015701E2E072
:100BE000B694A79497948794EA95D1F72601370194
:100BF000FEE1440C551C661C771CFA95D1F7482879
:100C000059286A287B28AFEF2A1A3A0ACD80DE805D
:100C1000EF80F88489809A80AB80BC808D8E9E8E18
:100C2000AF8EB8A2A0E52A16310459F04D835E8339
:100C30006F83788709831A832B833C839301820116
:100C4000E0CEFC01EB5BFF4F89849A84AB84BC84CB
:100C5000480D591D6A1D7B1D408351836283738338
:100C600034964D855E856F857889560167014A0DFA
:100C70005B1D6C1D7D1D408351836283738334969D
:100C8000C988DA88EB88FC884C0C5D1C6E1C7F1CC4
:100C9000408251826282738234964D895E896F8967
:100CA000788D040F151F261F371F008311832283A1
:100CB00033833496498D5A8D6B8D7C8D89809A80D3
:100CC000AB80BC80480D591D6A1D7B1D408351833C
:100CD0006283738371971082A1960FB6F894DEBF7A
:100CE0000FBECDBFDF91CF911F910F91FF90EF907D
:100CF000DF90CF90BF90AF909F908F907F906F903C
:100D00005F904F903F902F900895262FFC01E75A57
:100D1000FF4F40815181628173814F5F5F4F6F4F01
:100D20007F4F4083518362837383622F0E948C04C0
:100D300081E090E008951F920F920FB60F92112458
:100D40002F933F934F935F936F937F938F939F93D3
:100D5000AF93BF93EF93FF938091B900887F803664
:100D600009F49CC068F5883209F45BC090F48031C6
:100D700009F454C038F4882309F4F6C0883009F423
:100D80004DC0F6C0883109F44CC0803209F45DC012
:100D9000EFC0803409F468C048F4803309F455C0CA
:100DA000883309F0E5C080931A02D8C0803509F471
:100DB0004FC0883509F45DC0883409F0D9C0D6C069
:100DC000883909F4C7C0A8F4883709F467C038F433
:100DD000883609F463C0803709F460C0C9C0883818
:100DE00009F4B8C0803909F45FC0803809F0C0C088
:100DF0005BC0803B09F486C038F4803A09F466C0D1
:100E0000883A09F47FC0B4C0803C09F4A7C0883C8C
:100E100009F4A4C0883B09F48AC0AAC08091F701F4
:100E200010C09091190280911802981770F5E09106
:100E3000190281E08E0F80931902F0E0E850FE4F16
:100E400080818093BB0085EC86C080931A028EC09F
:100E5000E091190281E08E0F809319028091BB000E
:100E6000F0E0E850FE4F80839091190280911802C3
:100E70006EC0E091190281E08E0F8093190280917B
:100E8000BB00F0E0E850FE4F808380914E0281115C
:100E90006DC081E080934D0284EA61C083E080935D
:100EA0004F021092F601CFCF8091F601803208F008
:100EB00051C0E091F60181E08E0F8093F6018091A0
:100EC000BB00F0E0EA52FE4F8083BDCF85EC8093FB
:100ED000BC0010924F028091F601803230F4E09114
:100EE000F601F0E0EA52FE4F10826091F60170E0E8
:100EF000E0914902F0914A0286ED91E00995109245
:100F0000F60136C084E080934F021092D501109212
:100F1000D401E0914B02F0914C0209958091D401EB
:100F2000811105C081E08093D4011092B401E09159
:100F3000D50181E08E0F8093D501F0E0EC54FE4F97
:100F400080818093BB009091D5018091D401981746
:100F500008F479CF85E88093BC000AC085EC8093C3
:100F6000BC0010924F0204C010921A020E94BF01EE
:100F7000FF91EF91BF91AF919F918F917F916F9171
:100F80005F914F913F912F910F900FBE0F901F9047
:100F900018950E94CB112FB7F8948091450290913B
:100FA0004602A0914702B09148022FBF80931104DE
:100FB00090931204A0931304B093140489E094E076
:100FC0000E94D90297FF26C02FB7F894809145025E
:100FD00090914602A0914702B09148022FBF4091E4
:100FE0001104509112046091130470911404841B35
:100FF000950BA60BB70B40910D0450910E04609118
:101000000F047091100484179507A607B707B0F274
:101010008FEF9FEF0895009769F0FC010190002089
:10102000E9F73197AF01481B590BBC0184E592E009
:101030000C94970080E090E008958F929F92AF9279
:10104000BF920F931F93CF93DF93CDB7DEB7A197D6
:101050000FB6F894DEBF0FBECDBF19A2423008F420
:101060004AE08E010F5D1F4F842E912CA12CB12CD4
:10107000A50194010E94C210E62FB901CA010150D6
:101080001109EA3014F4E05D01C0E95CD801EC9389
:10109000232B242B252B61F7C8010E940B08A19656
:1010A0000FB6F894DEBF0FBECDBFDF91CF911F9179
:1010B0000F91BF90AF909F908F900895833081F0F3
:1010C00028F4813099F08230A1F008958730A9F09A
:1010D0008830B9F08430D1F4809180008F7D03C0D6
:1010E000809180008F7780938000089584B58F77FA
:1010F00002C084B58F7D84BD08958091B0008F7744
:1011000003C08091B0008F7D8093B00008951F933D
:10111000CF93DF93282F30E0F901EE53FF4F8491F6
:10112000F901E255FF4FD491F901E656FF4FC49102
:10113000CC23C1F0162F81110E945E08EC2FF0E045
:10114000EE0FFF1FE057FF4FA591B4919FB7F894A2
:10115000111104C08C91D095D82302C0EC91DE2BE4
:10116000DC939FBFDF91CF911F910895109253029E
:1011700010925202109251021092500210924F029D
:1011800081E080934E0210924D0261E082E10E9464
:10119000870861E083E10E948708E9EBF0E0808145
:1011A0008E7F808380818D7F808388E48093B800E8
:1011B00085E48093BC0081EF91E090934C02809392
:1011C0004B028DEF91E090934A028093490208957B
:1011D000CF93DF9390E0FC01E255FF4F2491FC0197
:1011E000E656FF4F8491882361F190E0880F991FA4
:1011F000FC01EA57FF4FC591D491FC01E057FF4F26
:10120000A591B491611109C09FB7F8948881209588
:1012100082238883EC912E230BC0623061F49FB748
:10122000F8948881322F309583238883EC912E2B7C
:101230002C939FBF06C08FB7F894E8812E2B28838C
:101240008FBFDF91CF9108953FB7F89480911C0430
:1012500090911D04A0911E04B0911F0426B5A89B77
:1012600005C02F3F19F00196A11DB11D3FBFBA2F38
:10127000A92F982F8827820F911DA11DB11DBC0198
:10128000CD0142E0660F771F881F991F4A95D1F75D
:1012900008951F920F920FB60F9211242F933F9330
:1012A0008F939F93AF93BF93809145029091460295
:1012B000A0914702B091480230911B0423E0230F14
:1012C0002D3720F40196A11DB11D05C026E8230F7E
:1012D0000296A11DB11D20931B048093450290939B
:1012E0004602A0934702B093480280911C0490915B
:1012F0001D04A0911E04B0911F040196A11DB11DF3
:1013000080931C0490931D04A0931E04B0931F04AB
:10131000BF91AF919F918F913F912F910F900FBEF1
:101320000F901F901895EF92FF920F931F93CF93FA
:10133000DF9300D0CDB7DEB78C01E62E6AE671E010
:101340000E9411040E94CB070E2C000CFF0897FD91
:1013500010C08E159F0569F089831A8241E050E024
:10136000BE016F5F7F4FC8010E9450030E94CB07F0
:10137000EECFC8010F900F90DF91CF911F910F9189
:10138000FF90EF900895CF93DF93CDE4D1E0D09319
:10139000F803C093F70383E094E00E94F203D09334
:1013A0000A04C093090485E194E0DF91CF910C9485
:1013B000F203CF93DF93CDB7DEB7C354D1090FB695
:1013C000F894DEBF0FBECDBF789484B5826084BD33
:1013D00084B5816084BD85B5826085BD85B5816039
:1013E00085BD80916E00816080936E0010928100B7
:1013F0008091810082608093810080918100816072
:101400008093810080918000816080938000809132
:10141000B10084608093B1008091B00081608093BE
:10142000B00080917A00846080937A0080917A0085
:10143000826080937A0080917A00816080937A0044
:1014400080917A00806880937A001092C100E091C8
:101450006402F091650282E08083E0916002F09185
:1014600061021082E0916202F091630280E1808368
:1014700010926C02E0916802F091690286E080832C
:10148000E0916602F0916702808180618083E09143
:101490006602F0916702808188608083E091660235
:1014A000F0916702808180688083E0916602F0910C
:1014B000670280818F7D80838BE591E00E940B081D
:1014C0008AE3282E83E0382E02E313E07801D80166
:1014D0008C91803120F486E691E00E940B080F5F2A
:1014E0001F4FF701608170E080E090E040E10E94D2
:1014F0001D0882E991E00E940B082016310631F7A1
:1015000088E691E00E940B0862E083E10E94E8080F
:1015100062E082E10E94E8084091380328EE33E05F
:10152000429FC001439F900D112420913903820FE7
:10153000911D823091053CF0880F991F880F991FEB
:1015400005970197F1F70E94B60881E090E031E03D
:1015500062E07FEFE5EEF5ECA82F30931B0280935D
:101560004002109251021092500220914F0221111C
:10157000FCCF60934F0230934E0270931A02109288
:101580001902109218021092F701B091F701AC0104
:10159000440F551F4B2B4093F70140914D024130B2
:1015A00069F410924D024091F7014093BB004091C5
:1015B000BC0043FDF8CFF093BC0002C0E093BC0038
:1015C00040914F024230E1F340911A024F3F69F0DF
:1015D00020911A02203231F020911A02203321F09A
:1015E00024E003C022E001C023E0109251021092D7
:1015F000500210921B02222319F0A093000105C093
:1016000001968F37910509F0A7CF8091BC008A7BA6
:101610008093BC0060E082E10E94870860E083E183
:101620000E948708109100010E94B608110F1093C4
:10163000BA0083E993E090933D0280933C0284E0FA
:1016400093E090933F0280933E028BE691E00E94EC
:101650000B086091000170E080E090E04AE00E9499
:101660001D0888E691E00E940B0861E08DE00E9471
:10167000E8088E010F5F1F4F79E1A72EB12C8091F2
:10168000190490911A04181619060CF05CC2E09027
:101690001504F09016046AE070E0C7010E94EE1194
:1016A000009709F450C28E199F09019609F44BC2A4
:1016B0006CE2CE01CA960E9493096CE2CE01C496F8
:1016C0000E9493096AE0C8010E94930989819A8166
:1016D000009729F00E94DB0F6B017C0103C0C12C35
:1016E000D12C7601C8010E94F2030E9424092B012B
:1016F0003C012296DFAECEAE2297BE016C5C7F4FDE
:10170000CE018E960E94F703BE01665C7F4FCE012C
:1017100088960E94F703CDB6DEB62496DFAECEAE35
:101720002497EEA4FFA4E114F10469F0D7018C9191
:10173000882349F0082E000C990B0E94D011F70164
:1017400081937F01F3CFEEA5FFA5DF010D9000206F
:10175000E9F711977D01EE1AFF0AF694E794C701A5
:101760000196CDB6DEB6C81AD90A0FB6F894DEBE19
:101770000FBECDBE2DB73EB72F5F3F4F6901E20EC2
:10178000F31E2E153F0529F180818F7987FF03C055
:101790008150806E8F5F082E000C990B0996B50161
:1017A0000E94AE10482F4295407F81818F7987FF3C
:1017B00003C08150806E8F5F082E000C990B099634
:1017C000B5010E94AE10480FD9014D939D0132968C
:1017D000D8CF84E62296EEACFFAC22978E9D4001D6
:1017E0008F9D900C1124E12CF12C8E149F040CF48D
:1017F000D3C044E150E068E670E08FE793E00E94D8
:101800000210109293031092940310929503109279
:10181000960310927E03BE01685D7F4FCE018296D3
:101820000E94F7034AE0B801C7010E940B10F801BB
:1018300001900020E9F73197AF01401B510BB8012F
:10184000CE0182960E945003811104C0CE0182967F
:101850000E94A603BE016E5D7F4F8AE393E00E9463
:101860002604CE0182960E94F20360E88AE393E0A8
:101870000E948C0480917E0360E08833B9F78AE38C
:1018800093E00E948C0460E08AE393E00E948C0461
:1018900060E08AE393E00E948C048091930390912E
:1018A0009403A0919503B0919603BC01CD012DE165
:1018B00096958795779567952A95D1F78AE393E072
:1018C0000E948C048091930390919403A0919503BE
:1018D000B0919603BC01CD0135E19695879577953A
:1018E00067953A95D1F78AE393E00E948C04809142
:1018F000930390919403A0919503B0919603BC013A
:10190000CD014DE096958795779567954A95D1F7E6
:101910008AE393E00E948C04809193039091940356
:10192000A0919503B0919603BC01CD0155E0969529
:101930008795779567955A95D1F78AE393E00E944A
:101940008C0460919303660F660F660F8AE393E041
:101950000E948C04EFE7F3E06081718182819381C2
:101960000E94E410619371938193919323E0E33992
:10197000F20791F742E050E0B6018FE793E00E9452
:10198000D811892B29F4C701FF0CAA0BBB0B07C088
:101990003FEFE31AF30A29CF80E090E0DC012496C0
:1019A000CEACDFAC24970FB6F894DEBE0FBECDBE32
:1019B0007C01CE0188960E94F203CE018E960E9491
:1019C000F2030E9424099B01AC0124193509460940
:1019D000570929013A016AE771E0CE018E960E940B
:1019E000110492E3C92E93E0D92ED6018D916D0199
:1019F0001F928F93E1E8F1E0FF93EF931F930F9312
:101A00000E940F12F80101900020E9F73197AF0111
:101A1000401B510BB801CE018E960E9450030F90CF
:101A20000F900F900F900F900F902C143D04E9F63B
:101A300019A618A61BA61AA61DA61CA62AE0A80170
:101A4000C301B2010E942B10F80101900020E9F7B8
:101A50003197AF01401B510BB801CE0188960E940F
:101A6000D1031BA21AA21DA21CA21FA21EA24AE001
:101A7000B801C7010E944D10F80101900020E9F75C
:101A80003197AF01401B510BB801CE0182960E94E5
:101A9000D103BE016E5D7F4FC8010E94F70366E867
:101AA00071E0C8010E94B8037C014CA55DA568A542
:101AB00079A50E945003811103C0C7010E94A603AB
:101AC00066E871E0C7010E94B8037C014AA95BA9DE
:101AD0006EA57FA50E945003811103C0C7010E941B
:101AE000A60369E671E0C7010E94B803BC0187EF55
:101AF00093E00E942604C8010E94F203CE01829660
:101B00000E94F203CE0188960E94F203CE018E96C7
:101B10000E94F203CE01C4960E94F203CE01CA963F
:101B20000E94F20388E891E00E940B0863E074E0F1
:101B3000C8010E94F703B80184E592E00E942604E0
:101B4000C8010E94F2032FB7F8948091450290914A
:101B50004602A0914702B09148022FBF4091410236
:101B60005091420260914302709144026C017D01E8
:101B7000C41AD50AE60AF70AB701A6014A3F510579
:101B80006105710570F18093410290934202A09328
:101B90004302B0934402EFECF0E08491EBEBF0E011
:101BA000F490E7EAF0E0E490EE20A1F081110E94C9
:101BB0005E08EE2DF0E0EE0FFF1FE458FF4FA591F9
:101BC000B4918C91F82291E080E009F490E0692FC3
:101BD000782F02C060E070E0F1E06F278DE00E9496
:101BE00087080E9499014BCDCF92DF92EF92FF922E
:101BF0000F931F93CF93DF931092570210925602C8
:101C000088EE93E0A0E0B0E08093580290935902F0
:101C1000A0935A02B0935B028BE091E0909355023F
:101C20008093540285EC90E090936102809360026F
:101C300084EC90E0909363028093620280EC90E0E9
:101C4000909365028093640281EC90E09093670228
:101C50008093660282EC90E0909369028093680220
:101C600086EC90E090936B0280936A0210926D0272
:101C700010926E0210926F0210927002A1E3B3E014
:101C800080E090E041E2E1E0F0E08630910510F480
:101C9000E0E0F0E09C01225F3F4FE20FF31F409332
:101CA0005700E491ED9301968930910561F7109208
:101CB0003D0310923C038DE191E090933B038093B0
:101CC0003A031092EE031092ED0388EEC82E83E0E3
:101CD000D82EE12CF12CC092EF03D092F003E092C9
:101CE000F103F092F20389E291E09093EC03809388
:101CF000EB0310920C0410920B040BE311E0109311
:101D00000A0400930904C0920D04D0920E04E092DC
:101D10000F04F09210046AE671E085E194E00E94FD
:101D20001104CDE4D1E0D0930A04C09309041092C9
:101D3000FA031092F9031093F8030093F703C0928B
:101D4000FB03D092FC03E092FD03F092FE036AE6EF
:101D500071E083E094E00E941104D093F803C093F3
:101D6000F703DF91CF911F910F91FF90EF90DF90DC
:101D7000CF9008950F931F93CF93DF9382309105F7
:101D800010F482E090E0E0912204F091230420E03E
:101D900030E0A0E0B0E0309719F14081518102813C
:101DA000138148175907C8F08417950769F41097ED
:101DB00031F012960C93129713961C9327C0009340
:101DC00022041093230422C02115310519F0421773
:101DD000530718F49A01BD01EF01DF01F801DBCFD1
:101DE00021153105F9F0281B390B2430310580F419
:101DF0008A819B816115710521F0FB0193838283A8
:101E000004C09093230480932204FE01329644C0C0
:101E1000FE01E20FF31F8193919322503109398320
:101E200028833AC02091200430912104232B41F4CF
:101E30002091030130910401309321042093200468
:101E400020910101309102012115310541F42DB796
:101E50003EB74091050150910601241B350BE091DE
:101E60002004F0912104E217F307A0F42E1B3F0B8E
:101E70002817390778F0AC014E5F5F4F24173507FC
:101E800048F04E0F5F1F509321044093200481932C
:101E9000919302C0E0E0F0E0CF01DF91CF911F917C
:101EA0000F910895CF93DF93009709F481C0FC014F
:101EB000329713821282A0912204B09123041097CA
:101EC00081F420813181820F931F20912004309171
:101ED00021042817390751F5F0932104E0932004D9
:101EE00067C0ED0120E030E0CE17DF0740F44A8103
:101EF0005B819E0141155105F1F0EA01F5CFD383D5
:101F0000C28340815181840F951FC817D90759F4A6
:101F100088819981840F951F0296918380838A819D
:101F20009B81938382832115310529F4F093230447
:101F3000E09322043DC0E901FB83EA834991599172
:101F4000C40FD51FEC17FD0761F480819181840FC8
:101F5000951F0296E90199838883828193819B83EF
:101F60008A83E0E0F0E012968D919C9113970097A0
:101F700019F0FD01DC01F7CF8D919C9111979D0126
:101F80002E5F3F4F820F931F209120043091210438
:101F90002817390769F4309729F410922304109216
:101FA000220402C013821282B0932104A093200461
:101FB000DF91CF9108951F93FC0199278827BC01D9
:101FC000E89411911032E9F3193010F01E30C8F383
:101FD0001B3251F01D3249F4689406C00E9416105D
:101FE000610F711D811D911D119110531A30B0F3B5
:101FF0003EF490958095709561957F4F8F4F9F4FE0
:102000001F910895FB01DC0102C005900D92415023
:102010005040D8F70895BB274A3031F4992322F471
:10202000BDE2909581959F4F0C944E10592F482FEB
:10203000372F262F660F771F881F991F660F771F70
:10204000881F991F620F731F841F951F660F771FCC
:10205000881F991F0895BB27FA01A62F62177105E3
:1020600081059105330B30FB66F0AA27660F771FB9
:10207000881F991FAA1FA21710F0A21B6395385042
:10208000A9F7A05DAA3308F0A95DA19336F7B111B5
:10209000B1931082CA010C946710BB27FB0155272E
:1020A000AA27880F991FAA1FA41710F0A41B8395B5
:1020B0005051B9F7A05DAA3308F0A95DA19300972C
:1020C00079F7B111B1931192CB010C946710DC0137
:1020D000FC01672F71917723E1F7329704C07C915F
:1020E0006D9370836291AE17BF07C8F308952F9266
:1020F0003F924F925F926F927F928F929F92AF9298
:10210000BF92CF92DF92EF92FF920F931F93CF93E4
:10211000DF93CDB7DEB7CA1BDB0B0FB6F894DEBF7B
:102120000FBECDBF09942A88398848885F846E84A1
:102130007D848C849B84AA84B984C884DF80EE80EB
:10214000FD800C811B81AA81B981CE0FD11D0FB6F4
:10215000F894DEBF0FBECDBFED01089597FB072EAB
:1021600016F4009407D077FD09D00E94EB1007FC0D
:1021700005D03EF4909581959F4F08957095619597
:102180007F4F0895A1E21A2EAA1BBB1BFD010DC0B3
:10219000AA1FBB1FEE1FFF1FA217B307E407F50717
:1021A00020F0A21BB30BE40BF50B661F771F881FF3
:1021B000991F1A9469F760957095809590959B0189
:1021C000AC01BD01CF0108956927962769277827BB
:1021D000872778270895AA1BBB1B51E107C0AA1FB8
:1021E000BB1FA617B70710F0A61BB70B881F991FB8
:1021F0005A95A9F780959095BC01CD010895EE0FF1
:10220000FF1F0590F491E02D0994A0E0B0E0EBE011
:10221000F1E10C947B10EC01009721F4CB010E94BA
:10222000BA0EB4C0FC01E60FF71F9C012250310921
:10223000E217F30708F4A8C0D9010D911C9111977A
:1022400006171707B0F00530110508F49BC0C80148
:1022500004978617970708F495C002501109061BCA
:10226000170B019311936D937C93CF010E94520F32
:1022700089C05B01A01AB10A4C01800E911EA09189
:102280002204B0912304612C712CE12CF12C1097C5
:1022900009F446C08D919C911197A815B905B1F527
:1022A0006C0142E0C40ED11CCA14DB0478F14C016D
:1022B0008A189B08640142E0C40ED11C1296BC909F
:1022C00012971396AC91B5E0CB16D10440F0B282D0
:1022D000A38391828082D9016D937C9309C00E5FA4
:1022E0001F4F800F911FF90191838083EB2DFA2FEF
:1022F000E114F10431F0D7011396FC93EE93129799
:1023000041C0F0932304E09322043CC06816790690
:1023100008F43C017D0112960D90BC91A02DB7CF21
:10232000809120049091210488169906E1F46616A4
:102330007706C8F48091010190910201009741F461
:102340008DB79EB74091050150910601841B950BF6
:10235000E817F907C8F4F0932104E0932004F90189
:10236000718360830FC0CB010E94BA0E7C0100977D
:1023700059F0A801BE010E94E511CE010E94520F42
:10238000C70104C0CE0102C080E090E0CDB7DEB747
:10239000EEE00C94971081E090E0F8940C94C21455
:1023A0009111089581568A5108F4805285580895F4
:1023B000FB01DC0104C08D910190801921F4415092
:1023C0005040C8F7881B990B0895FB01DC0102C03F
:1023D00001900D9241505040D8F70895FC01819131
:1023E000861721F08823D9F7992708953197CF01CF
:1023F0000895FB01DC0101900D920020E1F70895A2
:10240000FB01DC014150504048F001900D9200204A
:10241000C9F701C01D9241505040E0F70895AEE069
:10242000B0E0E5E1F2E10C9485100D891E8986E0AB
:102430008C831A8309838FEF9FE79E838D83AE0180
:10244000475E5F4F6F89788DCE0101960E943112F1
:10245000EF81F885E00FF11F10822E96E4E00C94D6
:10246000A110ABE0B0E0E7E3F2E10C9477106C016F
:102470007B018A01FC0117821682838181FFCCC116
:10248000CE0101963C01F6019381F70193FD859100
:1024900093FF81917F01882309F4BAC1853239F411
:1024A00093FD859193FF81917F01853229F4B601D7
:1024B00090E00E942814E7CF912C212C312CFFE1D1
:1024C000F315D8F08B3279F038F4803279F083321A
:1024D000A1F4232D20611DC08D3261F0803369F499
:1024E000232D216016C0832D8260382EE32DE460F9
:1024F0003E2E2AC0F32DF8601DC037FC2DC020ED04
:10250000280F2A3040F08E32B9F436FC81C1232DD9
:102510002064322E19C036FE06C08AE0989E200D37
:102520001124922E11C0EAE02E9E200D1124222E9D
:10253000F32DF0623F2E08C08C3621F4832D806885
:10254000382E02C0883641F4F70193FD859193FF40
:1025500081917F018111B3CF982F9F7D9554933046
:1025600028F40C5F1F4F9FE399830DC0833631F031
:10257000833771F0833509F059C021C0F80180819B
:1025800089830E5F1F4F88248394912C530113C0BD
:102590002801F2E04F0E511CF801A080B18036FEF8
:1025A00003C0692D70E002C06FEF7FEFC5010E948C
:1025B0001D144C018201F32DFF773F2E16C0280118
:1025C00022E0420E511CF801A080B18036FE03C00B
:1025D000692D70E002C06FEF7FEFC5010E941214F9
:1025E0004C01F32DF0683F2E820133FC1BC0822D7D
:1025F00090E088169906B0F4B60180E290E00E945F
:1026000028142A94F4CFF50137FC859137FE819187
:102610005F01B60190E00E94281421102A9421E065
:10262000821A91088114910471F7E8C0843611F080
:10263000893641F5F80137FE07C0608171818281DA
:1026400093810C5F1F4F08C060817181072E000CC1
:10265000880B990B0E5F1F4FF32DFF763F2E97FFD0
:1026600009C090958095709561957F4F8F4F9F4FD2
:10267000F0683F2E2AE030E0A3010E946414882E07
:10268000861845C0853731F4232D2F7EB22E2AE0DF
:1026900030E025C0932D997FB92E8F36C1F018F404
:1026A000883579F0B5C0803719F0883721F0B0C08F
:1026B000E92FE061BE2EB4FE0DC0FB2DF460BF2EED
:1026C00009C034FE0AC0292F2660B22E06C028E0B9
:1026D00030E005C020E130E002C020E132E0F80146
:1026E000B7FE07C060817181828193810C5F1F4FAB
:1026F00006C06081718180E090E00E5F1F4FA301F2
:102700000E946414882E8618FB2DFF773F2E36FE1C
:102710000DC0232D2E7FA22E891458F434FE0BC039
:1027200032FC09C0832D8E7EA82E05C0B82CA32CA8
:1027300003C0B82C01C0B92CA4FE0FC0FE01E80DE7
:10274000F11D8081803321F49A2D997EA92E09C034
:10275000A2FE06C0B394B39404C08A2D867809F013
:10276000B394A3FC11C0A0FE06C0B21488F4280CD8
:10277000922C9B180EC0B21460F4B60180E290E077
:102780000E942814B394F7CFB21418F42B1802C087
:10279000982C212CA4FE10C0B60180E390E00E948A
:1027A0002814A2FE17C0A1FC03C088E790E002C075
:1027B00088E590E0B6010CC08A2D867859F0A1FE1C
:1027C00002C08BE201C080E2A7FC8DE2B60190E07E
:1027D0000E942814891438F4B60180E390E00E9426
:1027E00028149A94F7CF8A94F301E80DF11D8081A3
:1027F000B60190E00E9428148110F5CF222009F440
:1028000042CEB60180E290E00E9428142A94F6CFCE
:10281000F6018681978102C08FEF9FEF2B96E2E150
:102820000C949310FC010590615070400110D8F792
:10283000809590958E0F9F1F0895FC016150704008
:1028400001900110D8F7809590958E0F9F1F0895E5
:102850000F931F93CF93DF93FB01238121FD03C0CF
:102860008FEF9FEF2CC022FF16C046815781248135
:1028700035814217530744F4A081B1819D012F5F38
:102880003F4F318320838C93268137812F5F3F4FC9
:102890003783268314C08B01EC01FB010084F18592
:1028A000E02D0995892BE1F6D80116968D919C9122
:1028B0001797019617969C938E931697CE01DF91EA
:1028C000CF911F910F910895FA01AA27283051F155
:1028D000203181F1E8946F936E7F6E5F7F4F8F4F51
:1028E0009F4FAF4FB1E03ED0B4E03CD0670F781FB0
:1028F000891F9A1FA11D680F791F8A1F911DA11D95
:102900006A0F711D811D911DA11D20D009F46894CD
:102910003F912AE0269F11243019305D3193DEF675
:10292000CF010895462F4770405D4193B3E00FD02B
:10293000C9F7F6CF462F4F70405D4A3318F0495D16
:1029400031FD4052419302D0A9F7EACFB4E0A695F9
:102950009795879577956795BA95C9F7009761051B
:10296000710508959B01AC010A2E06945795479571
:1029700037952795BA95C9F7620F731F841F951F66
:10298000A01D089510E0CCE6D0E004C0FE010E9436
:0E299000FF102196CD36D107C9F7F894FFCF7E
:10299E0001000024048000000000002A019700C1FD
:1029AE00007701F200D000E40000000000850697D9
:1029BE0000AF02AE02000000007F025202AF02A37F
:1029CE00014A023602270200000000C9079700AF35
:1029DE0002AE02C907C907C907000000007E031531
:1029EE0003AF02A301BB01D902A401556E69717533
:1029FE006549443A200030000D0A0057697265207F
:102A0E00416464726573733A20004455434F4944E0
:102A1E000025303258002C004A6F6220446F6E65DC
:042A2E00203A20002A
:107E0000112484B714BE81FFF0D085E080938100F7
:107E100082E08093C00088E18093C10086E0809377
:107E2000C20080E18093C4008EE0C9D0259A86E02C
:107E300020E33CEF91E0309385002093840096BBD3
:107E4000B09BFECF1D9AA8958150A9F7CC24DD24C4
:107E500088248394B5E0AB2EA1E19A2EF3E0BF2EE7
:107E6000A2D0813461F49FD0082FAFD0023811F036
:107E7000013811F484E001C083E08DD089C08234E0
:107E800011F484E103C0853419F485E0A6D080C0E4
:107E9000853579F488D0E82EFF2485D0082F10E0AE
:107EA000102F00270E291F29000F111F8ED06801E7
:107EB0006FC0863521F484E090D080E0DECF843638
:107EC00009F040C070D06FD0082F6DD080E0C81688
:107ED00080E7D80618F4F601B7BEE895C0E0D1E017
:107EE00062D089930C17E1F7F0E0CF16F0E7DF06D8
:107EF00018F0F601B7BEE89568D007B600FCFDCFD4
:107F0000A601A0E0B1E02C9130E011968C91119780
:107F100090E0982F8827822B932B1296FA010C0160
:107F200087BEE89511244E5F5F4FF1E0A038BF0790
:107F300051F7F601A7BEE89507B600FCFDCF97BE46
:107F4000E89526C08437B1F42ED02DD0F82E2BD052
:107F50003CD0F601EF2C8F010F5F1F4F84911BD097
:107F6000EA94F801C1F70894C11CD11CFA94CF0C13
:107F7000D11C0EC0853739F428D08EE10CD085E9AC
:107F80000AD08FE07ACF813511F488E018D01DD067
:107F900080E101D065CF982F8091C00085FFFCCF94
:107FA0009093C60008958091C00087FFFCCF809118
:107FB000C00084FD01C0A8958091C6000895E0E648
:107FC000F0E098E1908380830895EDDF803219F02E
:107FD00088E0F5DFFFCF84E1DECF1F93182FE3DFCA
:107FE0001150E9F7F2DF1F91089580E0E8DFEE27F6
:047FF000FF270994CA
:027FFE00040479
:0400000300007E007B
:00000001FF
