:100000000C946D000C9495000C9495000C94950044
:100010000C9495000C9495000C9495000C9495000C
:100020000C9495000C9495000C9495000C949500FC
:100030000C9495000C9495000C9495000C949500EC
:100040000C9460080C9495000C9412060C94EC052A
:100050000C9495000C9495000C9495000C949500CC
:100060000C9444060C949500000000002400270026
:100070002A000123456789ABCDEFFEDCBA987654A0
:100080003210F0E1D2C34455434F49440030303080
:100090000000000000250028002B000404040404D4
:1000A0000404040202020202020303030303030125
:1000B00002040810204080010204081020010204FC
:1000C00008102000000008000201000003040700DF
:1000D0000000000000000000140C11241FBECFEF30
:1000E000D8E0DEBFCDBF24E0A2E4B1E001C01D92A4
:1000F000A830B207E1F711E0A0E0B1E0E4E2FBE1F3
:1001000002C005900D92A234B107D9F710E0CDE6F8
:10011000D0E004C02197FE010E94710DCC36D107BA
:10012000C9F70E94AA080C94900D0C940000CF927D
:10013000DF92EF92FF920F931F93CF93DF936C01A7
:100140007A018B01C0E0D0E0CE15DF0581F0D80147
:100150006D918D01D601ED91FC910190F081E02D22
:10016000C6010995892B11F02196EECF7E01C701BA
:10017000DF91CF911F910F91FF90EF90DF90CF9083
:100180000895FC01538D448D252F30E0842F90E09D
:10019000821B930B541710F0CF9608950197089582
:1001A000FC01918D828D981761F0828DDF01A80F7F
:1001B000B11D5D968C91928D9F5F9F77928F90E09D
:1001C00008958FEF9FEF0895FC01918D828D981710
:1001D00031F0828DE80FF11D858D90E008958FEF4D
:1001E0009FEF0895FC01918D228D892F90E080581A
:1001F0009F4F821B91098F77992708958EE592E092
:100200000E94F20021E0892B09F420E0822F08955A
:10021000FC01848DDF01A80FB11DA356BF4F2C91A7
:10022000848D90E001968F739927848FA689B78972
:100230002C93A089B1898C91837080648C93938D69
:10024000848D981306C00288F389E02D80818F7D0C
:1002500080830895EF92FF920F931F93CF93DF93C4
:10026000EC0181E0888F9B8D8C8D981305C0E88907
:10027000F989808185FD26C0F62E0B8D10E00F5F79
:100280001F4F0F731127E02E8C8DE8120CC00FB694
:1002900007FCFACFE889F989808185FFF5CFCE0187
:1002A0000E940801F1CF8B8DFE01E80FF11DE3568E
:1002B000FF4FF0829FB7F8940B8FEA89FB8980810A
:1002C00080620AC09FB7F894EE89FF896083E8894D
:1002D000F98980818370806480839FBF81E090E092
:1002E000DF91CF911F910F91FF90EF900895CF93E1
:1002F000DF93EC01888D8823C9F0EA89FB8980812E
:1003000085FD05C0A889B9898C9186FD0FC00FB6FF
:1003100007FCF5CF808185FFF2CFA889B9898C9140
:1003200085FFEDCFCE010E940801E7CFDF91CF918D
:10033000089580E090E0892B29F00E94FE00811151
:100340000C940000089585ED8093BC008091BC0062
:1003500084FDFCCF10925902089540918501262F0B
:1003600030E0240F311D21323105DCF42091590297
:100370002430C9F4FC0180E090E0861758F43091F5
:1003800085012191DC01AB59BE4FA30FB11D2C9308
:100390000196F3CF80918501680F6093850180E01D
:1003A000089581E0089582E00895E091F001F091D0
:1003B000F101309729F010925B0210925A020994D1
:1003C0000895CF93DF93AC01E091EE01F091EF013E
:1003D0003097F1F090915D0280915C029817C0F027
:1003E00090E0292F30E02617370754F4D901AB5B92
:1003F000BE4FEA01C20FD31F28812C939F5FF1CF1C
:1004000010925D0260935C02CB01DF91CF91099461
:10041000DF91CF9108950895E0915D0280915C0293
:10042000E81730F4F0E0EB5BFE4F808190E0089538
:100430008FEF9FEF089590915D0280915C02981775
:1004400050F4E92FF0E0EB5BFE4F208130E09F5F3E
:1004500090935D0202C02FEF3FEFC9010895809194
:100460005C0290E020915D02821B91090895CF9279
:10047000DF92EF92FF920F931F93CF93DF937C0154
:10048000CB018A012091CC01222389F0EB016B0181
:10049000C40ED51ECC15DD0569F06991D701ED912B
:1004A000FC910190F081E02DC7010995F3CF642FF5
:1004B0000E94AD01C801DF91CF911F910F91FF9074
:1004C000EF90DF90CF900895CF93DF931F92CDB739
:1004D000DEB769832091CC012223D1F020915A020A
:1004E000203240F021E030E0FC013383228380E0C1
:1004F00090E015C080915B02E82FF0E0E353FE4FDF
:10050000998190838F5F80935B0280935A0205C02C
:1005100061E0CE0101960E94AD0181E090E00F9074
:10052000DF91CF9108952F923F924F925F926F92F9
:100530007F928F929F92AF92BF92CF92DF92EF9273
:10054000FF920F931F93CF93DF93CDB7DEB7A197A1
:100550000FB6F894DEBF0FBECDBFFC01EC5BFF4FC2
:10056000208133E03227DC01A30FB11D14966C9378
:100570002F5F2083203409F0B6C1319680809180AE
:10058000A280B38089869A86AB86BC863496A0808A
:10059000B180C280D380AD86BE86CF86D88A34969D
:1005A000C080D180E280F380C98ADA8AEB8AFC8A33
:1005B0003496E080F18002811381ED8AFE8A0F8BF0
:1005C000188F34960081118122813381098F1A8F0F
:1005D0002B8F3C8F0D8F1E8F2F8F38A329853A8547
:1005E0004B855C852D833E834F835887CD84DE8485
:1005F000EF84F8884D895E896F89788D49835A83A5
:100600006B837C8309891A892B893C89212C312CA5
:1006100029A2522D5031C8F449815A816B817C81C5
:1006200040275127622773274C215D216E217F21AE
:1006300089809A80AB80BC80482559256A257B2516
:10064000475656486D47754A99C0422D4F703C0138
:1006500054E0459F600C711C1124D1011D96AF70B0
:10066000BB271196AA0FBB1FAA0FBB1FA80FB91F4C
:10067000F1013896EF70FF273196EE0FFF1FEE0F56
:10068000FF1FE80FF91F8D909D90AD90BC904081A9
:10069000518162817381482559256A257B25D301C3
:1006A00014968D909D90AD90BC9017974825592534
:1006B0006A257B25F1013296EF70FF273196EE0F08
:1006C000FF1FEE0FFF1FE80FF91F80809180A280AF
:1006D000B380482559256A257B25440F551F661F81
:1006E000771F411DF3014483558366837783F9A106
:1006F000F43108F491CFF83288F449815A816B8142
:100700007C8140275127622773274C255D256E2564
:100710007F254F5554416642714930C049A14C3341
:10072000E8F4B901A8014C295D296E297F29898047
:100730009A80AB80BC80482159216A217B214801E5
:1007400059018C209D20AE20BF20482959296A29B3
:100750007B2944525344644E704710C049815A81EA
:100760006B817C8140275127622773274C255D25AB
:100770006E257F254A525E436D497543A9A1AF702E
:10078000FC01B4E0AB9FE00DF11D11244D805E80B3
:100790006F807884ABE17694679457944794AA95D8
:1007A000D1F78D809E80AF80B884B5E0880C991C0D
:1007B000AA1CBB1CBA95D1F784289528A628B7286F
:1007C0004480558066807780840C951CA61CB71CDD
:1007D000480D591D6A1D7B1D8D8C9E8CAF8CB8A059
:1007E000480D591D6A1D7B1D46015701E2E0B69474
:1007F000A79497948794EA95D1F726013701FEE1F3
:10080000440C551C661C771CFA95D1F748285928CA
:100810006A287B28AFEF2A1A3A0ACD80DE80EF8063
:10082000F88489809A80AB80BC808D8E9E8EAF8E3E
:10083000B8A2A0E52A16310459F04D835E836F8378
:10084000788709831A832B833C8393018201E0CE4E
:10085000FC01EB5BFF4F89849A84AB84BC84480D18
:10086000591D6A1D7B1D40835183628373833496B7
:100870004D855E856F857889560167014A0D5B1D40
:100880006C1D7D1D40835183628373833496C988B8
:10089000DA88EB88FC884C0C5D1C6E1C7F1C408247
:1008A00051826282738234964D895E896F89788D18
:1008B000040F151F261F371F0083118322833383E4
:1008C0003496498D5A8D6B8D7C8D89809A80AB8052
:1008D000BC80480D591D6A1D7B1D40835183628376
:1008E000738371971082A1960FB6F894DEBF0FBE86
:1008F000CDBFDF91CF911F910F91FF90EF90DF90CF
:10090000CF90BF90AF909F908F907F906F905F90AF
:100910004F903F902F900895262FFC01E75AFF4FEC
:1009200040815181628173814F5F5F4F6F4F7F4F75
:100930004083518362837383622F0E94930281E01C
:1009400090E00895089580E090E008958091F3018B
:100950008823A9F0E091F50181E08E0F8093F501E5
:10096000F0E0EA50FE4F60819091F401891308C0D5
:100970001092F3011092F5011092F40101C06AE0A7
:100980008BE393E00C946402CF93892B39F180912F
:100990004E02811123C08091F30181111FC0C1E07B
:1009A00090915C0280915D029817C1F08BE393E017
:1009B0000E941B029091F40121E0290F2093F40181
:1009C000E92FF0E0EA50FE4F8083283511F4909330
:1009D000F4018A3029F7C0934E02E2CFCF910895F7
:1009E0006115710579F0FB0101900020E9F731975D
:1009F000AF01461B570BDC01ED91FC910280F381A6
:100A0000E02D099480E090E008958F929F92AF923C
:100A1000BF92EF92FF920F931F93CF93DF93CDB7C7
:100A2000DEB7A1970FB6F894DEBF0FBECDBF7C0135
:100A3000FA01CB0119A2223008F42AE08E010F5DE1
:100A40001F4F822E912CA12CB12CBF01A501940126
:100A50000E94390DF901CA01015011096A3014F4DC
:100A6000605D01C0695CD8016C93232B242B252B7E
:100A700061F7B801C7010E94F004A1960FB6F8947F
:100A8000DEBF0FBECDBFDF91CF911F910F91FF90C1
:100A9000EF90BF90AF909F908F9008950E94770D38
:100AA000AF92BF92CF92DF92EF92FF920F931F937C
:100AB000CF93DF93A0904401809143018A25C0E049
:100AC000D0E0B12C0BE310E097E0E92EF12C81701F
:100AD000A82EC8010197F1F70E9497076C01C80181
:100AE0000197F1F70E949707AC0197012C1B3D0B72
:100AF000982F022E01C0990F0A94EAF7319521959B
:100B0000310927703327842F01C086952A95EAF78B
:100B1000292F282B8C2D0C2E01C0880F0A94EAF760
:100B2000662777276C1B7D0B677077279C2D01C08C
:100B300096956A95EAF7892B8227B826E0914401B9
:100B40009091430160E070E09601062E02C0359559
:100B500027950A94E2F72170DA01062E02C0B595B6
:100B6000A7950A94E2F7A1702A1771F0A11005C0A9
:100B70008E2F880FE827E22707C0892F86959827B0
:100B800027952227279592276F5F7F4F6830710541
:100B9000D9F6E0934401909343012196C430D105E6
:100BA00009F097CF80914201282F2295220F211D15
:100BB000282782958F7082278B25809342019E275C
:100BC0008927DF91CF911F910F91FF90EF90DF90D8
:100BD000CF90BF90AF9008951F920F920FB60F92D3
:100BE00011242F933F934F935F936F937F938F9332
:100BF0009F93AF93BF93EF93FF938EE592E00E9494
:100C00000801FF91EF91BF91AF919F918F917F91DB
:100C10006F915F914F913F912F910F900FBE0F9069
:100C20001F9018951F920F920FB60F9211242F93B9
:100C30008F939F93EF93FF93E0916E02F0916F0279
:100C40008081E0917402F091750282FD12C0908162
:100C5000809177028F5F8F7720917802821751F011
:100C6000E0917702F0E0E25AFD4F958F8093770292
:100C700001C08081FF91EF919F918F912F910F90F3
:100C80000FBE0F901F9018951F920F920FB60F92E4
:100C900011242F933F934F935F936F937F938F9381
:100CA0009F93AF93BF93EF93FF938091B900887F99
:100CB000803609F49CC068F5883209F45BC090F472
:100CC000803109F454C038F4882309F4F6C0883020
:100CD00009F44DC0F6C0883109F44CC0803209F4E3
:100CE0005DC0EFC0803409F468C048F4803309F473
:100CF00055C0883309F0E5C08093CB01D8C080355A
:100D000009F44FC0883509F45DC0883409F0D9C0B2
:100D1000D6C0883909F4C7C0A8F4883709F467C079
:100D200038F4883609F463C0803709F460C0C9C05C
:100D3000883809F4B8C0803909F45FC0803809F0F8
:100D4000C0C05BC0803B09F486C038F4803A09F427
:100D500066C0883A09F47FC0B4C0803C09F4A7C0DB
:100D6000883C09F4A4C0883B09F48AC0AAC08091D9
:100D7000A80110C09091CA018091C901981770F51F
:100D8000E091CA0181E08E0F8093CA01F0E0E7553F
:100D9000FE4F80818093BB0085EC86C08093CB01A1
:100DA0008EC0E091CA0181E08E0F8093CA018091CC
:100DB000BB00F0E0E755FE4F80839091CA0180911F
:100DC000C9016EC0E091CA0181E08E0F8093CA0113
:100DD0008091BB00F0E0E755FE4F80838091580280
:100DE00081116DC081E08093570284EA61C083E085
:100DF000809359021092A701CFCF8091A701803232
:100E000008F051C0E091A70181E08E0F8093A70107
:100E10008091BB00F0E0E957FE4F8083BDCF85ECA9
:100E20008093BC00109259028091A701803230F467
:100E3000E091A701F0E0E957FE4F10826091A70111
:100E400070E0E0915302F091540287E891E0099537
:100E50001092A70136C084E0809359021092860157
:100E600010928501E0915502F0915602099580910A
:100E70008501811105C081E0809385011092650193
:100E8000E091860181E08E0F80938601F0E0EB59BE
:100E9000FE4F80818093BB009091860180918501F7
:100EA000981708F479CF85E88093BC000AC085ECD8
:100EB0008093BC001092590204C01092CB010E9492
:100EC000A301FF91EF91BF91AF919F918F917F917E
:100ED0006F915F914F913F912F910F900FBE0F90A7
:100EE0001F9018953FB7F8948091020490910304E5
:100EF000A0910404B091050426B5A89B05C02F3F1E
:100F000019F00196A11DB11D3FBFBA2FA92F982F2F
:100F10008827820F911DA11DB11DBC01CD0142E0AA
:100F2000660F771F881F991F4A95D1F7089581E4AE
:100F300080937C0080917A00806480937A00809115
:100F40007A0086FDFCCF809178002091790090E0B6
:100F5000922B08958F929F92AF92BF92CF92DF9281
:100F6000EF92FF920E9472074B015C0184E6C82E4B
:100F7000D12CE12CF12C0E947207DC01CB018819E5
:100F80009909AA09BB09883E9340A105B10598F3C8
:100F900021E0C21AD108E108F10888EE880E83E04A
:100FA000981EA11CB11CC114D104E104F10419F76D
:100FB000FF90EF90DF90CF90BF90AF909F908F9079
:100FC000089590E0FC01ED53FF4F2491FC01E155A1
:100FD000FF4F3491FC01E556FF4FE491EE2309F4F5
:100FE0003CC0222339F1233091F038F42130A9F0AC
:100FF000223001F584B58F7D12C0273091F0283062
:10100000A1F02430B9F4809180008F7D03C08091DD
:1010100080008F77809380000DC084B58F7784BD6A
:1010200009C08091B0008F7703C08091B0008F7DA0
:101030008093B000F0E0EE0FFF1FEF56FF4FA59139
:10104000B4919FB7F894611104C08C913095382306
:1010500002C0EC913E2B3C939FBF089510925D021D
:1010600010925C0210925B0210925A021092590286
:1010700081E0809358021092570261E082E10E9461
:10108000E10761E083E10E94E107E9EBF0E08081A4
:101090008E7F808380818D7F808388E48093B800F9
:1010A00085E48093BC0085ED91E090935602809397
:1010B000550281EE91E0909354028093530208957B
:1010C0001F920F920FB60F9211242F933F938F937D
:1010D0009F93AF93BF9380914F0290915002A09144
:1010E0005102B09152023091010423E0230F2D37B9
:1010F00020F40196A11DB11D05C026E8230F02961C
:10110000A11DB11D2093010480934F0290935002C2
:10111000A0935102B0935202809102049091030473
:10112000A0910404B09105040196A11DB11D809306
:10113000020490930304A0930404B0930504BF91A8
:10114000AF919F918F913F912F910F900FBE0F9074
:101150001F901895CF93DF93CDB7DEB764970FB686
:10116000F894DEBF0FBECDBF789484B5826084BD95
:1011700084B5816084BD85B5826085BD85B581609B
:1011800085BD80916E00816080936E001092810019
:1011900080918100826080938100809181008160D4
:1011A0008093810080918000816080938000809195
:1011B000B10084608093B1008091B0008160809321
:1011C000B00080917A00846080937A0080917A00E8
:1011D000826080937A0080917A00816080937A00A7
:1011E00080917A00806880937A001092C100E0912B
:1011F0006E02F0916F0282E08083E0916A02F091CA
:101200006B021082E0916C02F0916D0280E18083AC
:1012100010927602E0917202F091730286E0808370
:10122000E0917002F0917102808180618083E09191
:101230007002F0917102808188608083E091700279
:10124000F0917102808180688083E0917002F0915A
:10125000710280818F7D808380E090E00E94230D69
:101260008093F201181644F08AE08093F2016AE05C
:1012700080E090E00E942B0D0E945005182F0E94E4
:101280005005482F212F30E0A8EEB3E00E94620DF8
:10129000DC01CB01840F911DA11DB11D8230910590
:1012A00050F0BC01660F771F660F771F65507109FC
:1012B000CB010197F1F70E942E0801E010E091E0C8
:1012C00042E05FEF65EE75EC9093CC010093ED0189
:1012D00010925B0210925A02809159028111FCCF48
:1012E00040935902909358025093CB011092CA0137
:1012F0001092C9011092A801E091A8019801220F53
:10130000331F2E2B2093A80120915702213069F41E
:10131000109257022091A8012093BB002091BC009D
:1013200023FDF8CF7093BC0002C06093BC002091F5
:1013300059022230E1F32091CB012F3F69F08091D7
:10134000CB01803231F08091CB01803321F084E0F9
:1013500003C082E001C083E010925B0210925A0247
:101360001092CC01811106C00F5F1F4F0F3711057E
:1013700009F0AACF8091BC008A7B8093BC0060E01A
:1013800082E10E94E10760E083E10E94E1070093AF
:10139000F20160E371E08EE592E00E94F00440917A
:1013A000F20150E060E070E02AE08EE592E00E94F9
:1013B00005056CE371E08EE592E00E94F004109167
:1013C000F2010E942E08110F1093BA0084EC94E0F1
:1013D0009093EF018093EE0186EA94E09093F101FF
:1013E0008093F001ECEBF0E02491E8EAF0E08491E6
:1013F000882399F090E0880F991FFC01E859FF4F6E
:10140000A591B491FC01EF56FF4F859194918FB750
:10141000F894EC91E22BEC938FBF61E08DE00E9499
:10142000E1070E94AA0760E08DE00E94E1070E94A8
:10143000AA0761E08DE00E94E1070E94AA0760E030
:101440008DE00E94E1070E94AA0761E08DE00E9402
:10145000E1070E94AA0760E08DE00E94E1070E9478
:10146000AA0706EF11E06CE2462E512C78E5672EB4
:10147000ECE27E2E80914E02882309F4C3C161E024
:101480008DE00E94E10766EF71E08EE592E00E9438
:10149000F0046CE371E08EE592E00E94F00480912C
:1014A000F601833219F4E0E0F0E009958FB7F89483
:1014B00020914F02309150024091510250915202BE
:1014C000298B3A8B4B8B5C8B8FBF5A824982BE0132
:1014D0006F5F7F4F86EF91E00E94BA0C1C01BE0146
:1014E0006F5F7F4F80E090E00E94BA0C5C01BE010C
:1014F0006F5F7F4F80E090E00E94BA0C1092F40181
:101500001092F5010E948C0C803932E093070CF0A8
:10151000E3C0F5019501285D3F4FD50140814A3375
:101520001CF047362CF44755542F5295507F01C07C
:1015300050E041814A3314F4405305C0473614F457
:10154000475501C040E0450F4D9332962E173F0797
:1015500029F744E6489F4001499F900C1124C12C73
:10156000D12C76018C149D040CF4B6C044E150E0FB
:1015700062E770E085E993E00E94AA0C1092A9034B
:101580001092AA031092AB031092AC031092940332
:10159000B10180E593E00E94F0042AE0B701A601C2
:1015A00080E593E00E94050560E880E593E00E94F5
:1015B00093028091940360E08833B9F780E593E06B
:1015C0000E94930260E080E593E00E94930260E055
:1015D00080E593E00E9493028091A9039091AA0371
:1015E000A091AB03B091AC03BC01CD012DE1969568
:1015F0008795779567952A95D1F780E593E00E94C6
:1016000093028091A9039091AA03A091AB03B0919A
:10161000AC03BC01CD0135E196958795779567952B
:101620003A95D1F780E593E00E9493028091A90357
:101630009091AA03A091AB03B091AC03BC01CD0182
:101640004DE096958795779567954A95D1F780E512
:1016500093E00E9493028091A9039091AA03A09124
:10166000AB03B091AC03BC01CD0155E096958795D5
:10167000779567955A95D1F780E593E00E9493029C
:101680006091A903660F660F660F80E593E00E94E4
:101690009302E5E9F3E060817181828193810E9488
:1016A0005B0D619371938193919389EA93E08E1717
:1016B0009F0789F744E150E0B50185E993E00E9476
:1016C0007C0DB701A6014F5F5F4F6F4F7F4F892B96
:1016D00031F06A017B0146CFC12CD12C76012FB7A6
:1016E000F89480914F0290915002A0915102B091D4
:1016F00052022FBF5C01E989FA89AE1ABF0AF801CC
:10170000262D11922A95E9F74AE0BE016F5F7F4FBF
:10171000C6010E94E60CBE016F5F7F4F86EF91E02D
:101720000E94890DF80101900020E9F7319770823D
:101730004AE0BE016F5F7F4FC5010E94E60CF801D1
:1017400001900020E9F7CF01BE016F5F7F4F019745
:101750000E94890DF80101900020E9F7CF016DE8A2
:1017600070E001970E94B30CF80101900020E9F7A6
:1017700031977082F80101900020E9F7CF0166E807
:1017800070E001970E94B30C88E4E82E83E0F82E05
:101790006701F70181917F0140E1BE016F5F7F4FDB
:1017A00090E00E94E60CF6018081803150F4F8014F
:1017B00001900020E9F7CF016FE371E001970E94EB
:1017C000890DF80101900020E9F7CF01BE016F5F9C
:1017D0007F4F01970E94890D20E533E02E153F05CC
:1017E000B9F61092F501E6EFF1E001900020E9F77B
:1017F0003197E65FF140E093F40110924E0281E0F0
:101800008093F30160E08DE00E94E1078FB7F894C8
:1018100040914F02509150026091510270915202DA
:101820008FBF0E94990126CE109261021092600231
:1018300088EE93E0A0E0B0E08093620290936302B0
:10184000A0936402B093650224E031E030935F021C
:1018500020935E0225EC30E030936B0220936A0205
:1018600024EC30E030936D0220936C0220EC30E0E9
:1018700030936F0220936E0221EC30E030937102BE
:101880002093700222EC30E03093730220937202B6
:1018900026EC30E0309375022093740210927702A8
:1018A000109278021092790210927A0210923E03FE
:1018B00010923D0380933F0390934003A093410314
:1018C000B093420386E191E090933C0380933B0305
:1018D000A7E4B3E080E090E021E2AC01425F5F4F1B
:1018E000E1E0F0E08630910510F4E0E0F0E0E40F94
:1018F000F51F20935700E491ED93019689309105EF
:1019000061F7109253031092520388E291E0909392
:101910005103809350030895FC0188279927E89488
:1019200021912032E9F3293010F02E30C8F32B3208
:1019300041F02D3239F4689404C00E94F10C820FFA
:10194000911D219120532A30C0F31EF4909581956A
:101950009F4F0895FB01DC0102C005900D9241509C
:101960005040D8F70895FB01DC0105900D9200204E
:10197000E1F7089546E054E00E94BF0C0895FA0193
:10198000A191B081009719F41097E1F0CD01DC012D
:10199000CD010D90002011F4C00113C0FB01219175
:1019A000222319F02015D9F7F3CFFB01219120153F
:1019B00019F41E92119606C02223C1F70D90002043
:1019C000A1F7D001FA01A193B0830895BB274A3053
:1019D00031F4992322F4BDE2909581959F4F0C94A8
:1019E000FA0C7AE0979F902D879F802D910D1124FE
:1019F0000895BB27FB015527AA27880F991FAA1F07
:101A0000A41710F0A41B83955051B9F7A05DAA3319
:101A100008F0A95DA193009779F7B111B1931192E4
:101A2000CB010C94130DDC01FC01672F719177231E
:101A3000E1F7329704C07C916D9370836291AE1789
:101A4000BF07C8F30895F999FECF92BD81BDF89AFA
:101A5000992780B50895262FF999FECF1FBA92BD18
:101A600081BD20BD0FB6F894FA9AF99A0FBE01967F
:101A70000895A1E21A2EAA1BBB1BFD010DC0AA1FCF
:101A8000BB1FEE1FFF1FA217B307E407F50720F0E7
:101A9000A21BB30BE40BF50B661F771F881F991F62
:101AA0001A9469F760957095809590959B01AC01AB
:101AB000BD01CF01089569279627692778278727D1
:101AC00078270895A29FB001B39FC001A39F700D16
:101AD000811D1124911DB29F700D811D1124911D36
:101AE0000895EE0FFF1F0590F491E02D099481E019
:101AF00090E0F8940C94900DFB01DC0104C08D91F2
:101B00000190801921F441505040C8F7881B990B6F
:101B10000895FB01DC0101900D920020E1F708958A
:041B2000F894FFCF67
:101B2400000000002A019700C1007701F200D000F4
:101B3400E4000000000064023702A3040B022F0239
:101B44001B020C02000000008C049700A304A204F2
:101B54005769726520626567696E20000D0A00305E
:021B640000007F
:107800000C94343C0C94513C0C94513C0C94513CE1
:107810000C94513C0C94513C0C94513C0C94513CB4
:107820000C94513C0C94513C0C94513C0C94513CA4
:107830000C94513C0C94513C0C94513C0C94513C94
:107840000C94513C0C94513C0C94513C0C94513C84
:107850000C94513C0C94513C0C94513C0C94513C74
:107860000C94513C0C94513C11241FBECFEFD8E036
:10787000DEBFCDBF11E0A0E0B1E0ECE9FFE702C060
:1078800005900D92A230B107D9F712E0A2E0B1E065
:1078900001C01D92AD30B107E1F70E942D3D0C945F
:1078A000CC3F0C94003C982F959595959595959582
:1078B000905D8F708A307CF0282F295A8091C0000B
:1078C00085FFFCCF9093C6008091C00085FFFCCF60
:1078D0002093C6000895282F205DF0CF982F809127
:1078E000C00085FFFCCF9093C6000895EF92FF92F1
:1078F0000F931F93EE24FF2487018091C00087FD22
:1079000017C00894E11CF11C011D111D81E4E8164B
:1079100082E4F8068FE0080780E0180770F3E09132
:107920000401F091050109958091C00087FFE9CF1E
:107930008091C6001F910F91FF90EF9008950E94D3
:10794000763C982F8091C00085FFFCCF9093C600B5
:1079500091362CF490330CF09053892F089597555D
:10796000892F08951F930E949F3C182F0E949F3CCF
:107970001295107F810F1F9108951F93182F882350
:1079800021F00E94763C1150E1F71F9108951F935A
:10799000182F0E94763C803249F0809103018F5F5E
:1079A000809303018530C1F01F9108958091C0003C
:1079B00085FFFCCF84E18093C6008091C00085FFE5
:1079C000FCCF1093C6008091C00085FFFCCF80E102
:1079D0008093C6001F910895E0910401F091050184
:1079E00009951F9108950E94763C803241F0809164
:1079F00003018F5F80930301853081F008958091AA
:107A0000C00085FFFCCF84E18093C6008091C00058
:107A100085FFFCCF80E18093C6000895E0910401CA
:107A2000F09105010995089540E951E08823A1F0FE
:107A30002D9A28EE33E0FA013197F1F721503040CA
:107A4000D1F72D9828EE33E0FA013197F1F7215064
:107A50003040D1F7815061F708953F924F925F9285
:107A60006F927F928F929F92AF92BF92CF92DF924E
:107A7000EF92FF920F931F93CF93DF93000080E16B
:107A80008093C4001092C50088E18093C10086E015
:107A90008093C2005098589A259A81E00E94143D24
:107AA00024E1F22E9EE1E92E85E9D82E0FE0C02ECA
:107AB00010E1B12EAA24A394B1E49B2EA6E58A2E50
:107AC000F2E57F2EE0E26E2E79E4572E63E5462E36
:107AD00050E5352E0E94763C8033B1F18133B9F107
:107AE000803409F46FC0813409F476C0823409F41B
:107AF00085C0853409F488C0803531F1823521F1A3
:107B0000813511F1853509F485C0863509F48DC0BC
:107B1000843609F496C0843709F403C1853709F423
:107B200072C1863709F466C0809103018F5F80932C
:107B30000301853079F6E0910401F0910501099582
:107B40000E94763C803351F60E94F33CC3CF0E94E2
:107B5000763C803249F78091C00085FFFCCFF092DF
:107B6000C6008091C00085FFFCCF9092C600809136
:107B7000C00085FFFCCF8092C6008091C00085FFC9
:107B8000FCCF7092C6008091C00085FFFCCF609250
:107B9000C6008091C00085FFFCCF5092C600809146
:107BA000C00085FFFCCF4092C6008091C00085FFD9
:107BB000FCCF3092C6008091C00085FFFCCFB09210
:107BC000C60088CF0E94763C863808F4BDCF0E945C
:107BD000763C0E94F33C7ECF0E94763C803809F4CC
:107BE0009CC0813809F40BC1823809F43CC1883942
:107BF00009F48FC080E00E94C73C6CCF84E10E94F2
:107C0000BD3C0E94F33C66CF85E00E94BD3C0E94D3
:107C1000F33C60CF0E94763C809306010E94763C44
:107C2000809307010E94F33C55CF0E94763C80333D
:107C300009F41DC183E00E94BD3C80E00E94C73C66
:107C400049CF0E94763C809309020E94763C809343
:107C5000080280910C028E7F80930C020E94763C79
:107C6000853409F415C18091080290910902892B8D
:107C700089F000E010E00E94763CF801E85FFE4FDA
:107C800080830F5F1F4F80910802909109020817AF
:107C9000190788F30E94763C803209F045CF809125
:107CA0000C0280FF01C16091060170910701660F0F
:107CB000771F7093070160930601A0910802B091AD
:107CC00009021097C9F0E8E0F1E09B01AD014E0F09
:107CD0005F1FF999FECF32BD21BD819180BDFA9A17
:107CE000F99A2F5F3F4FE417F50799F76A0F7B1F4B
:107CF00070930701609306018091C00085FFFCCF5F
:107D0000F092C6008091C00085FFFCCFB092C60003
:107D1000E1CE83E00E94C73CDDCE82E00E94C73CFA
:107D2000D9CE0E94763C809309020E94763C8093D3
:107D300008028091060190910701880F991F909386
:107D40000701809306010E94763C853409F4A6C0A1
:107D500080910C028E7F80930C020E94763C8032D0
:107D600009F0B8CE8091C00085FFFCCFF092C6002C
:107D7000609108027091090261157105B9F140E046
:107D800050E080910C02A82FA170B82FB27011C0E2
:107D9000BB2309F45CC0E0910601F0910701319624
:107DA000F0930701E09306014F5F5F4F46175707B7
:107DB000E8F4AA2369F3F999FECF209106013091E6
:107DC000070132BD21BDF89A90B58091C00085FFB2
:107DD000FCCF9093C6002F5F3F4F30930701209355
:107DE00006014F5F5F4F4617570718F38091C00099
:107DF00085FDE5CE8091C00085FFF8CFE0CE81E023
:107E00000E94C73C67CE0E94763C803209F08CCE3F
:107E10008091C00085FFFCCFF092C6008091C00029
:107E200085FFFCCFE092C6008091C00085FFFCCFAB
:107E3000D092C6008091C00085FFFCCFC092C600E2
:107E40008091C00085FFFCCFB092C60043CEE09188
:107E50000601F091070194918091C00085FFFCCF4D
:107E60009093C6009CCF80E10E94C73C33CE0E9415
:107E7000763C0E94763C182F0E94763C112309F430
:107E800083C0113009F484C08FE00E94C73C22CE29
:107E900080910C02816080930C02E5CE80910C02EF
:107EA000816080930C0259CF809107018823880F4D
:107EB000880B8A2180930B02809106019091070123
:107EC000880F991F90930701809306018091080203
:107ED00080FF09C080910802909109020196909359
:107EE000090280930802F894F999FECF1127E091D6
:107EF0000601F0910701C8E0D1E08091080290915D
:107F00000902103091F40091570001700130D9F34B
:107F100003E000935700E89500915700017001308D
:107F2000D9F301E100935700E89509901990009169
:107F3000570001700130D9F301E000935700E89534
:107F40001395103498F011270091570001700130FB
:107F5000D9F305E000935700E895009157000170B0
:107F60000130D9F301E100935700E895329602976A
:107F700009F0C7CF103011F00296E5CF112480919F
:107F8000C00085FFB9CEBCCE8EE10E94C73CA2CD19
:0C7F900085E90E94C73C9ECDF894FFCF0D
:027F9C00800063
:040000030000780081
:00000001FF
