:100000001FC043C042C041C040C029C33EC03DC024
:100010003CC03BC03AC039C038C023C46AC30123C6
:10002000456789ABCDEFFEDCBA9876543210F0E12B
:10003000D2C34455434F4944003030300000790466
:1000400011241FBECFE5D2E0DEBFCDBF21E0AAE67E
:10005000B0E001C01D92A93BB207E1F710E0A0E6B5
:10006000B0E0E0EBFFE002C005900D92AA36B107C8
:10007000D9F710E0C0E2D0E003C02197FE017CD7A1
:10008000CF31D107D1F758D491C7BACFCF92DF92F1
:10009000EF92FF920F931F93CF93DF936C01EB01CD
:1000A0007B01E40EF51E10E000E0CE15DF0561F0E7
:1000B0006991D601ED91FC910190F081E02DC6018E
:1000C0000995080F191FF1CFC801DF91CF911F913A
:1000D0000F91FF90EF90DF90CF90089590918E0058
:1000E00080918D00891B8F7008952F923F924F92BF
:1000F0005F926F927F928F929F92AF92BF92CF92B8
:10010000DF92EF92FF920F931F93CF93DF93CDB7C0
:10011000DEB7A9970FB6F894DEBF0FBECDBFDC01E6
:10012000AC5BBF4F2C91E3E0E227E80FF92FF11D04
:1001300064832F5F2C93203409F016C1FC01EB5B24
:10014000FF4F40805180628073804D865E866F864F
:10015000788A34966080718082809380698A7A8AF6
:100160008B8A9C8A349680809180A280B3808D8A0D
:100170009E8AAF8AB88E3496A080B180C280D38028
:10018000A98EBA8ECB8EDC8E3496C080D180E28070
:10019000F380CD8EDE8EEF8EF8A2C986DA86EB86EE
:1001A000FC862D853E854F8558892D833E834F8360
:1001B0005887C988DA88EB88FC88898C9A8CAB8C44
:1001C000BC8C0D891E892F89388D4EE0242E312C50
:1001D00019A249A1443108F051C1B501A401402739
:1001E0005127622773274C215D216E217F212A012F
:1001F0003B01482459246A247B24B301A2014756B9
:1002000056486D47754A4EA35FA368A779A7E9A131
:10021000EF70F0E03196EE0FFF1FEE0FFF1FE80FBB
:10022000F91F4D805E806F8078845BE176946794DF
:10023000579447945A95D1F74D815E816F817885A7
:10024000A5E0440F551F661F771FAA95D1F74429D3
:100250005529662977294080518062807380440D3A
:10026000551D661D771D2A013B014EA15FA168A5A2
:1002700079A5440E551E661E771E49855A856B85E5
:100280007C85440D551D661D771D49835A836B83FC
:100290007C8326013701B2E07694679457944794A3
:1002A000BA95D1F7B701A601EEE1440F551F661FBD
:1002B000771FEA95D1F74429552966297729A9A1FD
:1002C000AF5FA9A3A03509F068C0FC01EB5BFF4F4D
:1002D0004D845E846F847888C980DA80EB80FC80EE
:1002E0004C0C5D1C6E1C7F1C4082518262827382AA
:1002F0003496C988DA88EB88FC884D805E806F80F0
:100300007884C40CD51CE61CF71CC082D182E28222
:10031000F3823496CD88DE88EF88F88C4C0D5D1D15
:100320006E1D7F1D40835183628373833496498D94
:100330005A8D6B8D7C8D400F511F621F731F408340
:1003400051836283738334962D8D3E8D4F8D58A1DA
:10035000820E931EA41EB51E80829182A282B38259
:100360008C5B9F4FDC011C92A9960FB6F894DEBF00
:100370000FBECDBFDF91CF911F910F91FF90EF90F6
:10038000DF90CF90BF90AF909F908F907F906F90B5
:100390005F904F903F902F900895E9A1EF70F0E0AB
:1003A000EE0FFF1FEE0FFF1FDC01AE0FBF1FBA875E
:1003B000A9871496CD90DD90ED90FC901797B9A188
:1003C000B03108F443C0F1013597EF70FF27319643
:1003D000EE0FFF1FEE0FFF1FE80FF91FD101AF70E7
:1003E000BB271196AA0FBB1FAA0FBB1FA80FB91FCF
:1003F0004D905D906D907C90C424D524E624F72424
:100400004080518062807380C424D524E624F72480
:10041000F1013B97EF70FF273196EE0FFF1FEE0FB4
:10042000FF1FE80FF91F4080518062807380C42451
:10043000D524E624F724CC0CDD1CEE1CFF1CC11CCB
:10044000E985FA85C482D582E682F782FFEF2F1A0A
:100450003F0A89869A86AB86BC86CD80DE80EF8097
:10046000F88449805A806B807C804D825E826F82E6
:100470007886480159018A019B01ABCE59A15832B7
:1004800098F4B501A40140275127622773272A0158
:100490003B014C245D246E247F24B301A2014F55FF
:1004A000544166427149AFCE59A15C33D8F4B901C9
:1004B000A8014C295D296E297F29482159216A21EB
:1004C0007B21280139014C205D206E207F20442AA9
:1004D000552A662A772AB301A20144525344644E36
:1004E000704791CEB501A401402751276227732799
:1004F0002A013B014C245D246E247F24B301A20118
:100500004A525E436D4975437ECE262FFC01E75A61
:10051000FF4F40815181628173814F5F5F4F6F4F09
:100520007F4F4083518362837383622FDEDD81E0DE
:1005300090E00895809198009AE08823A1F0E091DE
:100540009A0081E08E0F80939A00F0E0E556FF4F0D
:10055000908120919900821306C010929800109209
:100560009A001092990080919000882389F08091E0
:100570009100803220F580919200E82FF0E0E6595A
:10058000FF4F90838F5F8093920080939100089536
:1005900020918B0080918C002F5F821B8F7079F0EF
:1005A00080918B008F5F8F7020918C008217E1F318
:1005B000E82FF0E0E658FF4F908380938B0008957A
:1005C000CF93DF93892B91F08091F30081110EC0BE
:1005D0008091980081110AC0D7E5C1E08091910017
:1005E000882339F02091920082131AC0DF91CF91B5
:1005F000089574DD8823D1F371DD882369F190912A
:100600008E0080918D009817E1F3E0918E00EF5FEE
:10061000EF70E0938E00F0E0E659FF4F808108C054
:10062000E22FF0E0E659FF4F80812F5F2093920088
:10063000282FE091990091E09E0F90939900F0E0AF
:10064000E556FF4F8083983511F4D09399002A30F6
:1006500029F6C093F300C2CF8FEF9FEFE9CF1F922F
:100660000F920FB60F9211242F933F938F939F9366
:10067000AF93BF938091F9009091FA00A091FB0095
:10068000B091FC003091F80023E0230F2D3768F182
:1006900026E8230F0296A11DB11D2093F800809338
:1006A000F9009093FA00A093FB00B093FC008091B6
:1006B000F4009091F500A091F600B091F70001963A
:1006C000A11DB11D8093F4009093F500A093F60056
:1006D000B093F700BF91AF919F918F913F912F9170
:1006E0000F900FBE0F901F9018950196A11DB11D80
:1006F000D4CF1F920F920FB60F9211240F931F9316
:100700002F933F934F935F936F937F938F939F9319
:10071000AF93BF93CF93EF93FF9380918A00823082
:1007200009F476C0C8F4882399F1813009F456C0E1
:10073000FF91EF91CF91BF91AF919F918F917F9159
:100740006F915F914F913F912F911F910F910F905A
:100750000FBE0F901F901895843009F45FC0B8F158
:10076000853031F784E080938A009FB180918D00BD
:100770008F5F8F7020918E00281709F470C08093CE
:100780008D00E0918D00F0E0E659FF4F908319C095
:100790008FB1882331F08FB1869590918F008913A6
:1007A00019C0789B12C0E0919500F09196003097A7
:1007B00029F080918B0080938C00099581E08093D3
:1007C0008A001FB8B89A8EE721C084E0F8CF8FB1B5
:1007D000882321F0B89888EA8DB917C080918C00E1
:1007E00090918B009817B1F380918C008F5F8F7080
:1007F00080938C00E0918C00F0E0E658FF4F808100
:100800008FB982E080938A00B89A80E78EB990CF42
:1008100083E080938A00B8981FB8D5CF85E0809395
:100820008A00B89880E78EB90091930010919400E7
:100830000115110509F47CCFC0918D0080918E00C7
:100840008C1709F475CF8EB18E7AE9F3759B70CF52
:1008500045DC90E0F8010995C0938E0069CFB89807
:10086000B2CF1F920F920FB60F9211240F931F93C6
:100870002F933F934F935F936F937F938F939F93A8
:10088000AF93BF93CF93EF93FF9300919300109199
:1008900094000115110561F0C0918D0080918E00CA
:1008A0008C1731F01BDC90E0F8010995C0938E00A5
:1008B00010928A00B898B29B1AC0B09BFCCF88EA0D
:1008C0008DB980EF8EB9FF91EF91CF91BF91AF912C
:1008D0009F918F917F916F915F914F913F912F9158
:1008E0001F910F910F900FBE0F901F90189588EFDA
:1008F000E7CFADEFB0E090E080E041E2FC013E9652
:1009000021E030E08630910510F430E020E0E20F85
:10091000F31F40935700E491ED93019689309105C0
:1009200069F7109209011092080184E690E0909313
:100930000701809306010895CF93DF93CDB7DEB70B
:10094000A7970FB6F894DEBF0FBECDBF83E08ABD78
:1009500083BF789489B7826089BF80E48CBD8FEFB4
:100960008DBD87EC80BF87E886B911E010939700B2
:1009700090E080E0A8D280939700181634F010938E
:10098000970061E090E080E0A6D2809197001092FD
:100990009200109291001092900010928E0010928E
:1009A0008D0010928C0010928B0080938F0010921B
:1009B0009600109295001092940010929300C29AA3
:1009C000C09ABA9AB89888EA8DB980EF8EB980EE4D
:1009D00092E090939400809393008AE992E0909340
:1009E0009600809395006BE9E62E60E0F62E0CE20F
:1009F0008091F300882309F4C5C180919B00833264
:100A000019F4F0E0E0E009958FB7F8942091F9002F
:100A10003091FA004091FB005091FC002CA33DA3C3
:100A20004EA35FA38FBF4CE250E05BA34AA3BE017D
:100A30006E5D7F4F8BE990E0DED14C01BE016E5DB3
:100A40007F4F90E080E0D7D15C01BE016E5D7F4FAB
:100A500090E080E0D0D11092990010929A009ED13F
:100A6000803952E095070CF0FFC0D5019501285D53
:100A70003F4FF50140814A330CF0E8C04295407F7A
:100A800051815A330CF0E8C05053450F4D933296C4
:100A90002E173F0779F764E670E034D21C01412C31
:100AA000512C3201241435040CF4DEC044E150E032
:100AB0006EE170E08BE491E08ED110925F011092B4
:100AC0006001109261011092620110924A01F401DA
:100AD00001900020E9F73197AF0148195909B40195
:100AE00086E091E0D3DA19A2142D752DC3016E01B1
:100AF000E1E2CE0ED11C612F2AE030E040E050E070
:100B000012D2822F6AE0F5D1181B1A300CF0AAC05D
:100B1000105DF60112936F01122F732FCA01232B60
:100B2000242B252B41F701900020E9F73197AF01E5
:100B30004C195D09B60186E091E0A8DA60E886E02C
:100B400091E0D3DA80914A0160E08833C1F786E012
:100B500091E0CBDA60E086E091E0C7DA60E086E021
:100B600091E0C3DA60915F01709160018091610151
:100B7000909162012DE196958795779567952A95D5
:100B8000D1F786E091E0B1DA60915F017091600188
:100B9000809161019091620135E1969587957795F5
:100BA00067953A95D1F786E091E09FDA60915F0111
:100BB0007091600180916101909162014DE0969584
:100BC0008795779567954A95D1F786E091E08DDA1C
:100BD00060915F017091600180916101909162016B
:100BE00055E096958795779567955A95D1F786E064
:100BF00091E07BDA60915F01660F660F660F86E019
:100C000091E073DAEBE4F1E061917191819191915E
:100C1000ACD1DF0114976D937D938D939C931397C3
:100C20002FE531E02E173F0779F744E150E0B50199
:100C30008BE491E0A7D1B301A2014F5F5F4F6F4FEB
:100C40007F4F892BA1F02A013B012CCF473614F4AA
:100C5000475514CF40E014CF573614F4575515CFED
:100C600050E013CF195C55CF412C512C32012FB7D6
:100C7000F8948091F9009091FA00A091FB00B09156
:100C8000FC002FBF6C014CA15DA1C41AD50AF7016D
:100C900028E511922A95E9F74AE0BE016F5F7F4F80
:100CA000C201D4D0BE016F5F7F4F8BE990E077D156
:100CB000F70101900020E9F7319700834AE0BE0177
:100CC0006F5F7F4FC601C2D0F70101900020E9F7A6
:100CD000CF01BE016F5F7F4F019761D1F701019096
:100CE0000020E9F7CF0169E370E001977DD0F701BB
:100CF00001900020E9F731970083F701019000206F
:100D0000E9F7CF0162E370E001976ED08DEFC82E56
:100D100080E0D82EF601818140E1BE016F5F7F4FF8
:100D200090E094D0F6018181803148F4F701019080
:100D30000020E9F7CF0168E670E0019730D1F701B4
:100D400001900020E9F7CF01BE016F5F7F4F01974F
:100D500026D1FFEFCF1ADF0A25E0C21621E0D20626
:100D6000C9F610929A00EBE9F0E001900020E9F753
:100D7000CF018C599040809399001092F300F1E0DC
:100D8000F09398008FB7F8944091F9005091FA00D1
:100D90006091FB007091FC008FBF2ACEFC01882778
:100DA0009927E89421912032E9F3293010F02E3070
:100DB000C8F32B3239F02D3231F4689403C050D08F
:100DC000820F911D219120532A30C8F31EF4909573
:100DD00081959F4F0895FB01DC0102C005900D92A3
:100DE00041505040D8F70895FB01DC0105900D9269
:100DF0000020E1F7089547EB51E001D00895FA0192
:100E0000A191B081009719F41097E1F0CD01DC01B8
:100E1000CD010D90002011F4C00113C0FB01219100
:100E2000222319F02015D9F7F3CFFB0121912015CA
:100E300019F41E92119606C02223C1F70D900020CE
:100E4000A1F7D001FA01A193B0830895BB274A30DE
:100E500031F4992322F4BDE2909581959F4F0BC008
:100E6000BC01880F991F880F991F860F971F880F45
:100E7000991F0895BB27FB015527AA27880F991FA3
:100E8000AA1FA41710F0A41B83955051B9F7A05DB9
:100E9000AA3308F0A95DA193009779F7B111B19336
:100EA0001192CB0100C0DC01FC01672F7191772307
:100EB000E1F7329704C07C916D9370836291AE1715
:100EC000BF07C8F30895E199FECF9FBB8EBBE09AA0
:100ED00099278DB30895262FE199FECF1CBA9FBBA9
:100EE0008EBB2DBB0FB6F894E29AE19A0FBE019625
:100EF0000895002480FD060E660F11F08695D1F747
:100F0000802D08950024552704C0080E591F880F0E
:100F1000991F009729F076956795B8F37105B9F791
:100F2000802D952F0895A1E21A2EAA1BBB1BFD014F
:100F30000DC0AA1FBB1FEE1FFF1FA217B307E407B8
:100F4000F50720F0A21BB30BE40BF50B661F771F10
:100F5000881F991F1A9469F76095709580959095F0
:100F60009B01AC01BD01CF01089569279627692730
:100F70007827872778270895EE0FFF1F0590F491B3
:100F8000E02D0994FB01DC0104C08D9101908019D2
:100F900021F441505040C8F7881B990B0895FB017C
:100FA000DC0101900D920020E1F70895F894FFCF45
:0A0FB000000000008502460030003A
:00000001FF
